{
  "contractName": "Auction",
  "abi": [
    {
      "inputs": [
        {
          "internalType": "address payable",
          "name": "_beneficiary",
          "type": "address"
        }
      ],
      "stateMutability": "nonpayable",
      "type": "constructor"
    },
    {
      "anonymous": false,
      "inputs": [
        {
          "indexed": false,
          "internalType": "address",
          "name": "winner",
          "type": "address"
        },
        {
          "indexed": false,
          "internalType": "uint256",
          "name": "amount",
          "type": "uint256"
        }
      ],
      "name": "auctionEnded",
      "type": "event"
    },
    {
      "anonymous": false,
      "inputs": [
        {
          "indexed": false,
          "internalType": "address",
          "name": "bidder",
          "type": "address"
        },
        {
          "indexed": false,
          "internalType": "uint256",
          "name": "amount",
          "type": "uint256"
        }
      ],
      "name": "highestBidIncrease",
      "type": "event"
    },
    {
      "inputs": [],
      "name": "beneficiary",
      "outputs": [
        {
          "internalType": "address payable",
          "name": "",
          "type": "address"
        }
      ],
      "stateMutability": "view",
      "type": "function",
      "constant": true
    },
    {
      "inputs": [
        {
          "internalType": "uint256",
          "name": "id",
          "type": "uint256"
        },
        {
          "internalType": "uint256",
          "name": "auctionEndTime",
          "type": "uint256"
        }
      ],
      "name": "addItem",
      "outputs": [],
      "stateMutability": "nonpayable",
      "type": "function"
    },
    {
      "inputs": [],
      "name": "getAllItems",
      "outputs": [
        {
          "components": [
            {
              "internalType": "uint256",
              "name": "id",
              "type": "uint256"
            },
            {
              "internalType": "uint256",
              "name": "highestBid",
              "type": "uint256"
            },
            {
              "internalType": "address",
              "name": "highestBidder",
              "type": "address"
            },
            {
              "internalType": "uint256",
              "name": "auctionEndTime",
              "type": "uint256"
            },
            {
              "internalType": "bool",
              "name": "ended",
              "type": "bool"
            }
          ],
          "internalType": "struct Auction.Item[]",
          "name": "",
          "type": "tuple[]"
        }
      ],
      "stateMutability": "view",
      "type": "function",
      "constant": true
    },
    {
      "inputs": [
        {
          "internalType": "uint256",
          "name": "_id",
          "type": "uint256"
        }
      ],
      "name": "getItem",
      "outputs": [
        {
          "components": [
            {
              "internalType": "uint256",
              "name": "id",
              "type": "uint256"
            },
            {
              "internalType": "uint256",
              "name": "highestBid",
              "type": "uint256"
            },
            {
              "internalType": "address",
              "name": "highestBidder",
              "type": "address"
            },
            {
              "internalType": "uint256",
              "name": "auctionEndTime",
              "type": "uint256"
            },
            {
              "internalType": "bool",
              "name": "ended",
              "type": "bool"
            }
          ],
          "internalType": "struct Auction.Item",
          "name": "",
          "type": "tuple"
        }
      ],
      "stateMutability": "view",
      "type": "function",
      "constant": true
    },
    {
      "inputs": [
        {
          "internalType": "uint256",
          "name": "_id",
          "type": "uint256"
        }
      ],
      "name": "bid",
      "outputs": [],
      "stateMutability": "payable",
      "type": "function",
      "payable": true
    },
    {
      "inputs": [
        {
          "internalType": "uint256",
          "name": "_id",
          "type": "uint256"
        }
      ],
      "name": "auctionEnd",
      "outputs": [],
      "stateMutability": "nonpayable",
      "type": "function"
    }
  ],
  "bytecode": "0x6080604052600060015534801561001557600080fd5b50604051610f4c380380610f4c833981810160405281019061003791906100e0565b806000806101000a81548173ffffffffffffffffffffffffffffffffffffffff021916908373ffffffffffffffffffffffffffffffffffffffff1602179055505061010d565b600080fd5b600073ffffffffffffffffffffffffffffffffffffffff82169050919050565b60006100ad82610082565b9050919050565b6100bd816100a2565b81146100c857600080fd5b50565b6000815190506100da816100b4565b92915050565b6000602082840312156100f6576100f561007d565b5b6000610104848285016100cb565b91505092915050565b610e308061011c6000396000f3fe6080604052600436106100555760003560e01c80633129e7731461005a57806332246e9f1461009757806338af3eed146100c0578063454a2ab3146100eb5780634ba1d6aa14610107578063a212523214610132575b600080fd5b34801561006657600080fd5b50610081600480360381019061007c9190610946565b61015b565b60405161008e9190610a46565b60405180910390f35b3480156100a357600080fd5b506100be60048036038101906100b99190610946565b610226565b005b3480156100cc57600080fd5b506100d5610439565b6040516100e29190610a82565b60405180910390f35b61010560048036038101906101009190610946565b61045d565b005b34801561011357600080fd5b5061011c6106d4565b6040516101299190610bb4565b60405180910390f35b34801561013e57600080fd5b5061015960048036038101906101549190610bd6565b6107c2565b005b6101636108c4565b6002828154811061017757610176610c16565b5b90600052602060002090600502016040518060a001604052908160008201548152602001600182015481526020016002820160009054906101000a900473ffffffffffffffffffffffffffffffffffffffff1673ffffffffffffffffffffffffffffffffffffffff1673ffffffffffffffffffffffffffffffffffffffff168152602001600382015481526020016004820160009054906101000a900460ff1615151515815250509050919050565b6002818154811061023a57610239610c16565b5b906000526020600020906005020160040160009054906101000a900460ff1615801561028a57506002818154811061027557610274610c16565b5b90600052602060002090600502016003015442105b6102c9576040517f08c379a00000000000000000000000000000000000000000000000000000000081526004016102c090610ca2565b60405180910390fd5b6001600282815481106102df576102de610c16565b5b906000526020600020906005020160040160006101000a81548160ff0219169083151502179055507f6e0e2174dbf7b77c08b6f9a2799b9feda84a6d54a5644864582040100a47d4c56002828154811061033c5761033b610c16565b5b906000526020600020906005020160020160009054906101000a900473ffffffffffffffffffffffffffffffffffffffff166002838154811061038257610381610c16565b5b9060005260206000209060050201600101546040516103a2929190610ce0565b60405180910390a160008054906101000a900473ffffffffffffffffffffffffffffffffffffffff1673ffffffffffffffffffffffffffffffffffffffff166108fc600283815481106103f8576103f7610c16565b5b9060005260206000209060050201600101549081150290604051600060405180830381858888f19350505050158015610435573d6000803e3d6000fd5b5050565b60008054906101000a900473ffffffffffffffffffffffffffffffffffffffff1681565b6002818154811061047157610470610c16565b5b90600052602060002090600502016003015442106104c4576040517f08c379a00000000000000000000000000000000000000000000000000000000081526004016104bb90610ca2565b60405180910390fd5b600281815481106104d8576104d7610c16565b5b906000526020600020906005020160010154341161052b576040517f08c379a000000000000000000000000000000000000000000000000000000000815260040161052290610d55565b60405180910390fd5b60006002828154811061054157610540610c16565b5b9060005260206000209060050201600101541461060a576002818154811061056c5761056b610c16565b5b906000526020600020906005020160020160009054906101000a900473ffffffffffffffffffffffffffffffffffffffff1673ffffffffffffffffffffffffffffffffffffffff166108fc600283815481106105cb576105ca610c16565b5b9060005260206000209060050201600101549081150290604051600060405180830381858888f19350505050158015610608573d6000803e3d6000fd5b505b336002828154811061061f5761061e610c16565b5b906000526020600020906005020160020160006101000a81548173ffffffffffffffffffffffffffffffffffffffff021916908373ffffffffffffffffffffffffffffffffffffffff160217905550346002828154811061068357610682610c16565b5b9060005260206000209060050201600101819055507f123a2a99bd109b51e435e65e10a7230bdbd13b8a0fa2f7ee4ef740da1f86f0eb33346040516106c9929190610ce0565b60405180910390a150565b60606002805480602002602001604051908101604052809291908181526020016000905b828210156107b957838290600052602060002090600502016040518060a001604052908160008201548152602001600182015481526020016002820160009054906101000a900473ffffffffffffffffffffffffffffffffffffffff1673ffffffffffffffffffffffffffffffffffffffff1673ffffffffffffffffffffffffffffffffffffffff168152602001600382015481526020016004820160009054906101000a900460ff161515151581525050815260200190600101906106f8565b50505050905090565b60026040518060a00160405280848152602001600081526020013373ffffffffffffffffffffffffffffffffffffffff16815260200183426108049190610da4565b8152602001600015158152509080600181540180825580915050600190039060005260206000209060050201600090919091909150600082015181600001556020820151816001015560408201518160020160006101000a81548173ffffffffffffffffffffffffffffffffffffffff021916908373ffffffffffffffffffffffffffffffffffffffff1602179055506060820151816003015560808201518160040160006101000a81548160ff02191690831515021790555050505050565b6040518060a001604052806000815260200160008152602001600073ffffffffffffffffffffffffffffffffffffffff168152602001600081526020016000151581525090565b600080fd5b6000819050919050565b61092381610910565b811461092e57600080fd5b50565b6000813590506109408161091a565b92915050565b60006020828403121561095c5761095b61090b565b5b600061096a84828501610931565b91505092915050565b61097c81610910565b82525050565b600073ffffffffffffffffffffffffffffffffffffffff82169050919050565b60006109ad82610982565b9050919050565b6109bd816109a2565b82525050565b60008115159050919050565b6109d8816109c3565b82525050565b60a0820160008201516109f46000850182610973565b506020820151610a076020850182610973565b506040820151610a1a60408501826109b4565b506060820151610a2d6060850182610973565b506080820151610a4060808501826109cf565b50505050565b600060a082019050610a5b60008301846109de565b92915050565b6000610a6c82610982565b9050919050565b610a7c81610a61565b82525050565b6000602082019050610a976000830184610a73565b92915050565b600081519050919050565b600082825260208201905092915050565b6000819050602082019050919050565b60a082016000820151610adf6000850182610973565b506020820151610af26020850182610973565b506040820151610b0560408501826109b4565b506060820151610b186060850182610973565b506080820151610b2b60808501826109cf565b50505050565b6000610b3d8383610ac9565b60a08301905092915050565b6000602082019050919050565b6000610b6182610a9d565b610b6b8185610aa8565b9350610b7683610ab9565b8060005b83811015610ba7578151610b8e8882610b31565b9750610b9983610b49565b925050600181019050610b7a565b5085935050505092915050565b60006020820190508181036000830152610bce8184610b56565b905092915050565b60008060408385031215610bed57610bec61090b565b5b6000610bfb85828601610931565b9250506020610c0c85828601610931565b9150509250929050565b7f4e487b7100000000000000000000000000000000000000000000000000000000600052603260045260246000fd5b600082825260208201905092915050565b7f41756374696f6e20686173206265656e20656e64656421000000000000000000600082015250565b6000610c8c601783610c45565b9150610c9782610c56565b602082019050919050565b60006020820190508181036000830152610cbb81610c7f565b9050919050565b610ccb816109a2565b82525050565b610cda81610910565b82525050565b6000604082019050610cf56000830185610cc2565b610d026020830184610cd1565b9392505050565b7f496e76616c696420626964210000000000000000000000000000000000000000600082015250565b6000610d3f600c83610c45565b9150610d4a82610d09565b602082019050919050565b60006020820190508181036000830152610d6e81610d32565b9050919050565b7f4e487b7100000000000000000000000000000000000000000000000000000000600052601160045260246000fd5b6000610daf82610910565b9150610dba83610910565b9250827fffffffffffffffffffffffffffffffffffffffffffffffffffffffffffffffff03821115610def57610dee610d75565b5b82820190509291505056fea264697066735822122006ad8e9738d88db323dd9c234636d7dbf281637fb12918d6f74f39eef71e0e2864736f6c63430008090033",
  "immutableReferences": {},
  "source": "// SPDX-License-Identifier: UNLICENSED\r\npragma solidity ^0.8.9;\r\ncontract Auction{\r\n    address payable public beneficiary;\r\n    uint itemCount = 0;\r\n    struct Item {\r\n        uint id;\r\n        uint highestBid;\r\n        address highestBidder;\r\n        uint auctionEndTime;\r\n        bool ended;\r\n    }\r\n    Item[] items;\r\n\r\n    event highestBidIncrease(address bidder, uint amount);\r\n    event auctionEnded(address winner, uint amount);\r\n\r\n    constructor(address payable _beneficiary){\r\n        beneficiary = _beneficiary;\r\n    }\r\n\r\n\r\n    function addItem(uint id, uint auctionEndTime) public {\r\n        items.push(Item(id,0,msg.sender,block.timestamp + auctionEndTime, false));\r\n    }\r\n    function getAllItems() public view returns (Item[] memory){\r\n        return items;\r\n    }\r\n\r\n    function getItem(uint _id) public view returns (Item memory){\r\n        return items[_id];\r\n    }\r\n    function bid(uint _id) public payable{\r\n        require(block.timestamp < items[_id].auctionEndTime, \"Auction has been ended!\");\r\n        require(msg.value > items[_id].highestBid, \"Invalid bid!\");\r\n        if(items[_id].highestBid != 0){\r\n            payable(items[_id].highestBidder).transfer(items[_id].highestBid);\r\n        }\r\n        items[_id].highestBidder = msg.sender;\r\n        items[_id].highestBid = msg.value;\r\n        emit highestBidIncrease(msg.sender, msg.value);\r\n    }\r\n    \r\n    function auctionEnd(uint _id) public {\r\n        require(!items[_id].ended && block.timestamp < items[_id].auctionEndTime, 'Auction has been ended!');\r\n        items[_id].ended = true;\r\n        emit auctionEnded(items[_id].highestBidder,items[_id].highestBid);\r\n        beneficiary.transfer(items[_id].highestBid);\r\n    }\r\n }",
  "sourcePath": "C:\\Users\\Le Quoc Tuan\\OneDrive\\Documents\\Blockchains\\project2\\client\\contracts\\Auction.sol",
  "compiler": {
    "name": "solc",
    "version": "0.8.9+commit.e5eed63a.Emscripten.clang"
  },
  "schemaVersion": "3.4.7",
  "updatedAt": "2023-07-31T13:58:02.495Z",
  "networkType": "ethereum",
  "devdoc": {
    "kind": "dev",
    "methods": {},
    "version": 1
  },
  "userdoc": {
    "kind": "user",
    "methods": {},
    "version": 1
  }
}