{
  "contractName": "Lottery",
  "abi": [
    {
      "inputs": [
        {
          "internalType": "uint256",
          "name": "",
          "type": "uint256"
        }
      ],
      "name": "couponList",
      "outputs": [
        {
          "internalType": "uint8",
          "name": "group",
          "type": "uint8"
        },
        {
          "internalType": "string",
          "name": "uid",
          "type": "string"
        }
      ],
      "stateMutability": "view",
      "type": "function",
      "constant": true
    },
    {
      "inputs": [
        {
          "internalType": "string",
          "name": "uid",
          "type": "string"
        }
      ],
      "name": "createCoupon",
      "outputs": [],
      "stateMutability": "nonpayable",
      "type": "function"
    }
  ],
  "bytecode": "0x608060405234801561001057600080fd5b50610a39806100206000396000f3fe608060405234801561001057600080fd5b50600436106100365760003560e01c806362b3b8331461003b578063d03c534c14610057575b600080fd5b610055600480360381019061005091906105d8565b610088565b005b610071600480360381019061006c9190610657565b610259565b60405161007f929190610728565b60405180910390f35b6000600767ffffffffffffffff8111156100a5576100a46104ad565b5b6040519080825280602002602001820160405280156100d35781602001602082028036833780820191505090505b5090506035816000815181106100ec576100eb610758565b5b60200260200101818152505060148160018151811061010e5761010d610758565b5b602002602001018181525050600c816002815181106101305761012f610758565b5b60200260200101818152505060088160038151811061015257610151610758565b5b60200260200101818152505060048160048151811061017457610173610758565b5b60200260200101818152505060028160058151811061019657610195610758565b5b6020026020010181815250506001816006815181106101b8576101b7610758565b5b60200260200101818152505060006101cf82610322565b9050600060405180604001604052808360ff16815260200185815250908060018154018082558091505060019003906000526020600020906002020160009091909190915060008201518160000160006101000a81548160ff021916908360ff16021790555060208201518160010190805190602001906102519291906103db565b505050505050565b6000818154811061026957600080fd5b90600052602060002090600202016000915090508060000160009054906101000a900460ff169080600101805461029f906107b6565b80601f01602080910402602001604051908101604052809291908181526020018280546102cb906107b6565b80156103185780601f106102ed57610100808354040283529160200191610318565b820191906000526020600020905b8154815290600101906020018083116102fb57829003601f168201915b5050505050905082565b600080606442443360405160200161033c93929190610883565b6040516020818303038152906040528051906020012060001c61035f91906108ef565b90506000805b84518160ff1610156103c257848160ff168151811061038757610386610758565b5b60200260200101518261039a919061094f565b9150818310156103af578093505050506103d6565b80806103ba906109a5565b915050610365565b50600184516103d191906109cf565b925050505b919050565b8280546103e7906107b6565b90600052602060002090601f0160209004810192826104095760008555610450565b82601f1061042257805160ff1916838001178555610450565b82800160010185558215610450579182015b8281111561044f578251825591602001919060010190610434565b5b50905061045d9190610461565b5090565b5b8082111561047a576000816000905550600101610462565b5090565b6000604051905090565b600080fd5b600080fd5b600080fd5b600080fd5b6000601f19601f8301169050919050565b7f4e487b7100000000000000000000000000000000000000000000000000000000600052604160045260246000fd5b6104e58261049c565b810181811067ffffffffffffffff82111715610504576105036104ad565b5b80604052505050565b600061051761047e565b905061052382826104dc565b919050565b600067ffffffffffffffff821115610543576105426104ad565b5b61054c8261049c565b9050602081019050919050565b82818337600083830152505050565b600061057b61057684610528565b61050d565b90508281526020810184848401111561059757610596610497565b5b6105a2848285610559565b509392505050565b600082601f8301126105bf576105be610492565b5b81356105cf848260208601610568565b91505092915050565b6000602082840312156105ee576105ed610488565b5b600082013567ffffffffffffffff81111561060c5761060b61048d565b5b610618848285016105aa565b91505092915050565b6000819050919050565b61063481610621565b811461063f57600080fd5b50565b6000813590506106518161062b565b92915050565b60006020828403121561066d5761066c610488565b5b600061067b84828501610642565b91505092915050565b600060ff82169050919050565b61069a81610684565b82525050565b600081519050919050565b600082825260208201905092915050565b60005b838110156106da5780820151818401526020810190506106bf565b838111156106e9576000848401525b50505050565b60006106fa826106a0565b61070481856106ab565b93506107148185602086016106bc565b61071d8161049c565b840191505092915050565b600060408201905061073d6000830185610691565b818103602083015261074f81846106ef565b90509392505050565b7f4e487b7100000000000000000000000000000000000000000000000000000000600052603260045260246000fd5b7f4e487b7100000000000000000000000000000000000000000000000000000000600052602260045260246000fd5b600060028204905060018216806107ce57607f821691505b602082108114156107e2576107e1610787565b5b50919050565b6000819050919050565b6108036107fe82610621565b6107e8565b82525050565b600073ffffffffffffffffffffffffffffffffffffffff82169050919050565b600061083482610809565b9050919050565b60008160601b9050919050565b60006108538261083b565b9050919050565b600061086582610848565b9050919050565b61087d61087882610829565b61085a565b82525050565b600061088f82866107f2565b60208201915061089f82856107f2565b6020820191506108af828461086c565b601482019150819050949350505050565b7f4e487b7100000000000000000000000000000000000000000000000000000000600052601260045260246000fd5b60006108fa82610621565b915061090583610621565b925082610915576109146108c0565b5b828206905092915050565b7f4e487b7100000000000000000000000000000000000000000000000000000000600052601160045260246000fd5b600061095a82610621565b915061096583610621565b9250827fffffffffffffffffffffffffffffffffffffffffffffffffffffffffffffffff0382111561099a57610999610920565b5b828201905092915050565b60006109b082610684565b915060ff8214156109c4576109c3610920565b5b600182019050919050565b60006109da82610621565b91506109e583610621565b9250828210156109f8576109f7610920565b5b82820390509291505056fea26469706673582212205aeb50bfa2239578e1dcac6ff10ff270c017cbf93c9154f3feea444f4b74e1e564736f6c63430008090033",
  "immutableReferences": {},
  "source": "// SPDX-License-Identifier: UNLICENSED\r\n\r\npragma solidity ^0.8.9;\r\n\r\ncontract Lottery{\r\n    struct Coupon {\r\n        uint8 group;\r\n        string uid;\r\n    }\r\n\r\n    Coupon[] public couponList;\r\n\r\n    function createCoupon(string memory uid) public {\r\n        uint256[] memory rates = new uint256[](7);\r\n        rates[0] = 53;\r\n        rates[1] = 20;\r\n        rates[2] = 12;\r\n        rates[3] = 8;\r\n        rates[4] = 4;\r\n        rates[5] = 2;\r\n        rates[6] = 1;\r\n\r\n        uint8 group = selectGroup(rates);\r\n        couponList.push(Coupon(group,uid));\r\n    }\r\n\r\n    function selectGroup(uint256[] memory rates) private view returns (uint8) {\r\n        uint256 randomValue = uint256(keccak256(abi.encodePacked(block.timestamp, block.difficulty, msg.sender))) % 100;\r\n\r\n        uint256 cumulativeRate = 0;\r\n        for (uint8 i = 0; i < rates.length; i++) {\r\n            cumulativeRate += rates[i];\r\n\r\n            if (randomValue < cumulativeRate) {\r\n                return i;\r\n            }\r\n        }\r\n\r\n        // Default to the last group if no match is found\r\n        return uint8(rates.length - 1);\r\n    }\r\n}",
  "sourcePath": "C:\\Users\\Le Quoc Tuan\\OneDrive\\Documents\\Blockchains\\project2\\client\\contracts\\Lottery.sol",
  "compiler": {
    "name": "solc",
    "version": "0.8.9+commit.e5eed63a.Emscripten.clang"
  },
  "schemaVersion": "3.4.7",
  "updatedAt": "2023-07-16T10:47:21.824Z",
  "networkType": "ethereum",
  "devdoc": {
    "kind": "dev",
    "methods": {},
    "version": 1
  },
  "userdoc": {
    "kind": "user",
    "methods": {},
    "version": 1
  }
}