{
  "contractName": "Lottery",
  "abi": [
    {
      "inputs": [
        {
          "internalType": "address payable",
          "name": "_owner",
          "type": "address"
        }
      ],
      "stateMutability": "nonpayable",
      "type": "constructor"
    },
    {
      "inputs": [],
      "name": "owner",
      "outputs": [
        {
          "internalType": "address payable",
          "name": "",
          "type": "address"
        }
      ],
      "stateMutability": "view",
      "type": "function",
      "constant": true
    },
    {
      "inputs": [],
      "name": "poolCount",
      "outputs": [
        {
          "internalType": "uint256",
          "name": "",
          "type": "uint256"
        }
      ],
      "stateMutability": "view",
      "type": "function",
      "constant": true
    },
    {
      "inputs": [
        {
          "internalType": "uint256[]",
          "name": "input_proportions",
          "type": "uint256[]"
        },
        {
          "internalType": "uint256[]",
          "name": "input_items",
          "type": "uint256[]"
        },
        {
          "internalType": "uint256",
          "name": "entry_value",
          "type": "uint256"
        }
      ],
      "name": "addPrize",
      "outputs": [],
      "stateMutability": "nonpayable",
      "type": "function"
    },
    {
      "inputs": [],
      "name": "getPools",
      "outputs": [
        {
          "components": [
            {
              "internalType": "uint256",
              "name": "id",
              "type": "uint256"
            },
            {
              "internalType": "uint256[]",
              "name": "rates",
              "type": "uint256[]"
            },
            {
              "internalType": "uint256[]",
              "name": "items",
              "type": "uint256[]"
            },
            {
              "internalType": "uint256",
              "name": "entry_value",
              "type": "uint256"
            }
          ],
          "internalType": "struct Lottery.Pool[]",
          "name": "",
          "type": "tuple[]"
        }
      ],
      "stateMutability": "view",
      "type": "function",
      "constant": true
    },
    {
      "inputs": [],
      "name": "getCouponList",
      "outputs": [
        {
          "components": [
            {
              "internalType": "uint8",
              "name": "pool_id",
              "type": "uint8"
            },
            {
              "internalType": "uint8",
              "name": "group",
              "type": "uint8"
            },
            {
              "internalType": "string",
              "name": "uid",
              "type": "string"
            }
          ],
          "internalType": "struct Lottery.Coupon[]",
          "name": "",
          "type": "tuple[]"
        }
      ],
      "stateMutability": "view",
      "type": "function",
      "constant": true
    },
    {
      "inputs": [
        {
          "internalType": "string",
          "name": "uid",
          "type": "string"
        },
        {
          "internalType": "uint8",
          "name": "pool_id",
          "type": "uint8"
        }
      ],
      "name": "createCoupon",
      "outputs": [],
      "stateMutability": "payable",
      "type": "function",
      "payable": true
    }
  ],
  "bytecode": "0x60806040523480156200001157600080fd5b50604051620016c9380380620016c98339818101604052810190620000379190620000e8565b806000806101000a81548173ffffffffffffffffffffffffffffffffffffffff021916908373ffffffffffffffffffffffffffffffffffffffff160217905550506200011a565b600080fd5b600073ffffffffffffffffffffffffffffffffffffffff82169050919050565b6000620000b08262000083565b9050919050565b620000c281620000a3565b8114620000ce57600080fd5b50565b600081519050620000e281620000b7565b92915050565b6000602082840312156200010157620001006200007e565b5b60006200011184828501620000d1565b91505092915050565b61159f806200012a6000396000f3fe6080604052600436106100555760003560e01c80634f7c39a51461005a578063673a2a1f146100835780636fddae71146100ae5780638da5cb5b146100ca578063c94c0fea146100f5578063f525cb6814610120575b600080fd5b34801561006657600080fd5b50610081600480360381019061007c9190610b7a565b61014b565b005b34801561008f57600080fd5b506100986103eb565b6040516100a59190610def565b60405180910390f35b6100c860048036038101906100c39190610eff565b61050e565b005b3480156100d657600080fd5b506100df61069e565b6040516100ec9190610f9c565b60405180910390f35b34801561010157600080fd5b5061010a6106c2565b6040516101179190611160565b60405180910390f35b34801561012c57600080fd5b506101356107ed565b6040516101429190611191565b60405180910390f35b60008054906101000a900473ffffffffffffffffffffffffffffffffffffffff1673ffffffffffffffffffffffffffffffffffffffff163373ffffffffffffffffffffffffffffffffffffffff16146101d9576040517f08c379a00000000000000000000000000000000000000000000000000000000081526004016101d090611209565b60405180910390fd5b6101e16107f3565b60005b83518160ff16101561028f576003848260ff168151811061020857610207611229565b5b602002602001015190806001815401808255809150506001900390600052602060002001600090919091909150556004838260ff168151811061024e5761024d611229565b5b60200260200101519080600181540180825580915050600190039060005260206000200160009091909190915055808061028790611287565b9150506101e4565b5060056040518060800160405280600154815260200160038054806020026020016040519081016040528092919081815260200182805480156102f157602002820191906000526020600020905b8154815260200190600101908083116102dd575b50505050508152602001600480548060200260200160405190810160405280929190818152602001828054801561034757602002820191906000526020600020905b815481526020019060010190808311610333575b505050505081526020018381525090806001815401808255809150506001900390600052602060002090600402016000909190919091506000820151816000015560208201518160010190805190602001906103a49291906108c6565b5060408201518160020190805190602001906103c19291906108c6565b50606082015181600301555050600160008154809291906103e1906112b1565b9190505550505050565b60606005805480602002602001604051908101604052809291908181526020016000905b828210156105055783829060005260206000209060040201604051806080016040529081600082015481526020016001820180548060200260200160405190810160405280929190818152602001828054801561048b57602002820191906000526020600020905b815481526020019060010190808311610477575b50505050508152602001600282018054806020026020016040519081016040528092919081815260200182805480156104e357602002820191906000526020600020905b8154815260200190600101908083116104cf575b505050505081526020016003820154815250508152602001906001019061040f565b50505050905090565b60058160ff168154811061052557610524611229565b5b906000526020600020906004020160030154341015610579576040517f08c379a000000000000000000000000000000000000000000000000000000000815260040161057090611346565b60405180910390fd5b60008054906101000a900473ffffffffffffffffffffffffffffffffffffffff1673ffffffffffffffffffffffffffffffffffffffff166108fc349081150290604051600060405180830381858888f193505050501580156105df573d6000803e3d6000fd5b5060006105ea610803565b9050600260405180606001604052808460ff1681526020018360ff16815260200185815250908060018154018082558091505060019003906000526020600020906002020160009091909190915060008201518160000160006101000a81548160ff021916908360ff16021790555060208201518160000160016101000a81548160ff021916908360ff1602179055506040820151816001019080519060200190610696929190610913565b505050505050565b60008054906101000a900473ffffffffffffffffffffffffffffffffffffffff1681565b60606002805480602002602001604051908101604052809291908181526020016000905b828210156107e457838290600052602060002090600202016040518060600160405290816000820160009054906101000a900460ff1660ff1660ff1681526020016000820160019054906101000a900460ff1660ff1660ff16815260200160018201805461075390611395565b80601f016020809104026020016040519081016040528092919081815260200182805461077f90611395565b80156107cc5780601f106107a1576101008083540402835291602001916107cc565b820191906000526020600020905b8154815290600101906020018083116107af57829003601f168201915b505050505081525050815260200190600101906106e6565b50505050905090565b60015481565b600360006108019190610999565b565b600080606442443360405160200161081d93929190611442565b6040516020818303038152906040528051906020012060001c61084091906114ae565b90506000805b6003805490508160ff1610156108ab5760038160ff168154811061086d5761086c611229565b5b90600052602060002001548261088391906114df565b915081831015610898578093505050506108c3565b80806108a390611287565b915050610846565b5060016003805490506108be9190611535565b925050505b90565b828054828255906000526020600020908101928215610902579160200282015b828111156109015782518255916020019190600101906108e6565b5b50905061090f91906109ba565b5090565b82805461091f90611395565b90600052602060002090601f0160209004810192826109415760008555610988565b82601f1061095a57805160ff1916838001178555610988565b82800160010185558215610988579182015b8281111561098757825182559160200191906001019061096c565b5b50905061099591906109ba565b5090565b50805460008255906000526020600020908101906109b791906109ba565b50565b5b808211156109d35760008160009055506001016109bb565b5090565b6000604051905090565b600080fd5b600080fd5b600080fd5b6000601f19601f8301169050919050565b7f4e487b7100000000000000000000000000000000000000000000000000000000600052604160045260246000fd5b610a39826109f0565b810181811067ffffffffffffffff82111715610a5857610a57610a01565b5b80604052505050565b6000610a6b6109d7565b9050610a778282610a30565b919050565b600067ffffffffffffffff821115610a9757610a96610a01565b5b602082029050602081019050919050565b600080fd5b6000819050919050565b610ac081610aad565b8114610acb57600080fd5b50565b600081359050610add81610ab7565b92915050565b6000610af6610af184610a7c565b610a61565b90508083825260208201905060208402830185811115610b1957610b18610aa8565b5b835b81811015610b425780610b2e8882610ace565b845260208401935050602081019050610b1b565b5050509392505050565b600082601f830112610b6157610b606109eb565b5b8135610b71848260208601610ae3565b91505092915050565b600080600060608486031215610b9357610b926109e1565b5b600084013567ffffffffffffffff811115610bb157610bb06109e6565b5b610bbd86828701610b4c565b935050602084013567ffffffffffffffff811115610bde57610bdd6109e6565b5b610bea86828701610b4c565b9250506040610bfb86828701610ace565b9150509250925092565b600081519050919050565b600082825260208201905092915050565b6000819050602082019050919050565b610c3a81610aad565b82525050565b600081519050919050565b600082825260208201905092915050565b6000819050602082019050919050565b6000610c788383610c31565b60208301905092915050565b6000602082019050919050565b6000610c9c82610c40565b610ca68185610c4b565b9350610cb183610c5c565b8060005b83811015610ce2578151610cc98882610c6c565b9750610cd483610c84565b925050600181019050610cb5565b5085935050505092915050565b6000608083016000830151610d076000860182610c31565b5060208301518482036020860152610d1f8282610c91565b91505060408301518482036040860152610d398282610c91565b9150506060830151610d4e6060860182610c31565b508091505092915050565b6000610d658383610cef565b905092915050565b6000602082019050919050565b6000610d8582610c05565b610d8f8185610c10565b935083602082028501610da185610c21565b8060005b85811015610ddd5784840389528151610dbe8582610d59565b9450610dc983610d6d565b925060208a01995050600181019050610da5565b50829750879550505050505092915050565b60006020820190508181036000830152610e098184610d7a565b905092915050565b600080fd5b600067ffffffffffffffff821115610e3157610e30610a01565b5b610e3a826109f0565b9050602081019050919050565b82818337600083830152505050565b6000610e69610e6484610e16565b610a61565b905082815260208101848484011115610e8557610e84610e11565b5b610e90848285610e47565b509392505050565b600082601f830112610ead57610eac6109eb565b5b8135610ebd848260208601610e56565b91505092915050565b600060ff82169050919050565b610edc81610ec6565b8114610ee757600080fd5b50565b600081359050610ef981610ed3565b92915050565b60008060408385031215610f1657610f156109e1565b5b600083013567ffffffffffffffff811115610f3457610f336109e6565b5b610f4085828601610e98565b9250506020610f5185828601610eea565b9150509250929050565b600073ffffffffffffffffffffffffffffffffffffffff82169050919050565b6000610f8682610f5b565b9050919050565b610f9681610f7b565b82525050565b6000602082019050610fb16000830184610f8d565b92915050565b600081519050919050565b600082825260208201905092915050565b6000819050602082019050919050565b610fec81610ec6565b82525050565b600081519050919050565b600082825260208201905092915050565b60005b8381101561102c578082015181840152602081019050611011565b8381111561103b576000848401525b50505050565b600061104c82610ff2565b6110568185610ffd565b935061106681856020860161100e565b61106f816109f0565b840191505092915050565b60006060830160008301516110926000860182610fe3565b5060208301516110a56020860182610fe3565b50604083015184820360408601526110bd8282611041565b9150508091505092915050565b60006110d6838361107a565b905092915050565b6000602082019050919050565b60006110f682610fb7565b6111008185610fc2565b93508360208202850161111285610fd3565b8060005b8581101561114e578484038952815161112f85826110ca565b945061113a836110de565b925060208a01995050600181019050611116565b50829750879550505050505092915050565b6000602082019050818103600083015261117a81846110eb565b905092915050565b61118b81610aad565b82525050565b60006020820190506111a66000830184611182565b92915050565b600082825260208201905092915050565b7f556e617574686f72697a65642100000000000000000000000000000000000000600082015250565b60006111f3600d836111ac565b91506111fe826111bd565b602082019050919050565b60006020820190508181036000830152611222816111e6565b9050919050565b7f4e487b7100000000000000000000000000000000000000000000000000000000600052603260045260246000fd5b7f4e487b7100000000000000000000000000000000000000000000000000000000600052601160045260246000fd5b600061129282610ec6565b915060ff8214156112a6576112a5611258565b5b600182019050919050565b60006112bc82610aad565b91507fffffffffffffffffffffffffffffffffffffffffffffffffffffffffffffffff8214156112ef576112ee611258565b5b600182019050919050565b7f496e73756666696369656e7420656e7472792066656500000000000000000000600082015250565b60006113306016836111ac565b915061133b826112fa565b602082019050919050565b6000602082019050818103600083015261135f81611323565b9050919050565b7f4e487b7100000000000000000000000000000000000000000000000000000000600052602260045260246000fd5b600060028204905060018216806113ad57607f821691505b602082108114156113c1576113c0611366565b5b50919050565b6000819050919050565b6113e26113dd82610aad565b6113c7565b82525050565b60006113f382610f5b565b9050919050565b60008160601b9050919050565b6000611412826113fa565b9050919050565b600061142482611407565b9050919050565b61143c611437826113e8565b611419565b82525050565b600061144e82866113d1565b60208201915061145e82856113d1565b60208201915061146e828461142b565b601482019150819050949350505050565b7f4e487b7100000000000000000000000000000000000000000000000000000000600052601260045260246000fd5b60006114b982610aad565b91506114c483610aad565b9250826114d4576114d361147f565b5b828206905092915050565b60006114ea82610aad565b91506114f583610aad565b9250827fffffffffffffffffffffffffffffffffffffffffffffffffffffffffffffffff0382111561152a57611529611258565b5b828201905092915050565b600061154082610aad565b915061154b83610aad565b92508282101561155e5761155d611258565b5b82820390509291505056fea2646970667358221220eaac77dfa019dc2698f9580364f6edb6d5e59108d70a00fe9cdbee718078c47c64736f6c63430008090033",
  "immutableReferences": {},
  "source": "// SPDX-License-Identifier: UNLICENSED\r\n\r\npragma solidity ^0.8.9;\r\n\r\ncontract Lottery{\r\n    address payable public owner;\r\n    constructor(address payable _owner){\r\n        owner = _owner;\r\n    }\r\n    struct Coupon {\r\n        uint8 pool_id;\r\n        uint8 group;\r\n        string uid;\r\n    }\r\n    struct Pool {\r\n        uint id;\r\n        uint256[] rates;\r\n        uint256[] items;\r\n        uint256 entry_value;\r\n    }\r\n    uint256 public poolCount;\r\n    Coupon[] private  couponList;\r\n    uint256[] private  rates;\r\n    uint256[] private  items;\r\n    Pool[] private pools;\r\n    function clearPool() private {\r\n        delete rates;\r\n    }\r\n    function addPrize(uint256[] memory input_proportions, uint256[] memory input_items, uint256 entry_value) public {\r\n        require(msg.sender == owner, 'Unauthorized!');\r\n        clearPool();\r\n        for (uint8 i = 0; i < input_proportions.length; i++){\r\n            rates.push(input_proportions[i]);\r\n            items.push(input_items[i]);\r\n        }\r\n        pools.push(Pool(poolCount,rates, items, entry_value));\r\n        poolCount++;\r\n    }\r\n    function getPools() public view returns (Pool[] memory){\r\n        return pools;\r\n    }\r\n    function getCouponList() public  view returns (Coupon[] memory){\r\n        return couponList;\r\n    }\r\n    function createCoupon(string memory uid, uint8 pool_id) public payable  {\r\n        require(msg.value >= pools[pool_id].entry_value, \"Insufficient entry fee\");\r\n        payable(owner).transfer(msg.value);\r\n        uint8 group = selectGroup();\r\n        couponList.push(Coupon(pool_id,group,uid));\r\n    }\r\n    function selectGroup() private view returns (uint8) {\r\n        uint256 randomValue = uint256(keccak256(abi.encodePacked(block.timestamp, block.difficulty, msg.sender))) % 100;\r\n        uint256 cumulativeRate = 0;\r\n        for (uint8 i = 0; i < rates.length; i++) {\r\n            cumulativeRate += rates[i];\r\n\r\n            if (randomValue < cumulativeRate) {\r\n                return i;\r\n            }\r\n        }\r\n        // Default to the last group if no match is found\r\n        return uint8(rates.length - 1);\r\n    }\r\n}",
  "sourcePath": "C:\\Users\\Le Quoc Tuan\\OneDrive\\Documents\\Blockchains\\project2\\client\\contracts\\Lottery.sol",
  "compiler": {
    "name": "solc",
    "version": "0.8.9+commit.e5eed63a.Emscripten.clang"
  },
  "schemaVersion": "3.4.7",
  "updatedAt": "2023-07-18T13:01:32.914Z",
  "networkType": "ethereum",
  "devdoc": {
    "kind": "dev",
    "methods": {},
    "version": 1
  },
  "userdoc": {
    "kind": "user",
    "methods": {},
    "version": 1
  }
}