{
  "contractName": "Lottery",
  "abi": [
    {
      "inputs": [
        {
          "internalType": "uint256",
          "name": "",
          "type": "uint256"
        }
      ],
      "name": "couponList",
      "outputs": [
        {
          "internalType": "uint8",
          "name": "group",
          "type": "uint8"
        }
      ],
      "stateMutability": "view",
      "type": "function",
      "constant": true
    },
    {
      "inputs": [],
      "name": "createCoupon",
      "outputs": [],
      "stateMutability": "nonpayable",
      "type": "function"
    }
  ],
  "bytecode": "0x608060405234801561001057600080fd5b5061065c806100206000396000f3fe608060405234801561001057600080fd5b50600436106100365760003560e01c806395de44061461003b578063d03c534c14610045575b600080fd5b610043610075565b005b61005f600480360381019061005a9190610349565b61021e565b60405161006c9190610392565b60405180910390f35b6000600767ffffffffffffffff811115610092576100916103ad565b5b6040519080825280602002602001820160405280156100c05781602001602082028036833780820191505090505b5090506035816000815181106100d9576100d86103dc565b5b6020026020010181815250506014816001815181106100fb576100fa6103dc565b5b602002602001018181525050600c8160028151811061011d5761011c6103dc565b5b60200260200101818152505060088160038151811061013f5761013e6103dc565b5b602002602001018181525050600481600481518110610161576101606103dc565b5b602002602001018181525050600281600581518110610183576101826103dc565b5b6020026020010181815250506001816006815181106101a5576101a46103dc565b5b60200260200101818152505060006101bc82610255565b9050600060405180602001604052808360ff168152509080600181540180825580915050600190039060005260206000200160009091909190915060008201518160000160006101000a81548160ff021916908360ff16021790555050505050565b6000818154811061022e57600080fd5b906000526020600020016000915090508060000160009054906101000a900460ff16905081565b600080606442443360405160200161026f939291906104a6565b6040516020818303038152906040528051906020012060001c6102929190610512565b90506000805b84518160ff1610156102f557848160ff16815181106102ba576102b96103dc565b5b6020026020010151826102cd9190610572565b9150818310156102e257809350505050610309565b80806102ed906105c8565b915050610298565b506001845161030491906105f2565b925050505b919050565b600080fd5b6000819050919050565b61032681610313565b811461033157600080fd5b50565b6000813590506103438161031d565b92915050565b60006020828403121561035f5761035e61030e565b5b600061036d84828501610334565b91505092915050565b600060ff82169050919050565b61038c81610376565b82525050565b60006020820190506103a76000830184610383565b92915050565b7f4e487b7100000000000000000000000000000000000000000000000000000000600052604160045260246000fd5b7f4e487b7100000000000000000000000000000000000000000000000000000000600052603260045260246000fd5b6000819050919050565b61042661042182610313565b61040b565b82525050565b600073ffffffffffffffffffffffffffffffffffffffff82169050919050565b60006104578261042c565b9050919050565b60008160601b9050919050565b60006104768261045e565b9050919050565b60006104888261046b565b9050919050565b6104a061049b8261044c565b61047d565b82525050565b60006104b28286610415565b6020820191506104c28285610415565b6020820191506104d2828461048f565b601482019150819050949350505050565b7f4e487b7100000000000000000000000000000000000000000000000000000000600052601260045260246000fd5b600061051d82610313565b915061052883610313565b925082610538576105376104e3565b5b828206905092915050565b7f4e487b7100000000000000000000000000000000000000000000000000000000600052601160045260246000fd5b600061057d82610313565b915061058883610313565b9250827fffffffffffffffffffffffffffffffffffffffffffffffffffffffffffffffff038211156105bd576105bc610543565b5b828201905092915050565b60006105d382610376565b915060ff8214156105e7576105e6610543565b5b600182019050919050565b60006105fd82610313565b915061060883610313565b92508282101561061b5761061a610543565b5b82820390509291505056fea264697066735822122034daf3e6a535075d352009076c8318d647c58a9ab4b7ba1fa9eb6990aaaf7a8564736f6c63430008090033",
  "immutableReferences": {},
  "source": "// SPDX-License-Identifier: UNLICENSED\r\n\r\npragma solidity ^0.8.9;\r\n\r\ncontract Lottery{\r\n    struct Coupon {\r\n        uint8 group;\r\n        // Add more properties as needed\r\n    }\r\n\r\n    Coupon[] public couponList;\r\n\r\n    function createCoupon() public {\r\n        uint256[] memory rates = new uint256[](7);\r\n        rates[0] = 53;\r\n        rates[1] = 20;\r\n        rates[2] = 12;\r\n        rates[3] = 8;\r\n        rates[4] = 4;\r\n        rates[5] = 2;\r\n        rates[6] = 1;\r\n\r\n        uint8 group = selectGroup(rates);\r\n        couponList.push(Coupon(group));\r\n    }\r\n\r\n    function selectGroup(uint256[] memory rates) private view returns (uint8) {\r\n        uint256 randomValue = uint256(keccak256(abi.encodePacked(block.timestamp, block.difficulty, msg.sender))) % 100;\r\n\r\n        uint256 cumulativeRate = 0;\r\n        for (uint8 i = 0; i < rates.length; i++) {\r\n            cumulativeRate += rates[i];\r\n\r\n            if (randomValue < cumulativeRate) {\r\n                return i;\r\n            }\r\n        }\r\n\r\n        // Default to the last group if no match is found\r\n        return uint8(rates.length - 1);\r\n    }\r\n}",
  "sourcePath": "C:\\Users\\Le Quoc Tuan\\OneDrive\\Documents\\Blockchains\\project2\\client\\contracts\\Lottery.sol",
  "compiler": {
    "name": "solc",
    "version": "0.8.9+commit.e5eed63a.Emscripten.clang"
  },
  "schemaVersion": "3.4.7",
  "updatedAt": "2023-07-14T11:14:46.025Z",
  "networkType": "ethereum",
  "devdoc": {
    "kind": "dev",
    "methods": {},
    "version": 1
  },
  "userdoc": {
    "kind": "user",
    "methods": {},
    "version": 1
  }
}