{
  "contractName": "Lottery",
  "abi": [
    {
      "inputs": [
        {
          "internalType": "address payable",
          "name": "_owner",
          "type": "address"
        }
      ],
      "stateMutability": "nonpayable",
      "type": "constructor"
    },
    {
      "anonymous": false,
      "inputs": [
        {
          "indexed": false,
          "internalType": "string",
          "name": "uid",
          "type": "string"
        },
        {
          "indexed": false,
          "internalType": "uint8",
          "name": "pool_id",
          "type": "uint8"
        },
        {
          "indexed": false,
          "internalType": "uint8",
          "name": "group",
          "type": "uint8"
        }
      ],
      "name": "couponCreated",
      "type": "event"
    },
    {
      "inputs": [],
      "name": "owner",
      "outputs": [
        {
          "internalType": "address payable",
          "name": "",
          "type": "address"
        }
      ],
      "stateMutability": "view",
      "type": "function",
      "constant": true
    },
    {
      "inputs": [],
      "name": "poolCount",
      "outputs": [
        {
          "internalType": "uint256",
          "name": "",
          "type": "uint256"
        }
      ],
      "stateMutability": "view",
      "type": "function",
      "constant": true
    },
    {
      "inputs": [
        {
          "internalType": "uint256[]",
          "name": "input_proportions",
          "type": "uint256[]"
        },
        {
          "internalType": "uint256[]",
          "name": "input_items",
          "type": "uint256[]"
        },
        {
          "internalType": "uint256",
          "name": "entry_value",
          "type": "uint256"
        }
      ],
      "name": "addPrize",
      "outputs": [],
      "stateMutability": "nonpayable",
      "type": "function"
    },
    {
      "inputs": [],
      "name": "getPools",
      "outputs": [
        {
          "components": [
            {
              "internalType": "uint256",
              "name": "id",
              "type": "uint256"
            },
            {
              "internalType": "uint256[]",
              "name": "rates",
              "type": "uint256[]"
            },
            {
              "internalType": "uint256[]",
              "name": "items",
              "type": "uint256[]"
            },
            {
              "internalType": "uint256",
              "name": "entry_value",
              "type": "uint256"
            }
          ],
          "internalType": "struct Lottery.Pool[]",
          "name": "",
          "type": "tuple[]"
        }
      ],
      "stateMutability": "view",
      "type": "function",
      "constant": true
    },
    {
      "inputs": [],
      "name": "getCouponList",
      "outputs": [
        {
          "components": [
            {
              "internalType": "uint8",
              "name": "pool_id",
              "type": "uint8"
            },
            {
              "internalType": "uint8",
              "name": "group",
              "type": "uint8"
            },
            {
              "internalType": "string",
              "name": "uid",
              "type": "string"
            }
          ],
          "internalType": "struct Lottery.Coupon[]",
          "name": "",
          "type": "tuple[]"
        }
      ],
      "stateMutability": "view",
      "type": "function",
      "constant": true
    },
    {
      "inputs": [
        {
          "internalType": "string",
          "name": "uid",
          "type": "string"
        },
        {
          "internalType": "uint8",
          "name": "pool_id",
          "type": "uint8"
        }
      ],
      "name": "createCoupon",
      "outputs": [
        {
          "components": [
            {
              "internalType": "uint8",
              "name": "pool_id",
              "type": "uint8"
            },
            {
              "internalType": "uint8",
              "name": "group",
              "type": "uint8"
            },
            {
              "internalType": "string",
              "name": "uid",
              "type": "string"
            }
          ],
          "internalType": "struct Lottery.Coupon",
          "name": "",
          "type": "tuple"
        }
      ],
      "stateMutability": "payable",
      "type": "function",
      "payable": true
    }
  ],
  "bytecode": "0x60806040523480156200001157600080fd5b5060405162001864380380620018648339818101604052810190620000379190620000e8565b806000806101000a81548173ffffffffffffffffffffffffffffffffffffffff021916908373ffffffffffffffffffffffffffffffffffffffff160217905550506200011a565b600080fd5b600073ffffffffffffffffffffffffffffffffffffffff82169050919050565b6000620000b08262000083565b9050919050565b620000c281620000a3565b8114620000ce57600080fd5b50565b600081519050620000e281620000b7565b92915050565b6000602082840312156200010157620001006200007e565b5b60006200011184828501620000d1565b91505092915050565b61173a806200012a6000396000f3fe6080604052600436106100555760003560e01c80634f7c39a51461005a578063673a2a1f146100835780636fddae71146100ae5780638da5cb5b146100de578063c94c0fea14610109578063f525cb6814610134575b600080fd5b34801561006657600080fd5b50610081600480360381019061007c9190610c1d565b61015f565b005b34801561008f57600080fd5b506100986103ff565b6040516100a59190610e92565b60405180910390f35b6100c860048036038101906100c39190610fa2565b610522565b6040516100d591906110e5565b60405180910390f35b3480156100ea57600080fd5b506100f361071a565b6040516101009190611148565b60405180910390f35b34801561011557600080fd5b5061011e61073e565b60405161012b9190611275565b60405180910390f35b34801561014057600080fd5b50610149610869565b60405161015691906112a6565b60405180910390f35b60008054906101000a900473ffffffffffffffffffffffffffffffffffffffff1673ffffffffffffffffffffffffffffffffffffffff163373ffffffffffffffffffffffffffffffffffffffff16146101ed576040517f08c379a00000000000000000000000000000000000000000000000000000000081526004016101e49061131e565b60405180910390fd5b6101f561086f565b60005b83518160ff1610156102a3576003848260ff168151811061021c5761021b61133e565b5b602002602001015190806001815401808255809150506001900390600052602060002001600090919091909150556004838260ff16815181106102625761026161133e565b5b60200260200101519080600181540180825580915050600190039060005260206000200160009091909190915055808061029b9061139c565b9150506101f8565b50600560405180608001604052806001548152602001600380548060200260200160405190810160405280929190818152602001828054801561030557602002820191906000526020600020905b8154815260200190600101908083116102f1575b50505050508152602001600480548060200260200160405190810160405280929190818152602001828054801561035b57602002820191906000526020600020905b815481526020019060010190808311610347575b505050505081526020018381525090806001815401808255809150506001900390600052602060002090600402016000909190919091506000820151816000015560208201518160010190805190602001906103b8929190610942565b5060408201518160020190805190602001906103d5929190610942565b50606082015181600301555050600160008154809291906103f5906113c6565b9190505550505050565b60606005805480602002602001604051908101604052809291908181526020016000905b828210156105195783829060005260206000209060040201604051806080016040529081600082015481526020016001820180548060200260200160405190810160405280929190818152602001828054801561049f57602002820191906000526020600020905b81548152602001906001019080831161048b575b50505050508152602001600282018054806020026020016040519081016040528092919081815260200182805480156104f757602002820191906000526020600020905b8154815260200190600101908083116104e3575b5050505050815260200160038201548152505081526020019060010190610423565b50505050905090565b61052a61098f565b60058260ff16815481106105415761054061133e565b5b906000526020600020906004020160030154341015610595576040517f08c379a000000000000000000000000000000000000000000000000000000000815260040161058c9061145b565b60405180910390fd5b60008054906101000a900473ffffffffffffffffffffffffffffffffffffffff1673ffffffffffffffffffffffffffffffffffffffff166108fc349081150290604051600060405180830381858888f193505050501580156105fb573d6000803e3d6000fd5b50600061060661087f565b9050600260405180606001604052808560ff1681526020018360ff16815260200186815250908060018154018082558091505060019003906000526020600020906002020160009091909190915060008201518160000160006101000a81548160ff021916908360ff16021790555060208201518160000160016101000a81548160ff021916908360ff16021790555060408201518160010190805190602001906106b29291906109b6565b5050507fb27731f3d029db42fa38ecd10941db11c0da0e002cb88e6bf2b99d9db961ca438484836040516106e8939291906114c3565b60405180910390a160405180606001604052808460ff1681526020018260ff1681526020018581525091505092915050565b60008054906101000a900473ffffffffffffffffffffffffffffffffffffffff1681565b60606002805480602002602001604051908101604052809291908181526020016000905b8282101561086057838290600052602060002090600202016040518060600160405290816000820160009054906101000a900460ff1660ff1660ff1681526020016000820160019054906101000a900460ff1660ff1660ff1681526020016001820180546107cf90611530565b80601f01602080910402602001604051908101604052809291908181526020018280546107fb90611530565b80156108485780601f1061081d57610100808354040283529160200191610848565b820191906000526020600020905b81548152906001019060200180831161082b57829003601f168201915b50505050508152505081526020019060010190610762565b50505050905090565b60015481565b6003600061087d9190610a3c565b565b6000806064424433604051602001610899939291906115dd565b6040516020818303038152906040528051906020012060001c6108bc9190611649565b90506000805b6003805490508160ff1610156109275760038160ff16815481106108e9576108e861133e565b5b9060005260206000200154826108ff919061167a565b9150818310156109145780935050505061093f565b808061091f9061139c565b9150506108c2565b50600160038054905061093a91906116d0565b925050505b90565b82805482825590600052602060002090810192821561097e579160200282015b8281111561097d578251825591602001919060010190610962565b5b50905061098b9190610a5d565b5090565b6040518060600160405280600060ff168152602001600060ff168152602001606081525090565b8280546109c290611530565b90600052602060002090601f0160209004810192826109e45760008555610a2b565b82601f106109fd57805160ff1916838001178555610a2b565b82800160010185558215610a2b579182015b82811115610a2a578251825591602001919060010190610a0f565b5b509050610a389190610a5d565b5090565b5080546000825590600052602060002090810190610a5a9190610a5d565b50565b5b80821115610a76576000816000905550600101610a5e565b5090565b6000604051905090565b600080fd5b600080fd5b600080fd5b6000601f19601f8301169050919050565b7f4e487b7100000000000000000000000000000000000000000000000000000000600052604160045260246000fd5b610adc82610a93565b810181811067ffffffffffffffff82111715610afb57610afa610aa4565b5b80604052505050565b6000610b0e610a7a565b9050610b1a8282610ad3565b919050565b600067ffffffffffffffff821115610b3a57610b39610aa4565b5b602082029050602081019050919050565b600080fd5b6000819050919050565b610b6381610b50565b8114610b6e57600080fd5b50565b600081359050610b8081610b5a565b92915050565b6000610b99610b9484610b1f565b610b04565b90508083825260208201905060208402830185811115610bbc57610bbb610b4b565b5b835b81811015610be55780610bd18882610b71565b845260208401935050602081019050610bbe565b5050509392505050565b600082601f830112610c0457610c03610a8e565b5b8135610c14848260208601610b86565b91505092915050565b600080600060608486031215610c3657610c35610a84565b5b600084013567ffffffffffffffff811115610c5457610c53610a89565b5b610c6086828701610bef565b935050602084013567ffffffffffffffff811115610c8157610c80610a89565b5b610c8d86828701610bef565b9250506040610c9e86828701610b71565b9150509250925092565b600081519050919050565b600082825260208201905092915050565b6000819050602082019050919050565b610cdd81610b50565b82525050565b600081519050919050565b600082825260208201905092915050565b6000819050602082019050919050565b6000610d1b8383610cd4565b60208301905092915050565b6000602082019050919050565b6000610d3f82610ce3565b610d498185610cee565b9350610d5483610cff565b8060005b83811015610d85578151610d6c8882610d0f565b9750610d7783610d27565b925050600181019050610d58565b5085935050505092915050565b6000608083016000830151610daa6000860182610cd4565b5060208301518482036020860152610dc28282610d34565b91505060408301518482036040860152610ddc8282610d34565b9150506060830151610df16060860182610cd4565b508091505092915050565b6000610e088383610d92565b905092915050565b6000602082019050919050565b6000610e2882610ca8565b610e328185610cb3565b935083602082028501610e4485610cc4565b8060005b85811015610e805784840389528151610e618582610dfc565b9450610e6c83610e10565b925060208a01995050600181019050610e48565b50829750879550505050505092915050565b60006020820190508181036000830152610eac8184610e1d565b905092915050565b600080fd5b600067ffffffffffffffff821115610ed457610ed3610aa4565b5b610edd82610a93565b9050602081019050919050565b82818337600083830152505050565b6000610f0c610f0784610eb9565b610b04565b905082815260208101848484011115610f2857610f27610eb4565b5b610f33848285610eea565b509392505050565b600082601f830112610f5057610f4f610a8e565b5b8135610f60848260208601610ef9565b91505092915050565b600060ff82169050919050565b610f7f81610f69565b8114610f8a57600080fd5b50565b600081359050610f9c81610f76565b92915050565b60008060408385031215610fb957610fb8610a84565b5b600083013567ffffffffffffffff811115610fd757610fd6610a89565b5b610fe385828601610f3b565b9250506020610ff485828601610f8d565b9150509250929050565b61100781610f69565b82525050565b600081519050919050565b600082825260208201905092915050565b60005b8381101561104757808201518184015260208101905061102c565b83811115611056576000848401525b50505050565b60006110678261100d565b6110718185611018565b9350611081818560208601611029565b61108a81610a93565b840191505092915050565b60006060830160008301516110ad6000860182610ffe565b5060208301516110c06020860182610ffe565b50604083015184820360408601526110d8828261105c565b9150508091505092915050565b600060208201905081810360008301526110ff8184611095565b905092915050565b600073ffffffffffffffffffffffffffffffffffffffff82169050919050565b600061113282611107565b9050919050565b61114281611127565b82525050565b600060208201905061115d6000830184611139565b92915050565b600081519050919050565b600082825260208201905092915050565b6000819050602082019050919050565b60006060830160008301516111a76000860182610ffe565b5060208301516111ba6020860182610ffe565b50604083015184820360408601526111d2828261105c565b9150508091505092915050565b60006111eb838361118f565b905092915050565b6000602082019050919050565b600061120b82611163565b611215818561116e565b9350836020820285016112278561117f565b8060005b85811015611263578484038952815161124485826111df565b945061124f836111f3565b925060208a0199505060018101905061122b565b50829750879550505050505092915050565b6000602082019050818103600083015261128f8184611200565b905092915050565b6112a081610b50565b82525050565b60006020820190506112bb6000830184611297565b92915050565b600082825260208201905092915050565b7f556e617574686f72697a65642100000000000000000000000000000000000000600082015250565b6000611308600d836112c1565b9150611313826112d2565b602082019050919050565b60006020820190508181036000830152611337816112fb565b9050919050565b7f4e487b7100000000000000000000000000000000000000000000000000000000600052603260045260246000fd5b7f4e487b7100000000000000000000000000000000000000000000000000000000600052601160045260246000fd5b60006113a782610f69565b915060ff8214156113bb576113ba61136d565b5b600182019050919050565b60006113d182610b50565b91507fffffffffffffffffffffffffffffffffffffffffffffffffffffffffffffffff8214156114045761140361136d565b5b600182019050919050565b7f496e73756666696369656e7420656e7472792066656500000000000000000000600082015250565b60006114456016836112c1565b91506114508261140f565b602082019050919050565b6000602082019050818103600083015261147481611438565b9050919050565b60006114868261100d565b61149081856112c1565b93506114a0818560208601611029565b6114a981610a93565b840191505092915050565b6114bd81610f69565b82525050565b600060608201905081810360008301526114dd818661147b565b90506114ec60208301856114b4565b6114f960408301846114b4565b949350505050565b7f4e487b7100000000000000000000000000000000000000000000000000000000600052602260045260246000fd5b6000600282049050600182168061154857607f821691505b6020821081141561155c5761155b611501565b5b50919050565b6000819050919050565b61157d61157882610b50565b611562565b82525050565b600061158e82611107565b9050919050565b60008160601b9050919050565b60006115ad82611595565b9050919050565b60006115bf826115a2565b9050919050565b6115d76115d282611583565b6115b4565b82525050565b60006115e9828661156c565b6020820191506115f9828561156c565b60208201915061160982846115c6565b601482019150819050949350505050565b7f4e487b7100000000000000000000000000000000000000000000000000000000600052601260045260246000fd5b600061165482610b50565b915061165f83610b50565b92508261166f5761166e61161a565b5b828206905092915050565b600061168582610b50565b915061169083610b50565b9250827fffffffffffffffffffffffffffffffffffffffffffffffffffffffffffffffff038211156116c5576116c461136d565b5b828201905092915050565b60006116db82610b50565b91506116e683610b50565b9250828210156116f9576116f861136d565b5b82820390509291505056fea26469706673582212202267dabc49e2753a103904da1e61b72d950f8299aee376517109ce4cda1c0bcb64736f6c63430008090033",
  "immutableReferences": {},
  "source": "// SPDX-License-Identifier: UNLICENSED\r\n\r\npragma solidity ^0.8.9;\r\n\r\ncontract Lottery{\r\n    address payable public owner;\r\n    constructor(address payable _owner){\r\n        owner = _owner;\r\n    }\r\n    struct Coupon {\r\n        uint8 pool_id;\r\n        uint8 group;\r\n        string uid;\r\n    }\r\n    struct Pool {\r\n        uint id;\r\n        uint256[] rates;\r\n        uint256[] items;\r\n        uint256 entry_value;\r\n    }\r\n    uint256 public poolCount;\r\n    Coupon[] private  couponList;\r\n    uint256[] private  rates;\r\n    uint256[] private  items;\r\n    Pool[] private pools;\r\n\r\n    event couponCreated(string uid, uint8 pool_id, uint8 group);\r\n\r\n    function clearPool() private {\r\n        delete rates;\r\n    }\r\n    function addPrize(uint256[] memory input_proportions, uint256[] memory input_items, uint256 entry_value) public {\r\n        require(msg.sender == owner, 'Unauthorized!');\r\n        clearPool();\r\n        for (uint8 i = 0; i < input_proportions.length; i++){\r\n            rates.push(input_proportions[i]);\r\n            items.push(input_items[i]);\r\n        }\r\n        pools.push(Pool(poolCount,rates, items, entry_value));\r\n        poolCount++;\r\n    }\r\n    function getPools() public view returns (Pool[] memory){\r\n        return pools;\r\n    }\r\n    function getCouponList() public  view returns (Coupon[] memory){\r\n        return couponList;\r\n    }\r\n    function createCoupon(string memory uid, uint8 pool_id) public payable returns (Coupon memory){\r\n        require(msg.value >= pools[pool_id].entry_value, \"Insufficient entry fee\");\r\n        payable(owner).transfer(msg.value);\r\n        uint8 group = selectGroup();\r\n        couponList.push(Coupon(pool_id,group,uid));\r\n\r\n        emit couponCreated(uid, pool_id, group);\r\n        return Coupon(pool_id,group,uid);\r\n    }\r\n    function selectGroup() private view returns (uint8) {\r\n        uint256 randomValue = uint256(keccak256(abi.encodePacked(block.timestamp, block.difficulty, msg.sender))) % 100;\r\n        uint256 cumulativeRate = 0;\r\n        for (uint8 i = 0; i < rates.length; i++) {\r\n            cumulativeRate += rates[i];\r\n\r\n            if (randomValue < cumulativeRate) {\r\n                return i;\r\n            }\r\n        }\r\n        // Default to the last group if no match is found\r\n        return uint8(rates.length - 1);\r\n    }\r\n}",
  "sourcePath": "C:\\Users\\Le Quoc Tuan\\OneDrive\\Documents\\Blockchains\\project2\\client\\contracts\\Lottery.sol",
  "compiler": {
    "name": "solc",
    "version": "0.8.9+commit.e5eed63a.Emscripten.clang"
  },
  "schemaVersion": "3.4.7",
  "updatedAt": "2023-07-31T13:58:05.438Z",
  "networkType": "ethereum",
  "devdoc": {
    "kind": "dev",
    "methods": {},
    "version": 1
  },
  "userdoc": {
    "kind": "user",
    "methods": {},
    "version": 1
  }
}