{
  "contractName": "Transactions",
  "abi": [
    {
      "anonymous": false,
      "inputs": [
        {
          "indexed": false,
          "internalType": "address",
          "name": "from",
          "type": "address"
        },
        {
          "indexed": false,
          "internalType": "address",
          "name": "receiver",
          "type": "address"
        },
        {
          "indexed": false,
          "internalType": "uint256",
          "name": "amount",
          "type": "uint256"
        },
        {
          "indexed": false,
          "internalType": "string",
          "name": "message",
          "type": "string"
        },
        {
          "indexed": false,
          "internalType": "uint256",
          "name": "timestamp",
          "type": "uint256"
        },
        {
          "indexed": false,
          "internalType": "string",
          "name": "keyword",
          "type": "string"
        }
      ],
      "name": "Transfer",
      "type": "event"
    },
    {
      "inputs": [
        {
          "internalType": "uint256",
          "name": "",
          "type": "uint256"
        }
      ],
      "name": "votingEvents",
      "outputs": [
        {
          "internalType": "string",
          "name": "name",
          "type": "string"
        },
        {
          "internalType": "uint256",
          "name": "votingStart",
          "type": "uint256"
        },
        {
          "internalType": "uint256",
          "name": "votingEnd",
          "type": "uint256"
        },
        {
          "internalType": "address",
          "name": "owner",
          "type": "address"
        },
        {
          "internalType": "uint256",
          "name": "id",
          "type": "uint256"
        }
      ],
      "stateMutability": "view",
      "type": "function",
      "constant": true
    },
    {
      "inputs": [
        {
          "internalType": "address payable",
          "name": "receiver",
          "type": "address"
        },
        {
          "internalType": "uint256",
          "name": "amount",
          "type": "uint256"
        },
        {
          "internalType": "string",
          "name": "message",
          "type": "string"
        },
        {
          "internalType": "string",
          "name": "keyword",
          "type": "string"
        }
      ],
      "name": "addToBlockchain",
      "outputs": [],
      "stateMutability": "nonpayable",
      "type": "function"
    },
    {
      "inputs": [],
      "name": "getAllTransactions",
      "outputs": [
        {
          "components": [
            {
              "internalType": "address",
              "name": "sender",
              "type": "address"
            },
            {
              "internalType": "address",
              "name": "receiver",
              "type": "address"
            },
            {
              "internalType": "uint256",
              "name": "amount",
              "type": "uint256"
            },
            {
              "internalType": "string",
              "name": "message",
              "type": "string"
            },
            {
              "internalType": "uint256",
              "name": "timestamp",
              "type": "uint256"
            },
            {
              "internalType": "string",
              "name": "keyword",
              "type": "string"
            }
          ],
          "internalType": "struct Transactions.TransferStruct[]",
          "name": "",
          "type": "tuple[]"
        }
      ],
      "stateMutability": "view",
      "type": "function",
      "constant": true
    },
    {
      "inputs": [],
      "name": "getTransactionCount",
      "outputs": [
        {
          "internalType": "uint256",
          "name": "",
          "type": "uint256"
        }
      ],
      "stateMutability": "view",
      "type": "function",
      "constant": true
    },
    {
      "inputs": [
        {
          "internalType": "string",
          "name": "_name",
          "type": "string"
        },
        {
          "internalType": "uint256",
          "name": "_durationInMinutes",
          "type": "uint256"
        }
      ],
      "name": "addEvent",
      "outputs": [],
      "stateMutability": "nonpayable",
      "type": "function"
    },
    {
      "inputs": [
        {
          "internalType": "string",
          "name": "_candidateName",
          "type": "string"
        },
        {
          "internalType": "string",
          "name": "_userIndex",
          "type": "string"
        },
        {
          "internalType": "uint256",
          "name": "_eventIndex",
          "type": "uint256"
        }
      ],
      "name": "addCandidate",
      "outputs": [],
      "stateMutability": "nonpayable",
      "type": "function"
    },
    {
      "inputs": [
        {
          "internalType": "uint256",
          "name": "_candidateIndex",
          "type": "uint256"
        },
        {
          "internalType": "uint256",
          "name": "_eventIndex",
          "type": "uint256"
        }
      ],
      "name": "vote",
      "outputs": [],
      "stateMutability": "nonpayable",
      "type": "function"
    },
    {
      "inputs": [],
      "name": "getAllEvents",
      "outputs": [
        {
          "components": [
            {
              "internalType": "string",
              "name": "name",
              "type": "string"
            },
            {
              "internalType": "uint256",
              "name": "votingStart",
              "type": "uint256"
            },
            {
              "internalType": "uint256",
              "name": "votingEnd",
              "type": "uint256"
            },
            {
              "internalType": "address",
              "name": "owner",
              "type": "address"
            },
            {
              "internalType": "uint256",
              "name": "id",
              "type": "uint256"
            }
          ],
          "internalType": "struct Transactions.VotingEvent[]",
          "name": "",
          "type": "tuple[]"
        }
      ],
      "stateMutability": "view",
      "type": "function",
      "constant": true
    },
    {
      "inputs": [],
      "name": "getAllCandidates",
      "outputs": [
        {
          "components": [
            {
              "internalType": "string",
              "name": "name",
              "type": "string"
            },
            {
              "internalType": "string",
              "name": "_userIndex",
              "type": "string"
            },
            {
              "internalType": "uint256",
              "name": "voteCount",
              "type": "uint256"
            },
            {
              "internalType": "uint256",
              "name": "_eventIndex",
              "type": "uint256"
            }
          ],
          "internalType": "struct Transactions.Candidate[]",
          "name": "",
          "type": "tuple[]"
        }
      ],
      "stateMutability": "view",
      "type": "function",
      "constant": true
    },
    {
      "inputs": [
        {
          "internalType": "uint256",
          "name": "_eventIndex",
          "type": "uint256"
        }
      ],
      "name": "getVotingStatusOfEvent",
      "outputs": [
        {
          "internalType": "bool",
          "name": "",
          "type": "bool"
        }
      ],
      "stateMutability": "view",
      "type": "function",
      "constant": true
    },
    {
      "inputs": [
        {
          "internalType": "uint256",
          "name": "_eventIndex",
          "type": "uint256"
        }
      ],
      "name": "getRemainingTimeOfEvent",
      "outputs": [
        {
          "internalType": "uint256",
          "name": "",
          "type": "uint256"
        }
      ],
      "stateMutability": "view",
      "type": "function",
      "constant": true
    }
  ],
  "bytecode": "0x608060405234801561001057600080fd5b50611e5b806100206000396000f3fe608060405234801561001057600080fd5b50600436106100a95760003560e01c8063b384abef11610071578063b384abef14610154578063bf9b48a714610170578063c27a500d146101a4578063cc2d7ead146101c2578063f0c27aa5146101de578063f0e1691a1461020e576100a9565b806327506f53146100ae5780632e6997fe146100cc5780632e7700f0146100ea5780633ca09fdf14610108578063512e3dfd14610124575b600080fd5b6100b661022a565b6040516100c3919061127e565b60405180910390f35b6100d461046d565b6040516100e191906113cc565b60405180910390f35b6100f2610604565b6040516100ff91906113fd565b60405180910390f35b610122600480360381019061011d919061158d565b61060d565b005b61013e60048036038101906101399190611618565b6106af565b60405161014b91906113fd565b60405180910390f35b61016e60048036038101906101699190611645565b610787565b005b61018a60048036038101906101859190611618565b6109a0565b60405161019b9594939291906116de565b60405180910390f35b6101ac610a8e565b6040516101b99190611870565b60405180910390f35b6101dc60048036038101906101d791906118d0565b610bf3565b005b6101f860048036038101906101f39190611618565b610db5565b604051610205919061198a565b60405180910390f35b610228600480360381019061022391906119a5565b610e17565b005b60606001805480602002602001604051908101604052809291908181526020016000905b8282101561046457838290600052602060002090600602016040518060c00160405290816000820160009054906101000a900473ffffffffffffffffffffffffffffffffffffffff1673ffffffffffffffffffffffffffffffffffffffff1673ffffffffffffffffffffffffffffffffffffffff1681526020016001820160009054906101000a900473ffffffffffffffffffffffffffffffffffffffff1673ffffffffffffffffffffffffffffffffffffffff1673ffffffffffffffffffffffffffffffffffffffff1681526020016002820154815260200160038201805461033790611a30565b80601f016020809104026020016040519081016040528092919081815260200182805461036390611a30565b80156103b05780601f10610385576101008083540402835291602001916103b0565b820191906000526020600020905b81548152906001019060200180831161039357829003601f168201915b50505050508152602001600482015481526020016005820180546103d390611a30565b80601f01602080910402602001604051908101604052809291908181526020018280546103ff90611a30565b801561044c5780601f106104215761010080835404028352916020019161044c565b820191906000526020600020905b81548152906001019060200180831161042f57829003601f168201915b5050505050815250508152602001906001019061024e565b50505050905090565b60606003805480602002602001604051908101604052809291908181526020016000905b828210156105fb57838290600052602060002090600402016040518060800160405290816000820180546104c490611a30565b80601f01602080910402602001604051908101604052809291908181526020018280546104f090611a30565b801561053d5780601f106105125761010080835404028352916020019161053d565b820191906000526020600020905b81548152906001019060200180831161052057829003601f168201915b5050505050815260200160018201805461055690611a30565b80601f016020809104026020016040519081016040528092919081815260200182805461058290611a30565b80156105cf5780601f106105a4576101008083540402835291602001916105cf565b820191906000526020600020905b8154815290600101906020018083116105b257829003601f168201915b505050505081526020016002820154815260200160038201548152505081526020019060010190610491565b50505050905090565b60008054905090565b60036040518060800160405280858152602001848152602001600081526020018381525090806001815401808255809150506001900390600052602060002090600402016000909190919091506000820151816000019080519060200190610676929190610f96565b506020820151816001019080519060200190610693929190610f96565b5060408201518160020155606082015181600301555050505050565b6000600582815481106106c5576106c4611a62565b5b906000526020600020906005020160010154421015610719576040517f08c379a000000000000000000000000000000000000000000000000000000000815260040161071090611add565b60405180910390fd5b6005828154811061072d5761072c611a62565b5b906000526020600020906005020160020154421061074e5760009050610782565b426005838154811061076357610762611a62565b5b90600052602060002090600502016002015461077f9190611b2c565b90505b919050565b60058054905081106107ce576040517f08c379a00000000000000000000000000000000000000000000000000000000081526004016107c590611bac565b60405180910390fd5b6000600260003373ffffffffffffffffffffffffffffffffffffffff1673ffffffffffffffffffffffffffffffffffffffff1681526020019081526020016000206001018054905014806108b957506108b7600260003373ffffffffffffffffffffffffffffffffffffffff1673ffffffffffffffffffffffffffffffffffffffff1681526020019081526020016000206001018054806020026020016040519081016040528092919081815260200182805480156108ac57602002820191906000526020600020905b815481526020019060010190808311610898575b505050505082610f3a565b155b6108f8576040517f08c379a00000000000000000000000000000000000000000000000000000000081526004016108ef90611c3e565b60405180910390fd5b6003828154811061090c5761090b611a62565b5b9060005260206000209060040201600201600081548092919061092e90611c5e565b9190505550600260003373ffffffffffffffffffffffffffffffffffffffff1673ffffffffffffffffffffffffffffffffffffffff1681526020019081526020016000206001018190806001815401808255809150506001900390600052602060002001600090919091909150555050565b600581815481106109b057600080fd5b90600052602060002090600502016000915090508060000180546109d390611a30565b80601f01602080910402602001604051908101604052809291908181526020018280546109ff90611a30565b8015610a4c5780601f10610a2157610100808354040283529160200191610a4c565b820191906000526020600020905b815481529060010190602001808311610a2f57829003601f168201915b5050505050908060010154908060020154908060030160009054906101000a900473ffffffffffffffffffffffffffffffffffffffff16908060040154905085565b60606005805480602002602001604051908101604052809291908181526020016000905b82821015610bea57838290600052602060002090600502016040518060a0016040529081600082018054610ae590611a30565b80601f0160208091040260200160405190810160405280929190818152602001828054610b1190611a30565b8015610b5e5780601f10610b3357610100808354040283529160200191610b5e565b820191906000526020600020905b815481529060010190602001808311610b4157829003601f168201915b5050505050815260200160018201548152602001600282015481526020016003820160009054906101000a900473ffffffffffffffffffffffffffffffffffffffff1673ffffffffffffffffffffffffffffffffffffffff1673ffffffffffffffffffffffffffffffffffffffff16815260200160048201548152505081526020019060010190610ab2565b50505050905090565b6001600080828254610c059190611ca7565b9250508190555060016040518060c001604052803373ffffffffffffffffffffffffffffffffffffffff1681526020018673ffffffffffffffffffffffffffffffffffffffff16815260200185815260200184815260200142815260200183815250908060018154018082558091505060019003906000526020600020906006020160009091909190915060008201518160000160006101000a81548173ffffffffffffffffffffffffffffffffffffffff021916908373ffffffffffffffffffffffffffffffffffffffff16021790555060208201518160010160006101000a81548173ffffffffffffffffffffffffffffffffffffffff021916908373ffffffffffffffffffffffffffffffffffffffff160217905550604082015181600201556060820151816003019080519060200190610d44929190610f96565b506080820151816004015560a0820151816005019080519060200190610d6b929190610f96565b5050507f416cfa4330a4565f45c2fd2dd4826a83a37443aba2ce6f79477c7355afac35fa338585854286604051610da796959493929190611d5c565b60405180910390a150505050565b600060058281548110610dcb57610dca611a62565b5b9060005260206000209060050201600101544210158015610e10575060058281548110610dfb57610dfa611a62565b5b90600052602060002090600502016002015442105b9050919050565b600160046000828254610e2a9190611ca7565b9250508190555060056040518060a00160405280848152602001428152602001603c84610e579190611dcb565b42610e629190611ca7565b81526020013373ffffffffffffffffffffffffffffffffffffffff16815260200160045481525090806001815401808255809150506001900390600052602060002090600502016000909190919091506000820151816000019080519060200190610ece929190610f96565b50602082015181600101556040820151816002015560608201518160030160006101000a81548173ffffffffffffffffffffffffffffffffffffffff021916908373ffffffffffffffffffffffffffffffffffffffff1602179055506080820151816004015550505050565b600080600090505b8351811015610f8a5782848281518110610f5f57610f5e611a62565b5b60200260200101511415610f77576001915050610f90565b8080610f8290611c5e565b915050610f42565b50600090505b92915050565b828054610fa290611a30565b90600052602060002090601f016020900481019282610fc4576000855561100b565b82601f10610fdd57805160ff191683800117855561100b565b8280016001018555821561100b579182015b8281111561100a578251825591602001919060010190610fef565b5b509050611018919061101c565b5090565b5b8082111561103557600081600090555060010161101d565b5090565b600081519050919050565b600082825260208201905092915050565b6000819050602082019050919050565b600073ffffffffffffffffffffffffffffffffffffffff82169050919050565b600061109082611065565b9050919050565b6110a081611085565b82525050565b6000819050919050565b6110b9816110a6565b82525050565b600081519050919050565b600082825260208201905092915050565b60005b838110156110f95780820151818401526020810190506110de565b83811115611108576000848401525b50505050565b6000601f19601f8301169050919050565b600061112a826110bf565b61113481856110ca565b93506111448185602086016110db565b61114d8161110e565b840191505092915050565b600060c0830160008301516111706000860182611097565b5060208301516111836020860182611097565b50604083015161119660408601826110b0565b50606083015184820360608601526111ae828261111f565b91505060808301516111c360808601826110b0565b5060a083015184820360a08601526111db828261111f565b9150508091505092915050565b60006111f48383611158565b905092915050565b6000602082019050919050565b600061121482611039565b61121e8185611044565b93508360208202850161123085611055565b8060005b8581101561126c578484038952815161124d85826111e8565b9450611258836111fc565b925060208a01995050600181019050611234565b50829750879550505050505092915050565b600060208201905081810360008301526112988184611209565b905092915050565b600081519050919050565b600082825260208201905092915050565b6000819050602082019050919050565b600060808301600083015184820360008601526112e9828261111f565b91505060208301518482036020860152611303828261111f565b915050604083015161131860408601826110b0565b50606083015161132b60608601826110b0565b508091505092915050565b600061134283836112cc565b905092915050565b6000602082019050919050565b6000611362826112a0565b61136c81856112ab565b93508360208202850161137e856112bc565b8060005b858110156113ba578484038952815161139b8582611336565b94506113a68361134a565b925060208a01995050600181019050611382565b50829750879550505050505092915050565b600060208201905081810360008301526113e68184611357565b905092915050565b6113f7816110a6565b82525050565b600060208201905061141260008301846113ee565b92915050565b6000604051905090565b600080fd5b600080fd5b600080fd5b600080fd5b7f4e487b7100000000000000000000000000000000000000000000000000000000600052604160045260246000fd5b61146e8261110e565b810181811067ffffffffffffffff8211171561148d5761148c611436565b5b80604052505050565b60006114a0611418565b90506114ac8282611465565b919050565b600067ffffffffffffffff8211156114cc576114cb611436565b5b6114d58261110e565b9050602081019050919050565b82818337600083830152505050565b60006115046114ff846114b1565b611496565b9050828152602081018484840111156115205761151f611431565b5b61152b8482856114e2565b509392505050565b600082601f8301126115485761154761142c565b5b81356115588482602086016114f1565b91505092915050565b61156a816110a6565b811461157557600080fd5b50565b60008135905061158781611561565b92915050565b6000806000606084860312156115a6576115a5611422565b5b600084013567ffffffffffffffff8111156115c4576115c3611427565b5b6115d086828701611533565b935050602084013567ffffffffffffffff8111156115f1576115f0611427565b5b6115fd86828701611533565b925050604061160e86828701611578565b9150509250925092565b60006020828403121561162e5761162d611422565b5b600061163c84828501611578565b91505092915050565b6000806040838503121561165c5761165b611422565b5b600061166a85828601611578565b925050602061167b85828601611578565b9150509250929050565b600082825260208201905092915050565b60006116a1826110bf565b6116ab8185611685565b93506116bb8185602086016110db565b6116c48161110e565b840191505092915050565b6116d881611085565b82525050565b600060a08201905081810360008301526116f88188611696565b905061170760208301876113ee565b61171460408301866113ee565b61172160608301856116cf565b61172e60808301846113ee565b9695505050505050565b600081519050919050565b600082825260208201905092915050565b6000819050602082019050919050565b600060a0830160008301518482036000860152611781828261111f565b915050602083015161179660208601826110b0565b5060408301516117a960408601826110b0565b5060608301516117bc6060860182611097565b5060808301516117cf60808601826110b0565b508091505092915050565b60006117e68383611764565b905092915050565b6000602082019050919050565b600061180682611738565b6118108185611743565b93508360208202850161182285611754565b8060005b8581101561185e578484038952815161183f85826117da565b945061184a836117ee565b925060208a01995050600181019050611826565b50829750879550505050505092915050565b6000602082019050818103600083015261188a81846117fb565b905092915050565b600061189d82611065565b9050919050565b6118ad81611892565b81146118b857600080fd5b50565b6000813590506118ca816118a4565b92915050565b600080600080608085870312156118ea576118e9611422565b5b60006118f8878288016118bb565b945050602061190987828801611578565b935050604085013567ffffffffffffffff81111561192a57611929611427565b5b61193687828801611533565b925050606085013567ffffffffffffffff81111561195757611956611427565b5b61196387828801611533565b91505092959194509250565b60008115159050919050565b6119848161196f565b82525050565b600060208201905061199f600083018461197b565b92915050565b600080604083850312156119bc576119bb611422565b5b600083013567ffffffffffffffff8111156119da576119d9611427565b5b6119e685828601611533565b92505060206119f785828601611578565b9150509250929050565b7f4e487b7100000000000000000000000000000000000000000000000000000000600052602260045260246000fd5b60006002820490506001821680611a4857607f821691505b60208210811415611a5c57611a5b611a01565b5b50919050565b7f4e487b7100000000000000000000000000000000000000000000000000000000600052603260045260246000fd5b7f566f74696e6720686173206e6f742073746172746564207965742e0000000000600082015250565b6000611ac7601b83611685565b9150611ad282611a91565b602082019050919050565b60006020820190508181036000830152611af681611aba565b9050919050565b7f4e487b7100000000000000000000000000000000000000000000000000000000600052601160045260246000fd5b6000611b37826110a6565b9150611b42836110a6565b925082821015611b5557611b54611afd565b5b828203905092915050565b7f496e76616c6964206576656e7420696e64657800000000000000000000000000600082015250565b6000611b96601383611685565b9150611ba182611b60565b602082019050919050565b60006020820190508181036000830152611bc581611b89565b9050919050565b7f566f7465722068617320616c726561647920766f74656420696e20746869732060008201527f6576656e74000000000000000000000000000000000000000000000000000000602082015250565b6000611c28602583611685565b9150611c3382611bcc565b604082019050919050565b60006020820190508181036000830152611c5781611c1b565b9050919050565b6000611c69826110a6565b91507fffffffffffffffffffffffffffffffffffffffffffffffffffffffffffffffff821415611c9c57611c9b611afd565b5b600182019050919050565b6000611cb2826110a6565b9150611cbd836110a6565b9250827fffffffffffffffffffffffffffffffffffffffffffffffffffffffffffffffff03821115611cf257611cf1611afd565b5b828201905092915050565b6000819050919050565b6000611d22611d1d611d1884611065565b611cfd565b611065565b9050919050565b6000611d3482611d07565b9050919050565b6000611d4682611d29565b9050919050565b611d5681611d3b565b82525050565b600060c082019050611d7160008301896116cf565b611d7e6020830188611d4d565b611d8b60408301876113ee565b8181036060830152611d9d8186611696565b9050611dac60808301856113ee565b81810360a0830152611dbe8184611696565b9050979650505050505050565b6000611dd6826110a6565b9150611de1836110a6565b9250817fffffffffffffffffffffffffffffffffffffffffffffffffffffffffffffffff0483118215151615611e1a57611e19611afd565b5b82820290509291505056fea2646970667358221220cea0e28cb43ab6b81fbe2b75d9a061bdbcda74e38ff836685438062b7cadf2ec64736f6c63430008090033",
  "immutableReferences": {},
  "source": "// SPDX-License-Identifier: UNLICENSED\r\n\r\npragma solidity ^0.8.9;\r\n\r\ncontract Transactions {\r\n\r\n    //Transaction\r\n    uint256 transactionCount;\r\n\r\n    event Transfer(address from, address receiver, uint amount, string message, uint256 timestamp, string keyword);\r\n  \r\n    struct TransferStruct {\r\n        address sender;\r\n        address receiver;\r\n        uint amount;\r\n        string message;\r\n        uint256 timestamp;\r\n        string keyword;\r\n    }\r\n\r\n    TransferStruct[] transactions;\r\n\r\n    function addToBlockchain(address payable receiver, uint amount, string memory message,string memory keyword) public {\r\n        transactionCount += 1;\r\n        transactions.push(TransferStruct(msg.sender, receiver, amount, message, block.timestamp, keyword));\r\n\r\n        emit Transfer(msg.sender, receiver, amount, message, block.timestamp, keyword);\r\n    }\r\n\r\n    function getAllTransactions() public view returns (TransferStruct[] memory) {\r\n        return transactions;\r\n    }\r\n\r\n    function getTransactionCount() public view returns (uint256) {\r\n        return transactionCount;\r\n    }\r\n\r\n\r\n    //Voting\r\n    struct Candidate {\r\n        string name;\r\n        string _userIndex;\r\n        uint256 voteCount;\r\n        uint _eventIndex;\r\n    }\r\n\r\n    struct VotingEvent {\r\n        string name;\r\n        uint256 votingStart;\r\n        uint256 votingEnd;\r\n        address owner;\r\n        uint id;\r\n    }\r\n    struct VoterAndEvents {\r\n        address voter_address;\r\n        uint[] _eventIndex;\r\n    }\r\n    mapping(address => VoterAndEvents) voters;\r\n    Candidate[] candidates;\r\n    uint256 eventCount;\r\n    VotingEvent[] public votingEvents;\r\n\r\n    function addEvent(\r\n        string memory _name,\r\n        uint256 _durationInMinutes\r\n    ) public {\r\n        eventCount += 1;\r\n        votingEvents.push(\r\n            VotingEvent({\r\n                name: _name,\r\n                votingStart: block.timestamp,\r\n                votingEnd: block.timestamp + (_durationInMinutes * 1 minutes),\r\n                owner: msg.sender,\r\n                id: eventCount\r\n            })\r\n        );\r\n    }\r\n\r\n    function addCandidate(\r\n        string memory _candidateName,\r\n        string memory _userIndex,\r\n        uint _eventIndex\r\n    ) public {\r\n        candidates.push(Candidate(_candidateName,_userIndex,0,_eventIndex));\r\n    }\r\n\r\n    function vote(uint256 _candidateIndex, uint _eventIndex) public {\r\n        require(_eventIndex < votingEvents.length, \"Invalid event index\");\r\n        require(\r\n            voters[msg.sender]._eventIndex.length == 0 ||\r\n                !contains(voters[msg.sender]._eventIndex, _eventIndex),\r\n            \"Voter has already voted in this event\"\r\n        );\r\n\r\n        candidates[_candidateIndex].voteCount++;\r\n        voters[msg.sender]._eventIndex.push(_eventIndex);\r\n    }\r\n\r\n    function contains(\r\n        uint[] memory arr,\r\n        uint element\r\n    ) private pure returns (bool) {\r\n        for (uint i = 0; i < arr.length; i++) {\r\n            if (arr[i] == element) {\r\n                return true;\r\n            }\r\n        }\r\n        return false;\r\n    }\r\n\r\n    function getAllEvents () public view returns (VotingEvent[] memory){\r\n        return votingEvents;\r\n    }\r\n\r\n    function getAllCandidates() public view returns (Candidate[] memory) {\r\n        return candidates;\r\n    }\r\n\r\n    function getVotingStatusOfEvent(\r\n        uint256 _eventIndex\r\n    ) public view returns (bool) {\r\n        return (block.timestamp >= votingEvents[_eventIndex].votingStart &&\r\n            block.timestamp < votingEvents[_eventIndex].votingEnd);\r\n    }\r\n\r\n    function getRemainingTimeOfEvent(\r\n        uint256 _eventIndex\r\n    ) public view returns (uint256) {\r\n        require(\r\n            block.timestamp >= votingEvents[_eventIndex].votingStart,\r\n            \"Voting has not started yet.\"\r\n        );\r\n        if (block.timestamp >= votingEvents[_eventIndex].votingEnd) {\r\n            return 0;\r\n        }\r\n        return votingEvents[_eventIndex].votingEnd - block.timestamp;\r\n    }\r\n}",
  "sourcePath": "C:\\Users\\Le Quoc Tuan\\OneDrive\\Documents\\Blockchains\\project2\\client\\contracts\\Transactions.sol",
  "compiler": {
    "name": "solc",
    "version": "0.8.9+commit.e5eed63a.Emscripten.clang"
  },
  "schemaVersion": "3.4.7",
  "updatedAt": "2023-05-02T02:35:25.279Z",
  "networkType": "ethereum",
  "devdoc": {
    "kind": "dev",
    "methods": {},
    "version": 1
  },
  "userdoc": {
    "kind": "user",
    "methods": {},
    "version": 1
  }
}