{
  "contractName": "Transactions",
  "abi": [
    {
      "anonymous": false,
      "inputs": [
        {
          "indexed": false,
          "internalType": "address",
          "name": "from",
          "type": "address"
        },
        {
          "indexed": false,
          "internalType": "address",
          "name": "receiver",
          "type": "address"
        },
        {
          "indexed": false,
          "internalType": "uint256",
          "name": "amount",
          "type": "uint256"
        },
        {
          "indexed": false,
          "internalType": "string",
          "name": "message",
          "type": "string"
        },
        {
          "indexed": false,
          "internalType": "uint256",
          "name": "timestamp",
          "type": "uint256"
        },
        {
          "indexed": false,
          "internalType": "string",
          "name": "keyword",
          "type": "string"
        }
      ],
      "name": "Transfer",
      "type": "event"
    },
    {
      "inputs": [
        {
          "internalType": "uint256",
          "name": "",
          "type": "uint256"
        }
      ],
      "name": "couponList",
      "outputs": [
        {
          "internalType": "uint8",
          "name": "group",
          "type": "uint8"
        }
      ],
      "stateMutability": "view",
      "type": "function",
      "constant": true
    },
    {
      "inputs": [
        {
          "internalType": "uint256",
          "name": "",
          "type": "uint256"
        }
      ],
      "name": "votingEvents",
      "outputs": [
        {
          "internalType": "string",
          "name": "name",
          "type": "string"
        },
        {
          "internalType": "uint256",
          "name": "votingStart",
          "type": "uint256"
        },
        {
          "internalType": "uint256",
          "name": "votingEnd",
          "type": "uint256"
        },
        {
          "internalType": "address",
          "name": "owner",
          "type": "address"
        },
        {
          "internalType": "uint256",
          "name": "id",
          "type": "uint256"
        }
      ],
      "stateMutability": "view",
      "type": "function",
      "constant": true
    },
    {
      "inputs": [
        {
          "internalType": "address payable",
          "name": "receiver",
          "type": "address"
        },
        {
          "internalType": "uint256",
          "name": "amount",
          "type": "uint256"
        },
        {
          "internalType": "string",
          "name": "message",
          "type": "string"
        },
        {
          "internalType": "string",
          "name": "keyword",
          "type": "string"
        }
      ],
      "name": "addToBlockchain",
      "outputs": [],
      "stateMutability": "nonpayable",
      "type": "function"
    },
    {
      "inputs": [],
      "name": "getAllTransactions",
      "outputs": [
        {
          "components": [
            {
              "internalType": "address",
              "name": "sender",
              "type": "address"
            },
            {
              "internalType": "address",
              "name": "receiver",
              "type": "address"
            },
            {
              "internalType": "uint256",
              "name": "amount",
              "type": "uint256"
            },
            {
              "internalType": "string",
              "name": "message",
              "type": "string"
            },
            {
              "internalType": "uint256",
              "name": "timestamp",
              "type": "uint256"
            },
            {
              "internalType": "string",
              "name": "keyword",
              "type": "string"
            }
          ],
          "internalType": "struct Transactions.TransferStruct[]",
          "name": "",
          "type": "tuple[]"
        }
      ],
      "stateMutability": "view",
      "type": "function",
      "constant": true
    },
    {
      "inputs": [],
      "name": "getTransactionCount",
      "outputs": [
        {
          "internalType": "uint256",
          "name": "",
          "type": "uint256"
        }
      ],
      "stateMutability": "view",
      "type": "function",
      "constant": true
    },
    {
      "inputs": [
        {
          "internalType": "string",
          "name": "_name",
          "type": "string"
        },
        {
          "internalType": "uint256",
          "name": "_durationInMinutes",
          "type": "uint256"
        }
      ],
      "name": "addEvent",
      "outputs": [],
      "stateMutability": "nonpayable",
      "type": "function"
    },
    {
      "inputs": [
        {
          "internalType": "string",
          "name": "_candidateName",
          "type": "string"
        },
        {
          "internalType": "string",
          "name": "_userIndex",
          "type": "string"
        },
        {
          "internalType": "uint256",
          "name": "_eventIndex",
          "type": "uint256"
        }
      ],
      "name": "addCandidate",
      "outputs": [],
      "stateMutability": "nonpayable",
      "type": "function"
    },
    {
      "inputs": [
        {
          "internalType": "uint256",
          "name": "_candidateIndex",
          "type": "uint256"
        },
        {
          "internalType": "uint256",
          "name": "_eventIndex",
          "type": "uint256"
        }
      ],
      "name": "vote",
      "outputs": [],
      "stateMutability": "nonpayable",
      "type": "function"
    },
    {
      "inputs": [],
      "name": "getAllEvents",
      "outputs": [
        {
          "components": [
            {
              "internalType": "string",
              "name": "name",
              "type": "string"
            },
            {
              "internalType": "uint256",
              "name": "votingStart",
              "type": "uint256"
            },
            {
              "internalType": "uint256",
              "name": "votingEnd",
              "type": "uint256"
            },
            {
              "internalType": "address",
              "name": "owner",
              "type": "address"
            },
            {
              "internalType": "uint256",
              "name": "id",
              "type": "uint256"
            }
          ],
          "internalType": "struct Transactions.VotingEvent[]",
          "name": "",
          "type": "tuple[]"
        }
      ],
      "stateMutability": "view",
      "type": "function",
      "constant": true
    },
    {
      "inputs": [],
      "name": "getAllCandidates",
      "outputs": [
        {
          "components": [
            {
              "internalType": "string",
              "name": "name",
              "type": "string"
            },
            {
              "internalType": "string",
              "name": "_userIndex",
              "type": "string"
            },
            {
              "internalType": "uint256",
              "name": "voteCount",
              "type": "uint256"
            },
            {
              "internalType": "uint256",
              "name": "_eventIndex",
              "type": "uint256"
            }
          ],
          "internalType": "struct Transactions.Candidate[]",
          "name": "",
          "type": "tuple[]"
        }
      ],
      "stateMutability": "view",
      "type": "function",
      "constant": true
    },
    {
      "inputs": [
        {
          "internalType": "uint256",
          "name": "_eventIndex",
          "type": "uint256"
        }
      ],
      "name": "getVotingStatusOfEvent",
      "outputs": [
        {
          "internalType": "bool",
          "name": "",
          "type": "bool"
        }
      ],
      "stateMutability": "view",
      "type": "function",
      "constant": true
    },
    {
      "inputs": [
        {
          "internalType": "uint256",
          "name": "_eventIndex",
          "type": "uint256"
        }
      ],
      "name": "getRemainingTimeOfEvent",
      "outputs": [
        {
          "internalType": "uint256",
          "name": "",
          "type": "uint256"
        }
      ],
      "stateMutability": "view",
      "type": "function",
      "constant": true
    },
    {
      "inputs": [],
      "name": "createCoupon",
      "outputs": [],
      "stateMutability": "nonpayable",
      "type": "function"
    }
  ],
  "bytecode": "0x608060405234801561001057600080fd5b506122bb806100206000396000f3fe608060405234801561001057600080fd5b50600436106100cf5760003560e01c8063b384abef1161008c578063cc2d7ead11610066578063cc2d7ead146101f2578063d03c534c1461020e578063f0c27aa51461023e578063f0e1691a1461026e576100cf565b8063b384abef14610184578063bf9b48a7146101a0578063c27a500d146101d4576100cf565b806327506f53146100d45780632e6997fe146100f25780632e7700f0146101105780633ca09fdf1461012e578063512e3dfd1461014a57806395de44061461017a575b600080fd5b6100dc61028a565b6040516100e99190611577565b60405180910390f35b6100fa6104cd565b60405161010791906116c5565b60405180910390f35b610118610664565b60405161012591906116f6565b60405180910390f35b61014860048036038101906101439190611886565b61066d565b005b610164600480360381019061015f9190611911565b61070f565b60405161017191906116f6565b60405180910390f35b6101826107e7565b005b61019e6004803603810190610199919061193e565b610990565b005b6101ba60048036038101906101b59190611911565b610ba9565b6040516101cb9594939291906119d7565b60405180910390f35b6101dc610c97565b6040516101e99190611b69565b60405180910390f35b61020c60048036038101906102079190611bc9565b610dfc565b005b61022860048036038101906102239190611911565b610fbe565b6040516102359190611c84565b60405180910390f35b61025860048036038101906102539190611911565b610ff5565b6040516102659190611cba565b60405180910390f35b61028860048036038101906102839190611cd5565b611057565b005b60606001805480602002602001604051908101604052809291908181526020016000905b828210156104c457838290600052602060002090600602016040518060c00160405290816000820160009054906101000a900473ffffffffffffffffffffffffffffffffffffffff1673ffffffffffffffffffffffffffffffffffffffff1673ffffffffffffffffffffffffffffffffffffffff1681526020016001820160009054906101000a900473ffffffffffffffffffffffffffffffffffffffff1673ffffffffffffffffffffffffffffffffffffffff1673ffffffffffffffffffffffffffffffffffffffff1681526020016002820154815260200160038201805461039790611d60565b80601f01602080910402602001604051908101604052809291908181526020018280546103c390611d60565b80156104105780601f106103e557610100808354040283529160200191610410565b820191906000526020600020905b8154815290600101906020018083116103f357829003601f168201915b505050505081526020016004820154815260200160058201805461043390611d60565b80601f016020809104026020016040519081016040528092919081815260200182805461045f90611d60565b80156104ac5780601f10610481576101008083540402835291602001916104ac565b820191906000526020600020905b81548152906001019060200180831161048f57829003601f168201915b505050505081525050815260200190600101906102ae565b50505050905090565b60606003805480602002602001604051908101604052809291908181526020016000905b8282101561065b578382906000526020600020906004020160405180608001604052908160008201805461052490611d60565b80601f016020809104026020016040519081016040528092919081815260200182805461055090611d60565b801561059d5780601f106105725761010080835404028352916020019161059d565b820191906000526020600020905b81548152906001019060200180831161058057829003601f168201915b505050505081526020016001820180546105b690611d60565b80601f01602080910402602001604051908101604052809291908181526020018280546105e290611d60565b801561062f5780601f106106045761010080835404028352916020019161062f565b820191906000526020600020905b81548152906001019060200180831161061257829003601f168201915b5050505050815260200160028201548152602001600382015481525050815260200190600101906104f1565b50505050905090565b60008054905090565b600360405180608001604052808581526020018481526020016000815260200183815250908060018154018082558091505060019003906000526020600020906004020160009091909190915060008201518160000190805190602001906106d692919061128f565b5060208201518160010190805190602001906106f392919061128f565b5060408201518160020155606082015181600301555050505050565b60006005828154811061072557610724611d92565b5b906000526020600020906005020160010154421015610779576040517f08c379a000000000000000000000000000000000000000000000000000000000815260040161077090611e0d565b60405180910390fd5b6005828154811061078d5761078c611d92565b5b90600052602060002090600502016002015442106107ae57600090506107e2565b42600583815481106107c3576107c2611d92565b5b9060005260206000209060050201600201546107df9190611e5c565b90505b919050565b6000600767ffffffffffffffff8111156108045761080361172f565b5b6040519080825280602002602001820160405280156108325781602001602082028036833780820191505090505b50905060358160008151811061084b5761084a611d92565b5b60200260200101818152505060148160018151811061086d5761086c611d92565b5b602002602001018181525050600c8160028151811061088f5761088e611d92565b5b6020026020010181815250506008816003815181106108b1576108b0611d92565b5b6020026020010181815250506004816004815181106108d3576108d2611d92565b5b6020026020010181815250506002816005815181106108f5576108f4611d92565b5b60200260200101818152505060018160068151811061091757610916611d92565b5b602002602001018181525050600061092e8261117a565b9050600660405180602001604052808360ff168152509080600181540180825580915050600190039060005260206000200160009091909190915060008201518160000160006101000a81548160ff021916908360ff16021790555050505050565b60058054905081106109d7576040517f08c379a00000000000000000000000000000000000000000000000000000000081526004016109ce90611edc565b60405180910390fd5b6000600260003373ffffffffffffffffffffffffffffffffffffffff1673ffffffffffffffffffffffffffffffffffffffff168152602001908152602001600020600101805490501480610ac25750610ac0600260003373ffffffffffffffffffffffffffffffffffffffff1673ffffffffffffffffffffffffffffffffffffffff168152602001908152602001600020600101805480602002602001604051908101604052809291908181526020018280548015610ab557602002820191906000526020600020905b815481526020019060010190808311610aa1575b505050505082611233565b155b610b01576040517f08c379a0000000000000000000000000000000000000000000000000000000008152600401610af890611f6e565b60405180910390fd5b60038281548110610b1557610b14611d92565b5b90600052602060002090600402016002016000815480929190610b3790611f8e565b9190505550600260003373ffffffffffffffffffffffffffffffffffffffff1673ffffffffffffffffffffffffffffffffffffffff1681526020019081526020016000206001018190806001815401808255809150506001900390600052602060002001600090919091909150555050565b60058181548110610bb957600080fd5b9060005260206000209060050201600091509050806000018054610bdc90611d60565b80601f0160208091040260200160405190810160405280929190818152602001828054610c0890611d60565b8015610c555780601f10610c2a57610100808354040283529160200191610c55565b820191906000526020600020905b815481529060010190602001808311610c3857829003601f168201915b5050505050908060010154908060020154908060030160009054906101000a900473ffffffffffffffffffffffffffffffffffffffff16908060040154905085565b60606005805480602002602001604051908101604052809291908181526020016000905b82821015610df357838290600052602060002090600502016040518060a0016040529081600082018054610cee90611d60565b80601f0160208091040260200160405190810160405280929190818152602001828054610d1a90611d60565b8015610d675780601f10610d3c57610100808354040283529160200191610d67565b820191906000526020600020905b815481529060010190602001808311610d4a57829003601f168201915b5050505050815260200160018201548152602001600282015481526020016003820160009054906101000a900473ffffffffffffffffffffffffffffffffffffffff1673ffffffffffffffffffffffffffffffffffffffff1673ffffffffffffffffffffffffffffffffffffffff16815260200160048201548152505081526020019060010190610cbb565b50505050905090565b6001600080828254610e0e9190611fd7565b9250508190555060016040518060c001604052803373ffffffffffffffffffffffffffffffffffffffff1681526020018673ffffffffffffffffffffffffffffffffffffffff16815260200185815260200184815260200142815260200183815250908060018154018082558091505060019003906000526020600020906006020160009091909190915060008201518160000160006101000a81548173ffffffffffffffffffffffffffffffffffffffff021916908373ffffffffffffffffffffffffffffffffffffffff16021790555060208201518160010160006101000a81548173ffffffffffffffffffffffffffffffffffffffff021916908373ffffffffffffffffffffffffffffffffffffffff160217905550604082015181600201556060820151816003019080519060200190610f4d92919061128f565b506080820151816004015560a0820151816005019080519060200190610f7492919061128f565b5050507f416cfa4330a4565f45c2fd2dd4826a83a37443aba2ce6f79477c7355afac35fa338585854286604051610fb09695949392919061208c565b60405180910390a150505050565b60068181548110610fce57600080fd5b906000526020600020016000915090508060000160009054906101000a900460ff16905081565b60006005828154811061100b5761100a611d92565b5b906000526020600020906005020160010154421015801561105057506005828154811061103b5761103a611d92565b5b90600052602060002090600502016002015442105b9050919050565b60016004600082825461106a9190611fd7565b9250508190555060056040518060a00160405280848152602001428152602001603c8461109791906120fb565b426110a29190611fd7565b81526020013373ffffffffffffffffffffffffffffffffffffffff1681526020016004548152509080600181540180825580915050600190039060005260206000209060050201600090919091909150600082015181600001908051906020019061110e92919061128f565b50602082015181600101556040820151816002015560608201518160030160006101000a81548173ffffffffffffffffffffffffffffffffffffffff021916908373ffffffffffffffffffffffffffffffffffffffff1602179055506080820151816004015550505050565b6000806064424433604051602001611194939291906121be565b6040516020818303038152906040528051906020012060001c6111b7919061222a565b90506000805b84518160ff16101561121a57848160ff16815181106111df576111de611d92565b5b6020026020010151826111f29190611fd7565b9150818310156112075780935050505061122e565b80806112129061225b565b9150506111bd565b50600184516112299190611e5c565b925050505b919050565b600080600090505b8351811015611283578284828151811061125857611257611d92565b5b60200260200101511415611270576001915050611289565b808061127b90611f8e565b91505061123b565b50600090505b92915050565b82805461129b90611d60565b90600052602060002090601f0160209004810192826112bd5760008555611304565b82601f106112d657805160ff1916838001178555611304565b82800160010185558215611304579182015b828111156113035782518255916020019190600101906112e8565b5b5090506113119190611315565b5090565b5b8082111561132e576000816000905550600101611316565b5090565b600081519050919050565b600082825260208201905092915050565b6000819050602082019050919050565b600073ffffffffffffffffffffffffffffffffffffffff82169050919050565b60006113898261135e565b9050919050565b6113998161137e565b82525050565b6000819050919050565b6113b28161139f565b82525050565b600081519050919050565b600082825260208201905092915050565b60005b838110156113f25780820151818401526020810190506113d7565b83811115611401576000848401525b50505050565b6000601f19601f8301169050919050565b6000611423826113b8565b61142d81856113c3565b935061143d8185602086016113d4565b61144681611407565b840191505092915050565b600060c0830160008301516114696000860182611390565b50602083015161147c6020860182611390565b50604083015161148f60408601826113a9565b50606083015184820360608601526114a78282611418565b91505060808301516114bc60808601826113a9565b5060a083015184820360a08601526114d48282611418565b9150508091505092915050565b60006114ed8383611451565b905092915050565b6000602082019050919050565b600061150d82611332565b611517818561133d565b9350836020820285016115298561134e565b8060005b85811015611565578484038952815161154685826114e1565b9450611551836114f5565b925060208a0199505060018101905061152d565b50829750879550505050505092915050565b600060208201905081810360008301526115918184611502565b905092915050565b600081519050919050565b600082825260208201905092915050565b6000819050602082019050919050565b600060808301600083015184820360008601526115e28282611418565b915050602083015184820360208601526115fc8282611418565b915050604083015161161160408601826113a9565b50606083015161162460608601826113a9565b508091505092915050565b600061163b83836115c5565b905092915050565b6000602082019050919050565b600061165b82611599565b61166581856115a4565b935083602082028501611677856115b5565b8060005b858110156116b35784840389528151611694858261162f565b945061169f83611643565b925060208a0199505060018101905061167b565b50829750879550505050505092915050565b600060208201905081810360008301526116df8184611650565b905092915050565b6116f08161139f565b82525050565b600060208201905061170b60008301846116e7565b92915050565b6000604051905090565b600080fd5b600080fd5b600080fd5b600080fd5b7f4e487b7100000000000000000000000000000000000000000000000000000000600052604160045260246000fd5b61176782611407565b810181811067ffffffffffffffff821117156117865761178561172f565b5b80604052505050565b6000611799611711565b90506117a5828261175e565b919050565b600067ffffffffffffffff8211156117c5576117c461172f565b5b6117ce82611407565b9050602081019050919050565b82818337600083830152505050565b60006117fd6117f8846117aa565b61178f565b9050828152602081018484840111156118195761181861172a565b5b6118248482856117db565b509392505050565b600082601f83011261184157611840611725565b5b81356118518482602086016117ea565b91505092915050565b6118638161139f565b811461186e57600080fd5b50565b6000813590506118808161185a565b92915050565b60008060006060848603121561189f5761189e61171b565b5b600084013567ffffffffffffffff8111156118bd576118bc611720565b5b6118c98682870161182c565b935050602084013567ffffffffffffffff8111156118ea576118e9611720565b5b6118f68682870161182c565b925050604061190786828701611871565b9150509250925092565b6000602082840312156119275761192661171b565b5b600061193584828501611871565b91505092915050565b600080604083850312156119555761195461171b565b5b600061196385828601611871565b925050602061197485828601611871565b9150509250929050565b600082825260208201905092915050565b600061199a826113b8565b6119a4818561197e565b93506119b48185602086016113d4565b6119bd81611407565b840191505092915050565b6119d18161137e565b82525050565b600060a08201905081810360008301526119f1818861198f565b9050611a0060208301876116e7565b611a0d60408301866116e7565b611a1a60608301856119c8565b611a2760808301846116e7565b9695505050505050565b600081519050919050565b600082825260208201905092915050565b6000819050602082019050919050565b600060a0830160008301518482036000860152611a7a8282611418565b9150506020830151611a8f60208601826113a9565b506040830151611aa260408601826113a9565b506060830151611ab56060860182611390565b506080830151611ac860808601826113a9565b508091505092915050565b6000611adf8383611a5d565b905092915050565b6000602082019050919050565b6000611aff82611a31565b611b098185611a3c565b935083602082028501611b1b85611a4d565b8060005b85811015611b575784840389528151611b388582611ad3565b9450611b4383611ae7565b925060208a01995050600181019050611b1f565b50829750879550505050505092915050565b60006020820190508181036000830152611b838184611af4565b905092915050565b6000611b968261135e565b9050919050565b611ba681611b8b565b8114611bb157600080fd5b50565b600081359050611bc381611b9d565b92915050565b60008060008060808587031215611be357611be261171b565b5b6000611bf187828801611bb4565b9450506020611c0287828801611871565b935050604085013567ffffffffffffffff811115611c2357611c22611720565b5b611c2f8782880161182c565b925050606085013567ffffffffffffffff811115611c5057611c4f611720565b5b611c5c8782880161182c565b91505092959194509250565b600060ff82169050919050565b611c7e81611c68565b82525050565b6000602082019050611c996000830184611c75565b92915050565b60008115159050919050565b611cb481611c9f565b82525050565b6000602082019050611ccf6000830184611cab565b92915050565b60008060408385031215611cec57611ceb61171b565b5b600083013567ffffffffffffffff811115611d0a57611d09611720565b5b611d168582860161182c565b9250506020611d2785828601611871565b9150509250929050565b7f4e487b7100000000000000000000000000000000000000000000000000000000600052602260045260246000fd5b60006002820490506001821680611d7857607f821691505b60208210811415611d8c57611d8b611d31565b5b50919050565b7f4e487b7100000000000000000000000000000000000000000000000000000000600052603260045260246000fd5b7f566f74696e6720686173206e6f742073746172746564207965742e0000000000600082015250565b6000611df7601b8361197e565b9150611e0282611dc1565b602082019050919050565b60006020820190508181036000830152611e2681611dea565b9050919050565b7f4e487b7100000000000000000000000000000000000000000000000000000000600052601160045260246000fd5b6000611e678261139f565b9150611e728361139f565b925082821015611e8557611e84611e2d565b5b828203905092915050565b7f496e76616c6964206576656e7420696e64657800000000000000000000000000600082015250565b6000611ec660138361197e565b9150611ed182611e90565b602082019050919050565b60006020820190508181036000830152611ef581611eb9565b9050919050565b7f566f7465722068617320616c726561647920766f74656420696e20746869732060008201527f6576656e74000000000000000000000000000000000000000000000000000000602082015250565b6000611f5860258361197e565b9150611f6382611efc565b604082019050919050565b60006020820190508181036000830152611f8781611f4b565b9050919050565b6000611f998261139f565b91507fffffffffffffffffffffffffffffffffffffffffffffffffffffffffffffffff821415611fcc57611fcb611e2d565b5b600182019050919050565b6000611fe28261139f565b9150611fed8361139f565b9250827fffffffffffffffffffffffffffffffffffffffffffffffffffffffffffffffff0382111561202257612021611e2d565b5b828201905092915050565b6000819050919050565b600061205261204d6120488461135e565b61202d565b61135e565b9050919050565b600061206482612037565b9050919050565b600061207682612059565b9050919050565b6120868161206b565b82525050565b600060c0820190506120a160008301896119c8565b6120ae602083018861207d565b6120bb60408301876116e7565b81810360608301526120cd818661198f565b90506120dc60808301856116e7565b81810360a08301526120ee818461198f565b9050979650505050505050565b60006121068261139f565b91506121118361139f565b9250817fffffffffffffffffffffffffffffffffffffffffffffffffffffffffffffffff048311821515161561214a57612149611e2d565b5b828202905092915050565b6000819050919050565b61217061216b8261139f565b612155565b82525050565b60008160601b9050919050565b600061218e82612176565b9050919050565b60006121a082612183565b9050919050565b6121b86121b38261137e565b612195565b82525050565b60006121ca828661215f565b6020820191506121da828561215f565b6020820191506121ea82846121a7565b601482019150819050949350505050565b7f4e487b7100000000000000000000000000000000000000000000000000000000600052601260045260246000fd5b60006122358261139f565b91506122408361139f565b9250826122505761224f6121fb565b5b828206905092915050565b600061226682611c68565b915060ff82141561227a57612279611e2d565b5b60018201905091905056fea2646970667358221220a143ab4b98478754d52e9b9f7f5b0b9d4963e6b8f353fd9f83a4f7af7fe0a98564736f6c63430008090033",
  "immutableReferences": {},
  "source": "// SPDX-License-Identifier: UNLICENSED\r\n\r\npragma solidity ^0.8.9;\r\n\r\ncontract Transactions {\r\n\r\n    //Transaction\r\n    uint256 transactionCount;\r\n\r\n    event Transfer(address from, address receiver, uint amount, string message, uint256 timestamp, string keyword);\r\n  \r\n    struct TransferStruct {\r\n        address sender;\r\n        address receiver;\r\n        uint amount;\r\n        string message;\r\n        uint256 timestamp;\r\n        string keyword;\r\n    }\r\n\r\n    TransferStruct[] transactions;\r\n\r\n    function addToBlockchain(address payable receiver, uint amount, string memory message,string memory keyword) public {\r\n        transactionCount += 1;\r\n        transactions.push(TransferStruct(msg.sender, receiver, amount, message, block.timestamp, keyword));\r\n\r\n        emit Transfer(msg.sender, receiver, amount, message, block.timestamp, keyword);\r\n    }\r\n\r\n    function getAllTransactions() public view returns (TransferStruct[] memory) {\r\n        return transactions;\r\n    }\r\n\r\n    function getTransactionCount() public view returns (uint256) {\r\n        return transactionCount;\r\n    }\r\n    //Voting\r\n    struct Candidate {\r\n        string name;\r\n        string _userIndex;\r\n        uint256 voteCount;\r\n        uint _eventIndex;\r\n    }\r\n\r\n    struct VotingEvent {\r\n        string name;\r\n        uint256 votingStart;\r\n        uint256 votingEnd;\r\n        address owner;\r\n        uint id;\r\n    }\r\n    struct VoterAndEvents {\r\n        address voter_address;\r\n        uint[] _eventIndex;\r\n    }\r\n    mapping(address => VoterAndEvents) voters;\r\n    Candidate[] candidates;\r\n    uint256 eventCount;\r\n    VotingEvent[] public votingEvents;\r\n\r\n    function addEvent(\r\n        string memory _name,\r\n        uint256 _durationInMinutes\r\n    ) public {\r\n        eventCount += 1;\r\n        votingEvents.push(\r\n            VotingEvent({\r\n                name: _name,\r\n                votingStart: block.timestamp,\r\n                votingEnd: block.timestamp + (_durationInMinutes * 1 minutes),\r\n                owner: msg.sender,\r\n                id: eventCount\r\n            })\r\n        );\r\n    }\r\n\r\n    function addCandidate(\r\n        string memory _candidateName,\r\n        string memory _userIndex,\r\n        uint _eventIndex\r\n    ) public {\r\n        candidates.push(Candidate(_candidateName,_userIndex,0,_eventIndex));\r\n    }\r\n\r\n    function vote(uint256 _candidateIndex, uint _eventIndex) public {\r\n        require(_eventIndex < votingEvents.length, \"Invalid event index\");\r\n        require(\r\n            voters[msg.sender]._eventIndex.length == 0 ||\r\n                !contains(voters[msg.sender]._eventIndex, _eventIndex),\r\n            \"Voter has already voted in this event\"\r\n        );\r\n\r\n        candidates[_candidateIndex].voteCount++;\r\n        voters[msg.sender]._eventIndex.push(_eventIndex);\r\n    }\r\n\r\n    function contains(\r\n        uint[] memory arr,\r\n        uint element\r\n    ) private pure returns (bool) {\r\n        for (uint i = 0; i < arr.length; i++) {\r\n            if (arr[i] == element) {\r\n                return true;\r\n            }\r\n        }\r\n        return false;\r\n    }\r\n\r\n    function getAllEvents () public view returns (VotingEvent[] memory){\r\n        return votingEvents;\r\n    }\r\n\r\n    function getAllCandidates() public view returns (Candidate[] memory) {\r\n        return candidates;\r\n    }\r\n\r\n    function getVotingStatusOfEvent(\r\n        uint256 _eventIndex\r\n    ) public view returns (bool) {\r\n        return (block.timestamp >= votingEvents[_eventIndex].votingStart &&\r\n            block.timestamp < votingEvents[_eventIndex].votingEnd);\r\n    }\r\n\r\n    function getRemainingTimeOfEvent(\r\n        uint256 _eventIndex\r\n    ) public view returns (uint256) {\r\n        require(\r\n            block.timestamp >= votingEvents[_eventIndex].votingStart,\r\n            \"Voting has not started yet.\"\r\n        );\r\n        if (block.timestamp >= votingEvents[_eventIndex].votingEnd) {\r\n            return 0;\r\n        }\r\n        return votingEvents[_eventIndex].votingEnd - block.timestamp;\r\n    }\r\n\r\n    //Prize Pool\r\n\r\n    struct Coupon {\r\n        uint8 group;\r\n        // Add more properties as needed\r\n    }\r\n\r\n    Coupon[] public couponList;\r\n\r\n    function createCoupon() public {\r\n        uint256[] memory rates = new uint256[](7);\r\n        rates[0] = 53;\r\n        rates[1] = 20;\r\n        rates[2] = 12;\r\n        rates[3] = 8;\r\n        rates[4] = 4;\r\n        rates[5] = 2;\r\n        rates[6] = 1;\r\n\r\n        uint8 group = selectGroup(rates);\r\n        couponList.push(Coupon(group));\r\n    }\r\n\r\n    function selectGroup(uint256[] memory rates) private view returns (uint8) {\r\n        uint256 randomValue = uint256(keccak256(abi.encodePacked(block.timestamp, block.difficulty, msg.sender))) % 100;\r\n\r\n        uint256 cumulativeRate = 0;\r\n        for (uint8 i = 0; i < rates.length; i++) {\r\n            cumulativeRate += rates[i];\r\n\r\n            if (randomValue < cumulativeRate) {\r\n                return i;\r\n            }\r\n        }\r\n\r\n        // Default to the last group if no match is found\r\n        return uint8(rates.length - 1);\r\n    }\r\n}",
  "sourcePath": "C:\\Users\\Le Quoc Tuan\\OneDrive\\Documents\\Blockchains\\project2\\client\\contracts\\Transactions.sol",
  "compiler": {
    "name": "solc",
    "version": "0.8.9+commit.e5eed63a.Emscripten.clang"
  },
  "schemaVersion": "3.4.7",
  "updatedAt": "2023-07-06T08:01:36.751Z",
  "networkType": "ethereum",
  "devdoc": {
    "kind": "dev",
    "methods": {},
    "version": 1
  },
  "userdoc": {
    "kind": "user",
    "methods": {},
    "version": 1
  }
}