{
  "contractName": "Transactions",
  "abi": [
    {
      "anonymous": false,
      "inputs": [
        {
          "indexed": false,
          "internalType": "address",
          "name": "from",
          "type": "address"
        },
        {
          "indexed": false,
          "internalType": "address",
          "name": "receiver",
          "type": "address"
        },
        {
          "indexed": false,
          "internalType": "uint256",
          "name": "amount",
          "type": "uint256"
        },
        {
          "indexed": false,
          "internalType": "string",
          "name": "message",
          "type": "string"
        },
        {
          "indexed": false,
          "internalType": "uint256",
          "name": "timestamp",
          "type": "uint256"
        },
        {
          "indexed": false,
          "internalType": "string",
          "name": "keyword",
          "type": "string"
        }
      ],
      "name": "Transfer",
      "type": "event"
    },
    {
      "inputs": [
        {
          "internalType": "uint256",
          "name": "",
          "type": "uint256"
        }
      ],
      "name": "votingEvents",
      "outputs": [
        {
          "internalType": "string",
          "name": "name",
          "type": "string"
        },
        {
          "internalType": "uint256",
          "name": "votingStart",
          "type": "uint256"
        },
        {
          "internalType": "uint256",
          "name": "votingEnd",
          "type": "uint256"
        },
        {
          "internalType": "address",
          "name": "owner",
          "type": "address"
        },
        {
          "internalType": "uint256",
          "name": "id",
          "type": "uint256"
        }
      ],
      "stateMutability": "view",
      "type": "function",
      "constant": true
    },
    {
      "inputs": [
        {
          "internalType": "address payable",
          "name": "receiver",
          "type": "address"
        },
        {
          "internalType": "uint256",
          "name": "amount",
          "type": "uint256"
        },
        {
          "internalType": "string",
          "name": "message",
          "type": "string"
        },
        {
          "internalType": "string",
          "name": "keyword",
          "type": "string"
        }
      ],
      "name": "addToBlockchain",
      "outputs": [],
      "stateMutability": "nonpayable",
      "type": "function"
    },
    {
      "inputs": [],
      "name": "getAllTransactions",
      "outputs": [
        {
          "components": [
            {
              "internalType": "address",
              "name": "sender",
              "type": "address"
            },
            {
              "internalType": "address",
              "name": "receiver",
              "type": "address"
            },
            {
              "internalType": "uint256",
              "name": "amount",
              "type": "uint256"
            },
            {
              "internalType": "string",
              "name": "message",
              "type": "string"
            },
            {
              "internalType": "uint256",
              "name": "timestamp",
              "type": "uint256"
            },
            {
              "internalType": "string",
              "name": "keyword",
              "type": "string"
            }
          ],
          "internalType": "struct Transactions.TransferStruct[]",
          "name": "",
          "type": "tuple[]"
        }
      ],
      "stateMutability": "view",
      "type": "function",
      "constant": true
    },
    {
      "inputs": [],
      "name": "getTransactionCount",
      "outputs": [
        {
          "internalType": "uint256",
          "name": "",
          "type": "uint256"
        }
      ],
      "stateMutability": "view",
      "type": "function",
      "constant": true
    },
    {
      "inputs": [
        {
          "internalType": "string",
          "name": "_name",
          "type": "string"
        },
        {
          "internalType": "uint256",
          "name": "_durationInMinutes",
          "type": "uint256"
        }
      ],
      "name": "addEvent",
      "outputs": [],
      "stateMutability": "nonpayable",
      "type": "function"
    },
    {
      "inputs": [
        {
          "internalType": "string",
          "name": "_candidateName",
          "type": "string"
        },
        {
          "internalType": "uint256",
          "name": "_eventIndex",
          "type": "uint256"
        }
      ],
      "name": "addCandidate",
      "outputs": [],
      "stateMutability": "nonpayable",
      "type": "function"
    },
    {
      "inputs": [
        {
          "internalType": "uint256",
          "name": "_candidateIndex",
          "type": "uint256"
        },
        {
          "internalType": "uint256",
          "name": "_eventIndex",
          "type": "uint256"
        }
      ],
      "name": "vote",
      "outputs": [],
      "stateMutability": "nonpayable",
      "type": "function"
    },
    {
      "inputs": [],
      "name": "getAllEvents",
      "outputs": [
        {
          "components": [
            {
              "internalType": "string",
              "name": "name",
              "type": "string"
            },
            {
              "internalType": "uint256",
              "name": "votingStart",
              "type": "uint256"
            },
            {
              "internalType": "uint256",
              "name": "votingEnd",
              "type": "uint256"
            },
            {
              "internalType": "address",
              "name": "owner",
              "type": "address"
            },
            {
              "internalType": "uint256",
              "name": "id",
              "type": "uint256"
            }
          ],
          "internalType": "struct Transactions.VotingEvent[]",
          "name": "",
          "type": "tuple[]"
        }
      ],
      "stateMutability": "view",
      "type": "function",
      "constant": true
    },
    {
      "inputs": [],
      "name": "getAllCandiates",
      "outputs": [
        {
          "components": [
            {
              "internalType": "string",
              "name": "name",
              "type": "string"
            },
            {
              "internalType": "uint256",
              "name": "voteCount",
              "type": "uint256"
            },
            {
              "internalType": "uint256",
              "name": "_eventIndex",
              "type": "uint256"
            }
          ],
          "internalType": "struct Transactions.Candidate[]",
          "name": "",
          "type": "tuple[]"
        }
      ],
      "stateMutability": "view",
      "type": "function",
      "constant": true
    },
    {
      "inputs": [
        {
          "internalType": "uint256",
          "name": "_eventIndex",
          "type": "uint256"
        }
      ],
      "name": "getVotingStatusOfEvent",
      "outputs": [
        {
          "internalType": "bool",
          "name": "",
          "type": "bool"
        }
      ],
      "stateMutability": "view",
      "type": "function",
      "constant": true
    },
    {
      "inputs": [
        {
          "internalType": "uint256",
          "name": "_eventIndex",
          "type": "uint256"
        }
      ],
      "name": "getRemainingTimeOfEvent",
      "outputs": [
        {
          "internalType": "uint256",
          "name": "",
          "type": "uint256"
        }
      ],
      "stateMutability": "view",
      "type": "function",
      "constant": true
    }
  ],
  "bytecode": "0x608060405234801561001057600080fd5b50611d00806100206000396000f3fe608060405234801561001057600080fd5b50600436106100a95760003560e01c8063bf9b48a711610071578063bf9b48a714610154578063c27a500d14610188578063cc2d7ead146101a6578063e23cec7b146101c2578063f0c27aa5146101de578063f0e1691a1461020e576100a9565b806327506f53146100ae5780632e7700f0146100cc578063512e3dfd146100ea578063a7ae423d1461011a578063b384abef14610138575b600080fd5b6100b661022a565b6040516100c391906111c8565b60405180910390f35b6100d461046d565b6040516100e191906111f9565b60405180910390f35b61010460048036038101906100ff9190611254565b610476565b60405161011191906111f9565b60405180910390f35b61012261054e565b60405161012f9190611393565b60405180910390f35b610152600480360381019061014d91906113b5565b610653565b005b61016e60048036038101906101699190611254565b61086c565b60405161017f95949392919061144e565b60405180910390f35b61019061095a565b60405161019d91906115e0565b60405180910390f35b6101c060048036038101906101bb9190611775565b610abf565b005b6101dc60048036038101906101d79190611814565b610c81565b005b6101f860048036038101906101f39190611254565b610cff565b604051610205919061188b565b60405180910390f35b61022860048036038101906102239190611814565b610d61565b005b60606001805480602002602001604051908101604052809291908181526020016000905b8282101561046457838290600052602060002090600602016040518060c00160405290816000820160009054906101000a900473ffffffffffffffffffffffffffffffffffffffff1673ffffffffffffffffffffffffffffffffffffffff1673ffffffffffffffffffffffffffffffffffffffff1681526020016001820160009054906101000a900473ffffffffffffffffffffffffffffffffffffffff1673ffffffffffffffffffffffffffffffffffffffff1673ffffffffffffffffffffffffffffffffffffffff16815260200160028201548152602001600382018054610337906118d5565b80601f0160208091040260200160405190810160405280929190818152602001828054610363906118d5565b80156103b05780601f10610385576101008083540402835291602001916103b0565b820191906000526020600020905b81548152906001019060200180831161039357829003601f168201915b50505050508152602001600482015481526020016005820180546103d3906118d5565b80601f01602080910402602001604051908101604052809291908181526020018280546103ff906118d5565b801561044c5780601f106104215761010080835404028352916020019161044c565b820191906000526020600020905b81548152906001019060200180831161042f57829003601f168201915b5050505050815250508152602001906001019061024e565b50505050905090565b60008054905090565b60006005828154811061048c5761048b611907565b5b9060005260206000209060050201600101544210156104e0576040517f08c379a00000000000000000000000000000000000000000000000000000000081526004016104d790611982565b60405180910390fd5b600582815481106104f4576104f3611907565b5b90600052602060002090600502016002015442106105155760009050610549565b426005838154811061052a57610529611907565b5b90600052602060002090600502016002015461054691906119d1565b90505b919050565b60606003805480602002602001604051908101604052809291908181526020016000905b8282101561064a57838290600052602060002090600302016040518060600160405290816000820180546105a5906118d5565b80601f01602080910402602001604051908101604052809291908181526020018280546105d1906118d5565b801561061e5780601f106105f35761010080835404028352916020019161061e565b820191906000526020600020905b81548152906001019060200180831161060157829003601f168201915b505050505081526020016001820154815260200160028201548152505081526020019060010190610572565b50505050905090565b600580549050811061069a576040517f08c379a000000000000000000000000000000000000000000000000000000000815260040161069190611a51565b60405180910390fd5b6000600260003373ffffffffffffffffffffffffffffffffffffffff1673ffffffffffffffffffffffffffffffffffffffff1681526020019081526020016000206001018054905014806107855750610783600260003373ffffffffffffffffffffffffffffffffffffffff1673ffffffffffffffffffffffffffffffffffffffff16815260200190815260200160002060010180548060200260200160405190810160405280929190818152602001828054801561077857602002820191906000526020600020905b815481526020019060010190808311610764575b505050505082610e84565b155b6107c4576040517f08c379a00000000000000000000000000000000000000000000000000000000081526004016107bb90611ae3565b60405180910390fd5b600382815481106107d8576107d7611907565b5b906000526020600020906003020160010160008154809291906107fa90611b03565b9190505550600260003373ffffffffffffffffffffffffffffffffffffffff1673ffffffffffffffffffffffffffffffffffffffff1681526020019081526020016000206001018190806001815401808255809150506001900390600052602060002001600090919091909150555050565b6005818154811061087c57600080fd5b906000526020600020906005020160009150905080600001805461089f906118d5565b80601f01602080910402602001604051908101604052809291908181526020018280546108cb906118d5565b80156109185780601f106108ed57610100808354040283529160200191610918565b820191906000526020600020905b8154815290600101906020018083116108fb57829003601f168201915b5050505050908060010154908060020154908060030160009054906101000a900473ffffffffffffffffffffffffffffffffffffffff16908060040154905085565b60606005805480602002602001604051908101604052809291908181526020016000905b82821015610ab657838290600052602060002090600502016040518060a00160405290816000820180546109b1906118d5565b80601f01602080910402602001604051908101604052809291908181526020018280546109dd906118d5565b8015610a2a5780601f106109ff57610100808354040283529160200191610a2a565b820191906000526020600020905b815481529060010190602001808311610a0d57829003601f168201915b5050505050815260200160018201548152602001600282015481526020016003820160009054906101000a900473ffffffffffffffffffffffffffffffffffffffff1673ffffffffffffffffffffffffffffffffffffffff1673ffffffffffffffffffffffffffffffffffffffff1681526020016004820154815250508152602001906001019061097e565b50505050905090565b6001600080828254610ad19190611b4c565b9250508190555060016040518060c001604052803373ffffffffffffffffffffffffffffffffffffffff1681526020018673ffffffffffffffffffffffffffffffffffffffff16815260200185815260200184815260200142815260200183815250908060018154018082558091505060019003906000526020600020906006020160009091909190915060008201518160000160006101000a81548173ffffffffffffffffffffffffffffffffffffffff021916908373ffffffffffffffffffffffffffffffffffffffff16021790555060208201518160010160006101000a81548173ffffffffffffffffffffffffffffffffffffffff021916908373ffffffffffffffffffffffffffffffffffffffff160217905550604082015181600201556060820151816003019080519060200190610c10929190610ee0565b506080820151816004015560a0820151816005019080519060200190610c37929190610ee0565b5050507f416cfa4330a4565f45c2fd2dd4826a83a37443aba2ce6f79477c7355afac35fa338585854286604051610c7396959493929190611c01565b60405180910390a150505050565b60036040518060600160405280848152602001600081526020018381525090806001815401808255809150506001900390600052602060002090600302016000909190919091506000820151816000019080519060200190610ce4929190610ee0565b50602082015181600101556040820151816002015550505050565b600060058281548110610d1557610d14611907565b5b9060005260206000209060050201600101544210158015610d5a575060058281548110610d4557610d44611907565b5b90600052602060002090600502016002015442105b9050919050565b600160046000828254610d749190611b4c565b9250508190555060056040518060a00160405280848152602001428152602001603c84610da19190611c70565b42610dac9190611b4c565b81526020013373ffffffffffffffffffffffffffffffffffffffff16815260200160045481525090806001815401808255809150506001900390600052602060002090600502016000909190919091506000820151816000019080519060200190610e18929190610ee0565b50602082015181600101556040820151816002015560608201518160030160006101000a81548173ffffffffffffffffffffffffffffffffffffffff021916908373ffffffffffffffffffffffffffffffffffffffff1602179055506080820151816004015550505050565b600080600090505b8351811015610ed45782848281518110610ea957610ea8611907565b5b60200260200101511415610ec1576001915050610eda565b8080610ecc90611b03565b915050610e8c565b50600090505b92915050565b828054610eec906118d5565b90600052602060002090601f016020900481019282610f0e5760008555610f55565b82601f10610f2757805160ff1916838001178555610f55565b82800160010185558215610f55579182015b82811115610f54578251825591602001919060010190610f39565b5b509050610f629190610f66565b5090565b5b80821115610f7f576000816000905550600101610f67565b5090565b600081519050919050565b600082825260208201905092915050565b6000819050602082019050919050565b600073ffffffffffffffffffffffffffffffffffffffff82169050919050565b6000610fda82610faf565b9050919050565b610fea81610fcf565b82525050565b6000819050919050565b61100381610ff0565b82525050565b600081519050919050565b600082825260208201905092915050565b60005b83811015611043578082015181840152602081019050611028565b83811115611052576000848401525b50505050565b6000601f19601f8301169050919050565b600061107482611009565b61107e8185611014565b935061108e818560208601611025565b61109781611058565b840191505092915050565b600060c0830160008301516110ba6000860182610fe1565b5060208301516110cd6020860182610fe1565b5060408301516110e06040860182610ffa565b50606083015184820360608601526110f88282611069565b915050608083015161110d6080860182610ffa565b5060a083015184820360a08601526111258282611069565b9150508091505092915050565b600061113e83836110a2565b905092915050565b6000602082019050919050565b600061115e82610f83565b6111688185610f8e565b93508360208202850161117a85610f9f565b8060005b858110156111b657848403895281516111978582611132565b94506111a283611146565b925060208a0199505060018101905061117e565b50829750879550505050505092915050565b600060208201905081810360008301526111e28184611153565b905092915050565b6111f381610ff0565b82525050565b600060208201905061120e60008301846111ea565b92915050565b6000604051905090565b600080fd5b600080fd5b61123181610ff0565b811461123c57600080fd5b50565b60008135905061124e81611228565b92915050565b60006020828403121561126a5761126961121e565b5b60006112788482850161123f565b91505092915050565b600081519050919050565b600082825260208201905092915050565b6000819050602082019050919050565b600060608301600083015184820360008601526112ca8282611069565b91505060208301516112df6020860182610ffa565b5060408301516112f26040860182610ffa565b508091505092915050565b600061130983836112ad565b905092915050565b6000602082019050919050565b600061132982611281565b611333818561128c565b9350836020820285016113458561129d565b8060005b85811015611381578484038952815161136285826112fd565b945061136d83611311565b925060208a01995050600181019050611349565b50829750879550505050505092915050565b600060208201905081810360008301526113ad818461131e565b905092915050565b600080604083850312156113cc576113cb61121e565b5b60006113da8582860161123f565b92505060206113eb8582860161123f565b9150509250929050565b600082825260208201905092915050565b600061141182611009565b61141b81856113f5565b935061142b818560208601611025565b61143481611058565b840191505092915050565b61144881610fcf565b82525050565b600060a08201905081810360008301526114688188611406565b905061147760208301876111ea565b61148460408301866111ea565b611491606083018561143f565b61149e60808301846111ea565b9695505050505050565b600081519050919050565b600082825260208201905092915050565b6000819050602082019050919050565b600060a08301600083015184820360008601526114f18282611069565b91505060208301516115066020860182610ffa565b5060408301516115196040860182610ffa565b50606083015161152c6060860182610fe1565b50608083015161153f6080860182610ffa565b508091505092915050565b600061155683836114d4565b905092915050565b6000602082019050919050565b6000611576826114a8565b61158081856114b3565b935083602082028501611592856114c4565b8060005b858110156115ce57848403895281516115af858261154a565b94506115ba8361155e565b925060208a01995050600181019050611596565b50829750879550505050505092915050565b600060208201905081810360008301526115fa818461156b565b905092915050565b600061160d82610faf565b9050919050565b61161d81611602565b811461162857600080fd5b50565b60008135905061163a81611614565b92915050565b600080fd5b600080fd5b7f4e487b7100000000000000000000000000000000000000000000000000000000600052604160045260246000fd5b61168282611058565b810181811067ffffffffffffffff821117156116a1576116a061164a565b5b80604052505050565b60006116b4611214565b90506116c08282611679565b919050565b600067ffffffffffffffff8211156116e0576116df61164a565b5b6116e982611058565b9050602081019050919050565b82818337600083830152505050565b6000611718611713846116c5565b6116aa565b90508281526020810184848401111561173457611733611645565b5b61173f8482856116f6565b509392505050565b600082601f83011261175c5761175b611640565b5b813561176c848260208601611705565b91505092915050565b6000806000806080858703121561178f5761178e61121e565b5b600061179d8782880161162b565b94505060206117ae8782880161123f565b935050604085013567ffffffffffffffff8111156117cf576117ce611223565b5b6117db87828801611747565b925050606085013567ffffffffffffffff8111156117fc576117fb611223565b5b61180887828801611747565b91505092959194509250565b6000806040838503121561182b5761182a61121e565b5b600083013567ffffffffffffffff81111561184957611848611223565b5b61185585828601611747565b92505060206118668582860161123f565b9150509250929050565b60008115159050919050565b61188581611870565b82525050565b60006020820190506118a0600083018461187c565b92915050565b7f4e487b7100000000000000000000000000000000000000000000000000000000600052602260045260246000fd5b600060028204905060018216806118ed57607f821691505b60208210811415611901576119006118a6565b5b50919050565b7f4e487b7100000000000000000000000000000000000000000000000000000000600052603260045260246000fd5b7f566f74696e6720686173206e6f742073746172746564207965742e0000000000600082015250565b600061196c601b836113f5565b915061197782611936565b602082019050919050565b6000602082019050818103600083015261199b8161195f565b9050919050565b7f4e487b7100000000000000000000000000000000000000000000000000000000600052601160045260246000fd5b60006119dc82610ff0565b91506119e783610ff0565b9250828210156119fa576119f96119a2565b5b828203905092915050565b7f496e76616c6964206576656e7420696e64657800000000000000000000000000600082015250565b6000611a3b6013836113f5565b9150611a4682611a05565b602082019050919050565b60006020820190508181036000830152611a6a81611a2e565b9050919050565b7f566f7465722068617320616c726561647920766f74656420696e20746869732060008201527f6576656e74000000000000000000000000000000000000000000000000000000602082015250565b6000611acd6025836113f5565b9150611ad882611a71565b604082019050919050565b60006020820190508181036000830152611afc81611ac0565b9050919050565b6000611b0e82610ff0565b91507fffffffffffffffffffffffffffffffffffffffffffffffffffffffffffffffff821415611b4157611b406119a2565b5b600182019050919050565b6000611b5782610ff0565b9150611b6283610ff0565b9250827fffffffffffffffffffffffffffffffffffffffffffffffffffffffffffffffff03821115611b9757611b966119a2565b5b828201905092915050565b6000819050919050565b6000611bc7611bc2611bbd84610faf565b611ba2565b610faf565b9050919050565b6000611bd982611bac565b9050919050565b6000611beb82611bce565b9050919050565b611bfb81611be0565b82525050565b600060c082019050611c16600083018961143f565b611c236020830188611bf2565b611c3060408301876111ea565b8181036060830152611c428186611406565b9050611c5160808301856111ea565b81810360a0830152611c638184611406565b9050979650505050505050565b6000611c7b82610ff0565b9150611c8683610ff0565b9250817fffffffffffffffffffffffffffffffffffffffffffffffffffffffffffffffff0483118215151615611cbf57611cbe6119a2565b5b82820290509291505056fea264697066735822122085a92349a773594d75464b979076babc6e607daef8578f927a266a0ce2345b2964736f6c63430008090033",
  "immutableReferences": {},
  "source": "// SPDX-License-Identifier: UNLICENSED\r\n\r\npragma solidity ^0.8.9;\r\n\r\ncontract Transactions {\r\n\r\n    //Transaction\r\n    uint256 transactionCount;\r\n\r\n    event Transfer(address from, address receiver, uint amount, string message, uint256 timestamp, string keyword);\r\n  \r\n    struct TransferStruct {\r\n        address sender;\r\n        address receiver;\r\n        uint amount;\r\n        string message;\r\n        uint256 timestamp;\r\n        string keyword;\r\n    }\r\n\r\n    TransferStruct[] transactions;\r\n\r\n    function addToBlockchain(address payable receiver, uint amount, string memory message,string memory keyword) public {\r\n        transactionCount += 1;\r\n        transactions.push(TransferStruct(msg.sender, receiver, amount, message, block.timestamp, keyword));\r\n\r\n        emit Transfer(msg.sender, receiver, amount, message, block.timestamp, keyword);\r\n    }\r\n\r\n    function getAllTransactions() public view returns (TransferStruct[] memory) {\r\n        return transactions;\r\n    }\r\n\r\n    function getTransactionCount() public view returns (uint256) {\r\n        return transactionCount;\r\n    }\r\n\r\n\r\n    //Voting\r\n    struct Candidate {\r\n        string name;\r\n        uint256 voteCount;\r\n        uint _eventIndex;\r\n    }\r\n\r\n    struct VotingEvent {\r\n        string name;\r\n        uint256 votingStart;\r\n        uint256 votingEnd;\r\n        address owner;\r\n        uint id;\r\n    }\r\n    struct VoterAndEvents {\r\n        address voter_address;\r\n        uint[] _eventIndex;\r\n    }\r\n    mapping(address => VoterAndEvents) voters;\r\n    Candidate[] candidates;\r\n    uint256 eventCount;\r\n    VotingEvent[] public votingEvents;\r\n\r\n    function addEvent(\r\n        string memory _name,\r\n        uint256 _durationInMinutes\r\n    ) public {\r\n        eventCount += 1;\r\n        votingEvents.push(\r\n            VotingEvent({\r\n                name: _name,\r\n                votingStart: block.timestamp,\r\n                votingEnd: block.timestamp + (_durationInMinutes * 1 minutes),\r\n                owner: msg.sender,\r\n                id: eventCount\r\n            })\r\n        );\r\n    }\r\n\r\n    function addCandidate(\r\n        string memory _candidateName,\r\n        uint _eventIndex\r\n    ) public {\r\n        candidates.push(Candidate(_candidateName,0,_eventIndex));\r\n    }\r\n\r\n    function vote(uint256 _candidateIndex, uint _eventIndex) public {\r\n        require(_eventIndex < votingEvents.length, \"Invalid event index\");\r\n        require(\r\n            voters[msg.sender]._eventIndex.length == 0 ||\r\n                !contains(voters[msg.sender]._eventIndex, _eventIndex),\r\n            \"Voter has already voted in this event\"\r\n        );\r\n\r\n        candidates[_candidateIndex].voteCount++;\r\n        voters[msg.sender]._eventIndex.push(_eventIndex);\r\n    }\r\n\r\n    function contains(\r\n        uint[] memory arr,\r\n        uint element\r\n    ) private pure returns (bool) {\r\n        for (uint i = 0; i < arr.length; i++) {\r\n            if (arr[i] == element) {\r\n                return true;\r\n            }\r\n        }\r\n        return false;\r\n    }\r\n\r\n    function getAllEvents () public view returns (VotingEvent[] memory){\r\n        return votingEvents;\r\n    }\r\n\r\n    function getAllCandiates() public view returns (Candidate[] memory) {\r\n        return candidates;\r\n    }\r\n\r\n    function getVotingStatusOfEvent(\r\n        uint256 _eventIndex\r\n    ) public view returns (bool) {\r\n        return (block.timestamp >= votingEvents[_eventIndex].votingStart &&\r\n            block.timestamp < votingEvents[_eventIndex].votingEnd);\r\n    }\r\n\r\n    function getRemainingTimeOfEvent(\r\n        uint256 _eventIndex\r\n    ) public view returns (uint256) {\r\n        require(\r\n            block.timestamp >= votingEvents[_eventIndex].votingStart,\r\n            \"Voting has not started yet.\"\r\n        );\r\n        if (block.timestamp >= votingEvents[_eventIndex].votingEnd) {\r\n            return 0;\r\n        }\r\n        return votingEvents[_eventIndex].votingEnd - block.timestamp;\r\n    }\r\n}",
  "sourcePath": "C:\\Users\\Le Quoc Tuan\\OneDrive\\Documents\\Blockchains\\project2\\client\\contracts\\Transactions.sol",
  "compiler": {
    "name": "solc",
    "version": "0.8.9+commit.e5eed63a.Emscripten.clang"
  },
  "schemaVersion": "3.4.7",
  "updatedAt": "2023-04-28T07:15:27.205Z",
  "networkType": "ethereum",
  "devdoc": {
    "kind": "dev",
    "methods": {},
    "version": 1
  },
  "userdoc": {
    "kind": "user",
    "methods": {},
    "version": 1
  }
}