{
  "contractName": "Voting",
  "abi": [
    {
      "inputs": [
        {
          "internalType": "uint256",
          "name": "",
          "type": "uint256"
        }
      ],
      "name": "eventAndCandidate",
      "outputs": [
        {
          "internalType": "uint256",
          "name": "_eventIndex",
          "type": "uint256"
        }
      ],
      "stateMutability": "view",
      "type": "function",
      "constant": true
    },
    {
      "inputs": [
        {
          "internalType": "uint256",
          "name": "",
          "type": "uint256"
        }
      ],
      "name": "votingEvents",
      "outputs": [
        {
          "internalType": "string",
          "name": "name",
          "type": "string"
        },
        {
          "internalType": "uint256",
          "name": "votingStart",
          "type": "uint256"
        },
        {
          "internalType": "uint256",
          "name": "votingEnd",
          "type": "uint256"
        },
        {
          "internalType": "address",
          "name": "owner",
          "type": "address"
        },
        {
          "internalType": "uint256",
          "name": "id",
          "type": "uint256"
        }
      ],
      "stateMutability": "view",
      "type": "function",
      "constant": true
    },
    {
      "inputs": [
        {
          "internalType": "string",
          "name": "_name",
          "type": "string"
        },
        {
          "internalType": "uint256",
          "name": "votingStart",
          "type": "uint256"
        },
        {
          "internalType": "uint256",
          "name": "votingEnd",
          "type": "uint256"
        }
      ],
      "name": "addEvent",
      "outputs": [],
      "stateMutability": "nonpayable",
      "type": "function"
    },
    {
      "inputs": [
        {
          "internalType": "string",
          "name": "_name",
          "type": "string"
        },
        {
          "internalType": "uint256",
          "name": "_eventIndex",
          "type": "uint256"
        }
      ],
      "name": "addCandidateToEvent",
      "outputs": [],
      "stateMutability": "nonpayable",
      "type": "function"
    },
    {
      "inputs": [
        {
          "internalType": "uint256",
          "name": "_candidateIndex",
          "type": "uint256"
        },
        {
          "internalType": "uint256",
          "name": "_eventIndex",
          "type": "uint256"
        }
      ],
      "name": "vote",
      "outputs": [],
      "stateMutability": "nonpayable",
      "type": "function"
    },
    {
      "inputs": [
        {
          "internalType": "uint256",
          "name": "_eventIndex",
          "type": "uint256"
        }
      ],
      "name": "getAllVotesOfCandiatesOfEvent",
      "outputs": [
        {
          "components": [
            {
              "internalType": "string",
              "name": "name",
              "type": "string"
            },
            {
              "internalType": "uint256",
              "name": "voteCount",
              "type": "uint256"
            }
          ],
          "internalType": "struct Voting.Candidate[]",
          "name": "",
          "type": "tuple[]"
        }
      ],
      "stateMutability": "view",
      "type": "function",
      "constant": true
    },
    {
      "inputs": [
        {
          "internalType": "uint256",
          "name": "_eventIndex",
          "type": "uint256"
        }
      ],
      "name": "getVotingStatusOfEvent",
      "outputs": [
        {
          "internalType": "bool",
          "name": "",
          "type": "bool"
        }
      ],
      "stateMutability": "view",
      "type": "function",
      "constant": true
    },
    {
      "inputs": [
        {
          "internalType": "uint256",
          "name": "_eventIndex",
          "type": "uint256"
        }
      ],
      "name": "getRemainingTimeOfEvent",
      "outputs": [
        {
          "internalType": "uint256",
          "name": "",
          "type": "uint256"
        }
      ],
      "stateMutability": "view",
      "type": "function",
      "constant": true
    }
  ],
  "bytecode": "0x608060405234801561001057600080fd5b506114e9806100206000396000f3fe608060405234801561001057600080fd5b50600436106100885760003560e01c8063bf9b48a71161005b578063bf9b48a714610125578063e42643a014610159578063ea81712014610175578063f0c27aa5146101a557610088565b8063512e3dfd1461008d57806390eb4f45146100bd578063a16462c3146100ed578063b384abef14610109575b600080fd5b6100a760048036038101906100a29190610bd0565b6101d5565b6040516100b49190610c0c565b60405180910390f35b6100d760048036038101906100d29190610bd0565b6102ad565b6040516100e49190610dce565b60405180910390f35b61010760048036038101906101029190610f25565b6103cd565b005b610123600480360381019061011e9190610f81565b6104ff565b005b61013f600480360381019061013a9190610bd0565b6107a2565b60405161015095949392919061104c565b60405180910390f35b610173600480360381019061016e91906110a6565b610890565b005b61018f600480360381019061018a9190610bd0565b6109f7565b60405161019c9190610c0c565b60405180910390f35b6101bf60048036038101906101ba9190610bd0565b610a25565b6040516101cc9190611130565b60405180910390f35b6000600382815481106101eb576101ea61114b565b5b90600052602060002090600502016001015442101561023f576040517f08c379a0000000000000000000000000000000000000000000000000000000008152600401610236906111c6565b60405180910390fd5b600382815481106102535761025261114b565b5b906000526020600020906005020160020154421061027457600090506102a8565b42600383815481106102895761028861114b565b5b9060005260206000209060050201600201546102a59190611215565b90505b919050565b6060600182815481106102c3576102c261114b565b5b9060005260206000209060020201600001805480602002602001604051908101604052809291908181526020016000905b828210156103c2578382906000526020600020906002020160405180604001604052908160008201805461032790611278565b80601f016020809104026020016040519081016040528092919081815260200182805461035390611278565b80156103a05780601f10610375576101008083540402835291602001916103a0565b820191906000526020600020905b81548152906001019060200180831161038357829003601f168201915b50505050508152602001600182015481525050815260200190600101906102f4565b505050509050919050565b600460009054906101000a900473ffffffffffffffffffffffffffffffffffffffff1673ffffffffffffffffffffffffffffffffffffffff163373ffffffffffffffffffffffffffffffffffffffff161461042757600080fd5b600180549050811061046e576040517f08c379a0000000000000000000000000000000000000000000000000000000008152600401610465906112f6565b60405180910390fd5b600181815481106104825761048161114b565b5b906000526020600020906002020160000160405180604001604052808481526020016000815250908060018154018082558091505060019003906000526020600020906002020160009091909190915060008201518160000190805190602001906104ee929190610ae3565b506020820151816001015550505050565b6001805490508110610546576040517f08c379a000000000000000000000000000000000000000000000000000000000815260040161053d906112f6565b60405180910390fd5b6001818154811061055a5761055961114b565b5b90600052602060002090600202016000018054905082106105b0576040517f08c379a00000000000000000000000000000000000000000000000000000000081526004016105a790611362565b60405180910390fd5b60008060003373ffffffffffffffffffffffffffffffffffffffff1673ffffffffffffffffffffffffffffffffffffffff16815260200190815260200160002060010180549050148061069957506106976000803373ffffffffffffffffffffffffffffffffffffffff1673ffffffffffffffffffffffffffffffffffffffff16815260200190815260200160002060010180548060200260200160405190810160405280929190818152602001828054801561068c57602002820191906000526020600020905b815481526020019060010190808311610678575b505050505082610a87565b155b6106d8576040517f08c379a00000000000000000000000000000000000000000000000000000000081526004016106cf906113f4565b60405180910390fd5b600181815481106106ec576106eb61114b565b5b9060005260206000209060020201600001828154811061070f5761070e61114b565b5b9060005260206000209060020201600101600081548092919061073190611414565b91905055506000803373ffffffffffffffffffffffffffffffffffffffff1673ffffffffffffffffffffffffffffffffffffffff1681526020019081526020016000206001018190806001815401808255809150506001900390600052602060002001600090919091909150555050565b600381815481106107b257600080fd5b90600052602060002090600502016000915090508060000180546107d590611278565b80601f016020809104026020016040519081016040528092919081815260200182805461080190611278565b801561084e5780601f106108235761010080835404028352916020019161084e565b820191906000526020600020905b81548152906001019060200180831161083157829003601f168201915b5050505050908060010154908060020154908060030160009054906101000a900473ffffffffffffffffffffffffffffffffffffffff16908060040154905085565b600460009054906101000a900473ffffffffffffffffffffffffffffffffffffffff1673ffffffffffffffffffffffffffffffffffffffff163373ffffffffffffffffffffffffffffffffffffffff16146108ea57600080fd5b6001600260008282546108fd919061145d565b9250508190555060036040518060a001604052808581526020018481526020018381526020013373ffffffffffffffffffffffffffffffffffffffff1681526020016002548152509080600181540180825580915050600190039060005260206000209060050201600090919091909150600082015181600001908051906020019061098a929190610ae3565b50602082015181600101556040820151816002015560608201518160030160006101000a81548173ffffffffffffffffffffffffffffffffffffffff021916908373ffffffffffffffffffffffffffffffffffffffff160217905550608082015181600401555050505050565b60018181548110610a0757600080fd5b90600052602060002090600202016000915090508060010154905081565b600060038281548110610a3b57610a3a61114b565b5b9060005260206000209060050201600101544210158015610a80575060038281548110610a6b57610a6a61114b565b5b90600052602060002090600502016002015442105b9050919050565b600080600090505b8351811015610ad75782848281518110610aac57610aab61114b565b5b60200260200101511415610ac4576001915050610add565b8080610acf90611414565b915050610a8f565b50600090505b92915050565b828054610aef90611278565b90600052602060002090601f016020900481019282610b115760008555610b58565b82601f10610b2a57805160ff1916838001178555610b58565b82800160010185558215610b58579182015b82811115610b57578251825591602001919060010190610b3c565b5b509050610b659190610b69565b5090565b5b80821115610b82576000816000905550600101610b6a565b5090565b6000604051905090565b600080fd5b600080fd5b6000819050919050565b610bad81610b9a565b8114610bb857600080fd5b50565b600081359050610bca81610ba4565b92915050565b600060208284031215610be657610be5610b90565b5b6000610bf484828501610bbb565b91505092915050565b610c0681610b9a565b82525050565b6000602082019050610c216000830184610bfd565b92915050565b600081519050919050565b600082825260208201905092915050565b6000819050602082019050919050565b600081519050919050565b600082825260208201905092915050565b60005b83811015610c8d578082015181840152602081019050610c72565b83811115610c9c576000848401525b50505050565b6000601f19601f8301169050919050565b6000610cbe82610c53565b610cc88185610c5e565b9350610cd8818560208601610c6f565b610ce181610ca2565b840191505092915050565b610cf581610b9a565b82525050565b60006040830160008301518482036000860152610d188282610cb3565b9150506020830151610d2d6020860182610cec565b508091505092915050565b6000610d448383610cfb565b905092915050565b6000602082019050919050565b6000610d6482610c27565b610d6e8185610c32565b935083602082028501610d8085610c43565b8060005b85811015610dbc5784840389528151610d9d8582610d38565b9450610da883610d4c565b925060208a01995050600181019050610d84565b50829750879550505050505092915050565b60006020820190508181036000830152610de88184610d59565b905092915050565b600080fd5b600080fd5b7f4e487b7100000000000000000000000000000000000000000000000000000000600052604160045260246000fd5b610e3282610ca2565b810181811067ffffffffffffffff82111715610e5157610e50610dfa565b5b80604052505050565b6000610e64610b86565b9050610e708282610e29565b919050565b600067ffffffffffffffff821115610e9057610e8f610dfa565b5b610e9982610ca2565b9050602081019050919050565b82818337600083830152505050565b6000610ec8610ec384610e75565b610e5a565b905082815260208101848484011115610ee457610ee3610df5565b5b610eef848285610ea6565b509392505050565b600082601f830112610f0c57610f0b610df0565b5b8135610f1c848260208601610eb5565b91505092915050565b60008060408385031215610f3c57610f3b610b90565b5b600083013567ffffffffffffffff811115610f5a57610f59610b95565b5b610f6685828601610ef7565b9250506020610f7785828601610bbb565b9150509250929050565b60008060408385031215610f9857610f97610b90565b5b6000610fa685828601610bbb565b9250506020610fb785828601610bbb565b9150509250929050565b600082825260208201905092915050565b6000610fdd82610c53565b610fe78185610fc1565b9350610ff7818560208601610c6f565b61100081610ca2565b840191505092915050565b600073ffffffffffffffffffffffffffffffffffffffff82169050919050565b60006110368261100b565b9050919050565b6110468161102b565b82525050565b600060a08201905081810360008301526110668188610fd2565b90506110756020830187610bfd565b6110826040830186610bfd565b61108f606083018561103d565b61109c6080830184610bfd565b9695505050505050565b6000806000606084860312156110bf576110be610b90565b5b600084013567ffffffffffffffff8111156110dd576110dc610b95565b5b6110e986828701610ef7565b93505060206110fa86828701610bbb565b925050604061110b86828701610bbb565b9150509250925092565b60008115159050919050565b61112a81611115565b82525050565b60006020820190506111456000830184611121565b92915050565b7f4e487b7100000000000000000000000000000000000000000000000000000000600052603260045260246000fd5b7f566f74696e6720686173206e6f742073746172746564207965742e0000000000600082015250565b60006111b0601b83610fc1565b91506111bb8261117a565b602082019050919050565b600060208201905081810360008301526111df816111a3565b9050919050565b7f4e487b7100000000000000000000000000000000000000000000000000000000600052601160045260246000fd5b600061122082610b9a565b915061122b83610b9a565b92508282101561123e5761123d6111e6565b5b828203905092915050565b7f4e487b7100000000000000000000000000000000000000000000000000000000600052602260045260246000fd5b6000600282049050600182168061129057607f821691505b602082108114156112a4576112a3611249565b5b50919050565b7f496e76616c6964206576656e7420696e64657800000000000000000000000000600082015250565b60006112e0601383610fc1565b91506112eb826112aa565b602082019050919050565b6000602082019050818103600083015261130f816112d3565b9050919050565b7f496e76616c69642063616e64696461746520696e646578000000000000000000600082015250565b600061134c601783610fc1565b915061135782611316565b602082019050919050565b6000602082019050818103600083015261137b8161133f565b9050919050565b7f566f7465722068617320616c726561647920766f74656420696e20746869732060008201527f6576656e74000000000000000000000000000000000000000000000000000000602082015250565b60006113de602583610fc1565b91506113e982611382565b604082019050919050565b6000602082019050818103600083015261140d816113d1565b9050919050565b600061141f82610b9a565b91507fffffffffffffffffffffffffffffffffffffffffffffffffffffffffffffffff821415611452576114516111e6565b5b600182019050919050565b600061146882610b9a565b915061147383610b9a565b9250827fffffffffffffffffffffffffffffffffffffffffffffffffffffffffffffffff038211156114a8576114a76111e6565b5b82820190509291505056fea264697066735822122000a63e4ab82dc2dfd98ca8ad076a3a67f88616fb9a6c6484f43bd9489731060564736f6c63430008090033",
  "immutableReferences": {},
  "source": "// SPDX-License-Identifier: UNLICENSED\r\npragma solidity ^0.8.9;\r\n\r\ncontract Voting {\r\n    struct Candidate {\r\n        string name;\r\n        uint256 voteCount;\r\n    }\r\n\r\n    struct VotingEvent {\r\n        string name;\r\n        uint256 votingStart;\r\n        uint256 votingEnd;\r\n        address owner;\r\n        uint id;\r\n    }\r\n\r\n    struct EventsAndCandidate {\r\n        Candidate[] candidates;\r\n        uint _eventIndex;\r\n    }\r\n\r\n    struct EventsAndVoters {\r\n        address voter_address;\r\n        uint[] _eventIndex;\r\n    }\r\n    mapping(address => EventsAndVoters) voters;\r\n    EventsAndCandidate[] public eventAndCandidate;\r\n\r\n    uint256 eventCount;\r\n\r\n    VotingEvent[] public votingEvents;\r\n    address owner;\r\n\r\n    modifier onlyOwner() {\r\n        require(msg.sender == owner);\r\n        _;\r\n    }\r\n\r\n    function addEvent(\r\n        string memory _name,\r\n        uint256 votingStart,\r\n        uint256 votingEnd\r\n    ) public onlyOwner {\r\n        eventCount += 1;\r\n        votingEvents.push(\r\n            VotingEvent({\r\n                name: _name,\r\n                votingStart: votingStart,\r\n                votingEnd: votingEnd,\r\n                owner: msg.sender,\r\n                id: eventCount\r\n            })\r\n        );\r\n    }\r\n\r\n    function addCandidateToEvent(\r\n        string memory _name,\r\n        uint _eventIndex\r\n    ) public onlyOwner {\r\n        require(_eventIndex < eventAndCandidate.length, \"Invalid event index\");\r\n        eventAndCandidate[_eventIndex].candidates.push(\r\n            Candidate({name: _name, voteCount: 0})\r\n        );\r\n    }\r\n\r\n    function vote(uint256 _candidateIndex, uint _eventIndex) public {\r\n        require(_eventIndex < eventAndCandidate.length, \"Invalid event index\");\r\n        require(\r\n            _candidateIndex < eventAndCandidate[_eventIndex].candidates.length,\r\n            \"Invalid candidate index\"\r\n        );\r\n        require(\r\n            voters[msg.sender]._eventIndex.length == 0 ||\r\n                !contains(voters[msg.sender]._eventIndex, _eventIndex),\r\n            \"Voter has already voted in this event\"\r\n        );\r\n\r\n        eventAndCandidate[_eventIndex].candidates[_candidateIndex].voteCount++;\r\n        voters[msg.sender]._eventIndex.push(_eventIndex);\r\n    }\r\n\r\n    function contains(\r\n        uint[] memory arr,\r\n        uint element\r\n    ) private pure returns (bool) {\r\n        for (uint i = 0; i < arr.length; i++) {\r\n            if (arr[i] == element) {\r\n                return true;\r\n            }\r\n        }\r\n        return false;\r\n    }\r\n\r\n    function getAllVotesOfCandiatesOfEvent(\r\n        uint256 _eventIndex\r\n    ) public view returns (Candidate[] memory) {\r\n        return eventAndCandidate[_eventIndex].candidates;\r\n    }\r\n\r\n    function getVotingStatusOfEvent(\r\n        uint256 _eventIndex\r\n    ) public view returns (bool) {\r\n        return (block.timestamp >= votingEvents[_eventIndex].votingStart &&\r\n            block.timestamp < votingEvents[_eventIndex].votingEnd);\r\n    }\r\n\r\n    function getRemainingTimeOfEvent(\r\n        uint256 _eventIndex\r\n    ) public view returns (uint256) {\r\n        require(\r\n            block.timestamp >= votingEvents[_eventIndex].votingStart,\r\n            \"Voting has not started yet.\"\r\n        );\r\n        if (block.timestamp >= votingEvents[_eventIndex].votingEnd) {\r\n            return 0;\r\n        }\r\n        return votingEvents[_eventIndex].votingEnd - block.timestamp;\r\n    }\r\n}\r\n",
  "sourcePath": "C:\\Users\\Le Quoc Tuan\\OneDrive\\Documents\\Blockchains\\project2\\client\\contracts\\Voting.sol",
  "compiler": {
    "name": "solc",
    "version": "0.8.9+commit.e5eed63a.Emscripten.clang"
  },
  "schemaVersion": "3.4.7",
  "updatedAt": "2023-04-25T12:34:50.084Z",
  "networkType": "ethereum",
  "devdoc": {
    "kind": "dev",
    "methods": {},
    "version": 1
  },
  "userdoc": {
    "kind": "user",
    "methods": {},
    "version": 1
  }
}