{
  "contractName": "Voting",
  "abi": [
    {
      "inputs": [
        {
          "internalType": "uint256",
          "name": "",
          "type": "uint256"
        }
      ],
      "name": "votingEvents",
      "outputs": [
        {
          "internalType": "string",
          "name": "name",
          "type": "string"
        },
        {
          "internalType": "uint256",
          "name": "votingStart",
          "type": "uint256"
        },
        {
          "internalType": "uint256",
          "name": "votingEnd",
          "type": "uint256"
        },
        {
          "internalType": "address",
          "name": "owner",
          "type": "address"
        },
        {
          "internalType": "uint256",
          "name": "id",
          "type": "uint256"
        }
      ],
      "stateMutability": "view",
      "type": "function",
      "constant": true
    },
    {
      "inputs": [
        {
          "internalType": "string",
          "name": "_name",
          "type": "string"
        },
        {
          "internalType": "uint256",
          "name": "_durationInMinutes",
          "type": "uint256"
        }
      ],
      "name": "addEvent",
      "outputs": [],
      "stateMutability": "nonpayable",
      "type": "function"
    },
    {
      "inputs": [
        {
          "internalType": "string",
          "name": "_candidateName",
          "type": "string"
        },
        {
          "internalType": "string",
          "name": "_userIndex",
          "type": "string"
        },
        {
          "internalType": "uint256",
          "name": "_eventIndex",
          "type": "uint256"
        }
      ],
      "name": "addCandidate",
      "outputs": [],
      "stateMutability": "nonpayable",
      "type": "function"
    },
    {
      "inputs": [
        {
          "internalType": "uint256",
          "name": "_candidateIndex",
          "type": "uint256"
        },
        {
          "internalType": "uint256",
          "name": "_eventIndex",
          "type": "uint256"
        }
      ],
      "name": "vote",
      "outputs": [],
      "stateMutability": "nonpayable",
      "type": "function"
    },
    {
      "inputs": [],
      "name": "getAllEvents",
      "outputs": [
        {
          "components": [
            {
              "internalType": "string",
              "name": "name",
              "type": "string"
            },
            {
              "internalType": "uint256",
              "name": "votingStart",
              "type": "uint256"
            },
            {
              "internalType": "uint256",
              "name": "votingEnd",
              "type": "uint256"
            },
            {
              "internalType": "address",
              "name": "owner",
              "type": "address"
            },
            {
              "internalType": "uint256",
              "name": "id",
              "type": "uint256"
            }
          ],
          "internalType": "struct Voting.VotingEvent[]",
          "name": "",
          "type": "tuple[]"
        }
      ],
      "stateMutability": "view",
      "type": "function",
      "constant": true
    },
    {
      "inputs": [],
      "name": "getAllCandidates",
      "outputs": [
        {
          "components": [
            {
              "internalType": "string",
              "name": "name",
              "type": "string"
            },
            {
              "internalType": "string",
              "name": "_userIndex",
              "type": "string"
            },
            {
              "internalType": "uint256",
              "name": "voteCount",
              "type": "uint256"
            },
            {
              "internalType": "uint256",
              "name": "_eventIndex",
              "type": "uint256"
            }
          ],
          "internalType": "struct Voting.Candidate[]",
          "name": "",
          "type": "tuple[]"
        }
      ],
      "stateMutability": "view",
      "type": "function",
      "constant": true
    },
    {
      "inputs": [
        {
          "internalType": "uint256",
          "name": "_eventIndex",
          "type": "uint256"
        }
      ],
      "name": "getVotingStatusOfEvent",
      "outputs": [
        {
          "internalType": "bool",
          "name": "",
          "type": "bool"
        }
      ],
      "stateMutability": "view",
      "type": "function",
      "constant": true
    },
    {
      "inputs": [
        {
          "internalType": "uint256",
          "name": "_eventIndex",
          "type": "uint256"
        }
      ],
      "name": "getRemainingTimeOfEvent",
      "outputs": [
        {
          "internalType": "uint256",
          "name": "",
          "type": "uint256"
        }
      ],
      "stateMutability": "view",
      "type": "function",
      "constant": true
    }
  ],
  "bytecode": "0x608060405234801561001057600080fd5b506116b2806100206000396000f3fe608060405234801561001057600080fd5b50600436106100885760003560e01c8063bf9b48a71161005b578063bf9b48a714610113578063c27a500d14610147578063f0c27aa514610165578063f0e1691a1461019557610088565b80632e6997fe1461008d5780633ca09fdf146100ab578063512e3dfd146100c7578063b384abef146100f7575b600080fd5b6100956101b1565b6040516100a29190610d8d565b60405180910390f35b6100c560048036038101906100c09190610f24565b610348565b005b6100e160048036038101906100dc9190610faf565b6103ea565b6040516100ee9190610feb565b60405180910390f35b610111600480360381019061010c9190611006565b6104c2565b005b61012d60048036038101906101289190610faf565b6106d8565b60405161013e9594939291906110d1565b60405180910390f35b61014f6107c6565b60405161015c9190611272565b60405180910390f35b61017f600480360381019061017a9190610faf565b61092b565b60405161018c91906112af565b60405180910390f35b6101af60048036038101906101aa91906112ca565b61098d565b005b60606001805480602002602001604051908101604052809291908181526020016000905b8282101561033f578382906000526020600020906004020160405180608001604052908160008201805461020890611355565b80601f016020809104026020016040519081016040528092919081815260200182805461023490611355565b80156102815780601f1061025657610100808354040283529160200191610281565b820191906000526020600020905b81548152906001019060200180831161026457829003601f168201915b5050505050815260200160018201805461029a90611355565b80601f01602080910402602001604051908101604052809291908181526020018280546102c690611355565b80156103135780601f106102e857610100808354040283529160200191610313565b820191906000526020600020905b8154815290600101906020018083116102f657829003601f168201915b5050505050815260200160028201548152602001600382015481525050815260200190600101906101d5565b50505050905090565b600160405180608001604052808581526020018481526020016000815260200183815250908060018154018082558091505060019003906000526020600020906004020160009091909190915060008201518160000190805190602001906103b1929190610b0c565b5060208201518160010190805190602001906103ce929190610b0c565b5060408201518160020155606082015181600301555050505050565b600060038281548110610400576103ff611387565b5b906000526020600020906005020160010154421015610454576040517f08c379a000000000000000000000000000000000000000000000000000000000815260040161044b90611402565b60405180910390fd5b6003828154811061046857610467611387565b5b906000526020600020906005020160020154421061048957600090506104bd565b426003838154811061049e5761049d611387565b5b9060005260206000209060050201600201546104ba9190611451565b90505b919050565b6003805490508110610509576040517f08c379a0000000000000000000000000000000000000000000000000000000008152600401610500906114d1565b60405180910390fd5b60008060003373ffffffffffffffffffffffffffffffffffffffff1673ffffffffffffffffffffffffffffffffffffffff1681526020019081526020016000206001018054905014806105f257506105f06000803373ffffffffffffffffffffffffffffffffffffffff1673ffffffffffffffffffffffffffffffffffffffff1681526020019081526020016000206001018054806020026020016040519081016040528092919081815260200182805480156105e557602002820191906000526020600020905b8154815260200190600101908083116105d1575b505050505082610ab0565b155b610631576040517f08c379a000000000000000000000000000000000000000000000000000000000815260040161062890611563565b60405180910390fd5b6001828154811061064557610644611387565b5b9060005260206000209060040201600201600081548092919061066790611583565b91905055506000803373ffffffffffffffffffffffffffffffffffffffff1673ffffffffffffffffffffffffffffffffffffffff1681526020019081526020016000206001018190806001815401808255809150506001900390600052602060002001600090919091909150555050565b600381815481106106e857600080fd5b906000526020600020906005020160009150905080600001805461070b90611355565b80601f016020809104026020016040519081016040528092919081815260200182805461073790611355565b80156107845780601f1061075957610100808354040283529160200191610784565b820191906000526020600020905b81548152906001019060200180831161076757829003601f168201915b5050505050908060010154908060020154908060030160009054906101000a900473ffffffffffffffffffffffffffffffffffffffff16908060040154905085565b60606003805480602002602001604051908101604052809291908181526020016000905b8282101561092257838290600052602060002090600502016040518060a001604052908160008201805461081d90611355565b80601f016020809104026020016040519081016040528092919081815260200182805461084990611355565b80156108965780601f1061086b57610100808354040283529160200191610896565b820191906000526020600020905b81548152906001019060200180831161087957829003601f168201915b5050505050815260200160018201548152602001600282015481526020016003820160009054906101000a900473ffffffffffffffffffffffffffffffffffffffff1673ffffffffffffffffffffffffffffffffffffffff1673ffffffffffffffffffffffffffffffffffffffff168152602001600482015481525050815260200190600101906107ea565b50505050905090565b60006003828154811061094157610940611387565b5b906000526020600020906005020160010154421015801561098657506003828154811061097157610970611387565b5b90600052602060002090600502016002015442105b9050919050565b60036040518060a00160405280848152602001428152602001603c846109b391906115cc565b426109be9190611626565b81526020013373ffffffffffffffffffffffffffffffffffffffff16815260200160025481525090806001815401808255809150506001900390600052602060002090600502016000909190919091506000820151816000019080519060200190610a2a929190610b0c565b50602082015181600101556040820151816002015560608201518160030160006101000a81548173ffffffffffffffffffffffffffffffffffffffff021916908373ffffffffffffffffffffffffffffffffffffffff160217905550608082015181600401555050600160026000828254610aa59190611626565b925050819055505050565b600080600090505b8351811015610b005782848281518110610ad557610ad4611387565b5b60200260200101511415610aed576001915050610b06565b8080610af890611583565b915050610ab8565b50600090505b92915050565b828054610b1890611355565b90600052602060002090601f016020900481019282610b3a5760008555610b81565b82601f10610b5357805160ff1916838001178555610b81565b82800160010185558215610b81579182015b82811115610b80578251825591602001919060010190610b65565b5b509050610b8e9190610b92565b5090565b5b80821115610bab576000816000905550600101610b93565b5090565b600081519050919050565b600082825260208201905092915050565b6000819050602082019050919050565b600081519050919050565b600082825260208201905092915050565b60005b83811015610c15578082015181840152602081019050610bfa565b83811115610c24576000848401525b50505050565b6000601f19601f8301169050919050565b6000610c4682610bdb565b610c508185610be6565b9350610c60818560208601610bf7565b610c6981610c2a565b840191505092915050565b6000819050919050565b610c8781610c74565b82525050565b60006080830160008301518482036000860152610caa8282610c3b565b91505060208301518482036020860152610cc48282610c3b565b9150506040830151610cd96040860182610c7e565b506060830151610cec6060860182610c7e565b508091505092915050565b6000610d038383610c8d565b905092915050565b6000602082019050919050565b6000610d2382610baf565b610d2d8185610bba565b935083602082028501610d3f85610bcb565b8060005b85811015610d7b5784840389528151610d5c8582610cf7565b9450610d6783610d0b565b925060208a01995050600181019050610d43565b50829750879550505050505092915050565b60006020820190508181036000830152610da78184610d18565b905092915050565b6000604051905090565b600080fd5b600080fd5b600080fd5b600080fd5b7f4e487b7100000000000000000000000000000000000000000000000000000000600052604160045260246000fd5b610e0582610c2a565b810181811067ffffffffffffffff82111715610e2457610e23610dcd565b5b80604052505050565b6000610e37610daf565b9050610e438282610dfc565b919050565b600067ffffffffffffffff821115610e6357610e62610dcd565b5b610e6c82610c2a565b9050602081019050919050565b82818337600083830152505050565b6000610e9b610e9684610e48565b610e2d565b905082815260208101848484011115610eb757610eb6610dc8565b5b610ec2848285610e79565b509392505050565b600082601f830112610edf57610ede610dc3565b5b8135610eef848260208601610e88565b91505092915050565b610f0181610c74565b8114610f0c57600080fd5b50565b600081359050610f1e81610ef8565b92915050565b600080600060608486031215610f3d57610f3c610db9565b5b600084013567ffffffffffffffff811115610f5b57610f5a610dbe565b5b610f6786828701610eca565b935050602084013567ffffffffffffffff811115610f8857610f87610dbe565b5b610f9486828701610eca565b9250506040610fa586828701610f0f565b9150509250925092565b600060208284031215610fc557610fc4610db9565b5b6000610fd384828501610f0f565b91505092915050565b610fe581610c74565b82525050565b60006020820190506110006000830184610fdc565b92915050565b6000806040838503121561101d5761101c610db9565b5b600061102b85828601610f0f565b925050602061103c85828601610f0f565b9150509250929050565b600082825260208201905092915050565b600061106282610bdb565b61106c8185611046565b935061107c818560208601610bf7565b61108581610c2a565b840191505092915050565b600073ffffffffffffffffffffffffffffffffffffffff82169050919050565b60006110bb82611090565b9050919050565b6110cb816110b0565b82525050565b600060a08201905081810360008301526110eb8188611057565b90506110fa6020830187610fdc565b6111076040830186610fdc565b61111460608301856110c2565b6111216080830184610fdc565b9695505050505050565b600081519050919050565b600082825260208201905092915050565b6000819050602082019050919050565b611160816110b0565b82525050565b600060a08301600083015184820360008601526111838282610c3b565b91505060208301516111986020860182610c7e565b5060408301516111ab6040860182610c7e565b5060608301516111be6060860182611157565b5060808301516111d16080860182610c7e565b508091505092915050565b60006111e88383611166565b905092915050565b6000602082019050919050565b60006112088261112b565b6112128185611136565b93508360208202850161122485611147565b8060005b85811015611260578484038952815161124185826111dc565b945061124c836111f0565b925060208a01995050600181019050611228565b50829750879550505050505092915050565b6000602082019050818103600083015261128c81846111fd565b905092915050565b60008115159050919050565b6112a981611294565b82525050565b60006020820190506112c460008301846112a0565b92915050565b600080604083850312156112e1576112e0610db9565b5b600083013567ffffffffffffffff8111156112ff576112fe610dbe565b5b61130b85828601610eca565b925050602061131c85828601610f0f565b9150509250929050565b7f4e487b7100000000000000000000000000000000000000000000000000000000600052602260045260246000fd5b6000600282049050600182168061136d57607f821691505b6020821081141561138157611380611326565b5b50919050565b7f4e487b7100000000000000000000000000000000000000000000000000000000600052603260045260246000fd5b7f566f74696e6720686173206e6f742073746172746564207965742e0000000000600082015250565b60006113ec601b83611046565b91506113f7826113b6565b602082019050919050565b6000602082019050818103600083015261141b816113df565b9050919050565b7f4e487b7100000000000000000000000000000000000000000000000000000000600052601160045260246000fd5b600061145c82610c74565b915061146783610c74565b92508282101561147a57611479611422565b5b828203905092915050565b7f496e76616c6964206576656e7420696e64657800000000000000000000000000600082015250565b60006114bb601383611046565b91506114c682611485565b602082019050919050565b600060208201905081810360008301526114ea816114ae565b9050919050565b7f566f7465722068617320616c726561647920766f74656420696e20746869732060008201527f6576656e74000000000000000000000000000000000000000000000000000000602082015250565b600061154d602583611046565b9150611558826114f1565b604082019050919050565b6000602082019050818103600083015261157c81611540565b9050919050565b600061158e82610c74565b91507fffffffffffffffffffffffffffffffffffffffffffffffffffffffffffffffff8214156115c1576115c0611422565b5b600182019050919050565b60006115d782610c74565b91506115e283610c74565b9250817fffffffffffffffffffffffffffffffffffffffffffffffffffffffffffffffff048311821515161561161b5761161a611422565b5b828202905092915050565b600061163182610c74565b915061163c83610c74565b9250827fffffffffffffffffffffffffffffffffffffffffffffffffffffffffffffffff0382111561167157611670611422565b5b82820190509291505056fea264697066735822122021e45742bd28cd96549ba83630d73766657d32a61f80054691e78615edc0ed3264736f6c63430008090033",
  "immutableReferences": {},
  "source": "// SPDX-License-Identifier: UNLICENSED\r\n\r\npragma solidity ^0.8.9;\r\n\r\ncontract Voting{\r\n        //Voting\r\n    struct Candidate {\r\n        string name;\r\n        string _userIndex;\r\n        uint256 voteCount;\r\n        uint _eventIndex;\r\n    }\r\n\r\n    struct VotingEvent {\r\n        string name;\r\n        uint256 votingStart;\r\n        uint256 votingEnd;\r\n        address owner;\r\n        uint id;\r\n    }\r\n    struct VoterAndEvents {\r\n        address voter_address;\r\n        uint[] _eventIndex;\r\n    }\r\n    mapping(address => VoterAndEvents) voters;\r\n    Candidate[] candidates;\r\n    uint256 eventCount;\r\n    VotingEvent[] public votingEvents;\r\n\r\n    function addEvent(\r\n        string memory _name,\r\n        uint256 _durationInMinutes\r\n    ) public {\r\n        votingEvents.push(\r\n            VotingEvent({\r\n                name: _name,\r\n                votingStart: block.timestamp,\r\n                votingEnd: block.timestamp + (_durationInMinutes * 1 minutes),\r\n                owner: msg.sender,\r\n                id: eventCount\r\n            })\r\n        );\r\n        eventCount += 1;\r\n    }\r\n\r\n    function addCandidate(\r\n        string memory _candidateName,\r\n        string memory _userIndex,\r\n        uint _eventIndex\r\n    ) public {\r\n        candidates.push(Candidate(_candidateName,_userIndex,0,_eventIndex));\r\n    }\r\n\r\n    function vote(uint256 _candidateIndex, uint _eventIndex) public {\r\n        require(_eventIndex < votingEvents.length, \"Invalid event index\");\r\n        require(\r\n            voters[msg.sender]._eventIndex.length == 0 ||\r\n                !contains(voters[msg.sender]._eventIndex, _eventIndex),\r\n            \"Voter has already voted in this event\"\r\n        );\r\n\r\n        candidates[_candidateIndex].voteCount++;\r\n        voters[msg.sender]._eventIndex.push(_eventIndex);\r\n    }\r\n\r\n    function contains(\r\n        uint[] memory arr,\r\n        uint element\r\n    ) private pure returns (bool) {\r\n        for (uint i = 0; i < arr.length; i++) {\r\n            if (arr[i] == element) {\r\n                return true;\r\n            }\r\n        }\r\n        return false;\r\n    }\r\n\r\n    function getAllEvents () public view returns (VotingEvent[] memory){\r\n        return votingEvents;\r\n    }\r\n\r\n    function getAllCandidates() public view returns (Candidate[] memory) {\r\n        return candidates;\r\n    }\r\n\r\n    function getVotingStatusOfEvent(\r\n        uint256 _eventIndex\r\n    ) public view returns (bool) {\r\n        return (block.timestamp >= votingEvents[_eventIndex].votingStart &&\r\n            block.timestamp < votingEvents[_eventIndex].votingEnd);\r\n    }\r\n\r\n    function getRemainingTimeOfEvent(\r\n        uint256 _eventIndex\r\n    ) public view returns (uint256) {\r\n        require(\r\n            block.timestamp >= votingEvents[_eventIndex].votingStart,\r\n            \"Voting has not started yet.\"\r\n        );\r\n        if (block.timestamp >= votingEvents[_eventIndex].votingEnd) {\r\n            return 0;\r\n        }\r\n        return votingEvents[_eventIndex].votingEnd - block.timestamp;\r\n    }\r\n}",
  "sourcePath": "C:\\Users\\Le Quoc Tuan\\OneDrive\\Documents\\Blockchains\\project2\\client\\contracts\\Voting.sol",
  "compiler": {
    "name": "solc",
    "version": "0.8.9+commit.e5eed63a.Emscripten.clang"
  },
  "schemaVersion": "3.4.7",
  "updatedAt": "2023-07-16T10:47:20.442Z",
  "networkType": "ethereum",
  "devdoc": {
    "kind": "dev",
    "methods": {},
    "version": 1
  },
  "userdoc": {
    "kind": "user",
    "methods": {},
    "version": 1
  }
}