{
  "contractName": "Voting",
  "abi": [
    {
      "inputs": [
        {
          "internalType": "uint256",
          "name": "",
          "type": "uint256"
        }
      ],
      "name": "eventAndCandidate",
      "outputs": [
        {
          "internalType": "uint256",
          "name": "_eventIndex",
          "type": "uint256"
        }
      ],
      "stateMutability": "view",
      "type": "function",
      "constant": true
    },
    {
      "inputs": [
        {
          "internalType": "uint256",
          "name": "",
          "type": "uint256"
        }
      ],
      "name": "votingEvents",
      "outputs": [
        {
          "internalType": "string",
          "name": "name",
          "type": "string"
        },
        {
          "internalType": "uint256",
          "name": "votingStart",
          "type": "uint256"
        },
        {
          "internalType": "uint256",
          "name": "votingEnd",
          "type": "uint256"
        },
        {
          "internalType": "address",
          "name": "owner",
          "type": "address"
        },
        {
          "internalType": "uint256",
          "name": "id",
          "type": "uint256"
        }
      ],
      "stateMutability": "view",
      "type": "function",
      "constant": true
    },
    {
      "inputs": [
        {
          "internalType": "string",
          "name": "_name",
          "type": "string"
        },
        {
          "internalType": "uint256",
          "name": "votingStart",
          "type": "uint256"
        },
        {
          "internalType": "uint256",
          "name": "votingEnd",
          "type": "uint256"
        }
      ],
      "name": "addEvent",
      "outputs": [],
      "stateMutability": "nonpayable",
      "type": "function"
    },
    {
      "inputs": [
        {
          "internalType": "string",
          "name": "_name",
          "type": "string"
        },
        {
          "internalType": "uint256",
          "name": "_eventIndex",
          "type": "uint256"
        }
      ],
      "name": "addCandidateToEvent",
      "outputs": [],
      "stateMutability": "nonpayable",
      "type": "function"
    },
    {
      "inputs": [
        {
          "internalType": "uint256",
          "name": "_candidateIndex",
          "type": "uint256"
        },
        {
          "internalType": "uint256",
          "name": "_eventIndex",
          "type": "uint256"
        }
      ],
      "name": "vote",
      "outputs": [],
      "stateMutability": "nonpayable",
      "type": "function"
    },
    {
      "inputs": [],
      "name": "getAllEvents",
      "outputs": [
        {
          "components": [
            {
              "internalType": "string",
              "name": "name",
              "type": "string"
            },
            {
              "internalType": "uint256",
              "name": "votingStart",
              "type": "uint256"
            },
            {
              "internalType": "uint256",
              "name": "votingEnd",
              "type": "uint256"
            },
            {
              "internalType": "address",
              "name": "owner",
              "type": "address"
            },
            {
              "internalType": "uint256",
              "name": "id",
              "type": "uint256"
            }
          ],
          "internalType": "struct Voting.VotingEvent[]",
          "name": "",
          "type": "tuple[]"
        }
      ],
      "stateMutability": "view",
      "type": "function",
      "constant": true
    },
    {
      "inputs": [
        {
          "internalType": "uint256",
          "name": "_eventIndex",
          "type": "uint256"
        }
      ],
      "name": "getAllCandiatesOfEvent",
      "outputs": [
        {
          "components": [
            {
              "internalType": "string",
              "name": "name",
              "type": "string"
            },
            {
              "internalType": "uint256",
              "name": "voteCount",
              "type": "uint256"
            }
          ],
          "internalType": "struct Voting.Candidate[]",
          "name": "",
          "type": "tuple[]"
        }
      ],
      "stateMutability": "view",
      "type": "function",
      "constant": true
    },
    {
      "inputs": [
        {
          "internalType": "uint256",
          "name": "_eventIndex",
          "type": "uint256"
        }
      ],
      "name": "getVotingStatusOfEvent",
      "outputs": [
        {
          "internalType": "bool",
          "name": "",
          "type": "bool"
        }
      ],
      "stateMutability": "view",
      "type": "function",
      "constant": true
    },
    {
      "inputs": [
        {
          "internalType": "uint256",
          "name": "_eventIndex",
          "type": "uint256"
        }
      ],
      "name": "getRemainingTimeOfEvent",
      "outputs": [
        {
          "internalType": "uint256",
          "name": "",
          "type": "uint256"
        }
      ],
      "stateMutability": "view",
      "type": "function",
      "constant": true
    }
  ],
  "bytecode": "0x608060405234801561001057600080fd5b506117e0806100206000396000f3fe608060405234801561001057600080fd5b50600436106100935760003560e01c8063bf9b48a711610066578063bf9b48a714610130578063c27a500d14610164578063e42643a014610182578063ea8171201461019e578063f0c27aa5146101ce57610093565b806339a8353a14610098578063512e3dfd146100c8578063a16462c3146100f8578063b384abef14610114575b600080fd5b6100b260048036038101906100ad9190610d5e565b6101fe565b6040516100bf9190610f32565b60405180910390f35b6100e260048036038101906100dd9190610d5e565b61031e565b6040516100ef9190610f63565b60405180910390f35b610112600480360381019061010d91906110b3565b6103f6565b005b61012e6004803603810190610129919061110f565b610528565b005b61014a60048036038101906101459190610d5e565b6107cb565b60405161015b9594939291906111da565b60405180910390f35b61016c6108b9565b604051610179919061137b565b60405180910390f35b61019c6004803603810190610197919061139d565b610a1e565b005b6101b860048036038101906101b39190610d5e565b610b85565b6040516101c59190610f63565b60405180910390f35b6101e860048036038101906101e39190610d5e565b610bb3565b6040516101f59190611427565b60405180910390f35b60606001828154811061021457610213611442565b5b9060005260206000209060020201600001805480602002602001604051908101604052809291908181526020016000905b828210156103135783829060005260206000209060020201604051806040016040529081600082018054610278906114a0565b80601f01602080910402602001604051908101604052809291908181526020018280546102a4906114a0565b80156102f15780601f106102c6576101008083540402835291602001916102f1565b820191906000526020600020905b8154815290600101906020018083116102d457829003601f168201915b5050505050815260200160018201548152505081526020019060010190610245565b505050509050919050565b60006003828154811061033457610333611442565b5b906000526020600020906005020160010154421015610388576040517f08c379a000000000000000000000000000000000000000000000000000000000815260040161037f9061151e565b60405180910390fd5b6003828154811061039c5761039b611442565b5b90600052602060002090600502016002015442106103bd57600090506103f1565b42600383815481106103d2576103d1611442565b5b9060005260206000209060050201600201546103ee919061156d565b90505b919050565b600460009054906101000a900473ffffffffffffffffffffffffffffffffffffffff1673ffffffffffffffffffffffffffffffffffffffff163373ffffffffffffffffffffffffffffffffffffffff161461045057600080fd5b6001805490508110610497576040517f08c379a000000000000000000000000000000000000000000000000000000000815260040161048e906115ed565b60405180910390fd5b600181815481106104ab576104aa611442565b5b90600052602060002090600202016000016040518060400160405280848152602001600081525090806001815401808255809150506001900390600052602060002090600202016000909190919091506000820151816000019080519060200190610517929190610c71565b506020820151816001015550505050565b600180549050811061056f576040517f08c379a0000000000000000000000000000000000000000000000000000000008152600401610566906115ed565b60405180910390fd5b6001818154811061058357610582611442565b5b90600052602060002090600202016000018054905082106105d9576040517f08c379a00000000000000000000000000000000000000000000000000000000081526004016105d090611659565b60405180910390fd5b60008060003373ffffffffffffffffffffffffffffffffffffffff1673ffffffffffffffffffffffffffffffffffffffff1681526020019081526020016000206001018054905014806106c257506106c06000803373ffffffffffffffffffffffffffffffffffffffff1673ffffffffffffffffffffffffffffffffffffffff1681526020019081526020016000206001018054806020026020016040519081016040528092919081815260200182805480156106b557602002820191906000526020600020905b8154815260200190600101908083116106a1575b505050505082610c15565b155b610701576040517f08c379a00000000000000000000000000000000000000000000000000000000081526004016106f8906116eb565b60405180910390fd5b6001818154811061071557610714611442565b5b9060005260206000209060020201600001828154811061073857610737611442565b5b9060005260206000209060020201600101600081548092919061075a9061170b565b91905055506000803373ffffffffffffffffffffffffffffffffffffffff1673ffffffffffffffffffffffffffffffffffffffff1681526020019081526020016000206001018190806001815401808255809150506001900390600052602060002001600090919091909150555050565b600381815481106107db57600080fd5b90600052602060002090600502016000915090508060000180546107fe906114a0565b80601f016020809104026020016040519081016040528092919081815260200182805461082a906114a0565b80156108775780601f1061084c57610100808354040283529160200191610877565b820191906000526020600020905b81548152906001019060200180831161085a57829003601f168201915b5050505050908060010154908060020154908060030160009054906101000a900473ffffffffffffffffffffffffffffffffffffffff16908060040154905085565b60606003805480602002602001604051908101604052809291908181526020016000905b82821015610a1557838290600052602060002090600502016040518060a0016040529081600082018054610910906114a0565b80601f016020809104026020016040519081016040528092919081815260200182805461093c906114a0565b80156109895780601f1061095e57610100808354040283529160200191610989565b820191906000526020600020905b81548152906001019060200180831161096c57829003601f168201915b5050505050815260200160018201548152602001600282015481526020016003820160009054906101000a900473ffffffffffffffffffffffffffffffffffffffff1673ffffffffffffffffffffffffffffffffffffffff1673ffffffffffffffffffffffffffffffffffffffff168152602001600482015481525050815260200190600101906108dd565b50505050905090565b600460009054906101000a900473ffffffffffffffffffffffffffffffffffffffff1673ffffffffffffffffffffffffffffffffffffffff163373ffffffffffffffffffffffffffffffffffffffff1614610a7857600080fd5b600160026000828254610a8b9190611754565b9250508190555060036040518060a001604052808581526020018481526020018381526020013373ffffffffffffffffffffffffffffffffffffffff16815260200160025481525090806001815401808255809150506001900390600052602060002090600502016000909190919091506000820151816000019080519060200190610b18929190610c71565b50602082015181600101556040820151816002015560608201518160030160006101000a81548173ffffffffffffffffffffffffffffffffffffffff021916908373ffffffffffffffffffffffffffffffffffffffff160217905550608082015181600401555050505050565b60018181548110610b9557600080fd5b90600052602060002090600202016000915090508060010154905081565b600060038281548110610bc957610bc8611442565b5b9060005260206000209060050201600101544210158015610c0e575060038281548110610bf957610bf8611442565b5b90600052602060002090600502016002015442105b9050919050565b600080600090505b8351811015610c655782848281518110610c3a57610c39611442565b5b60200260200101511415610c52576001915050610c6b565b8080610c5d9061170b565b915050610c1d565b50600090505b92915050565b828054610c7d906114a0565b90600052602060002090601f016020900481019282610c9f5760008555610ce6565b82601f10610cb857805160ff1916838001178555610ce6565b82800160010185558215610ce6579182015b82811115610ce5578251825591602001919060010190610cca565b5b509050610cf39190610cf7565b5090565b5b80821115610d10576000816000905550600101610cf8565b5090565b6000604051905090565b600080fd5b600080fd5b6000819050919050565b610d3b81610d28565b8114610d4657600080fd5b50565b600081359050610d5881610d32565b92915050565b600060208284031215610d7457610d73610d1e565b5b6000610d8284828501610d49565b91505092915050565b600081519050919050565b600082825260208201905092915050565b6000819050602082019050919050565b600081519050919050565b600082825260208201905092915050565b60005b83811015610df1578082015181840152602081019050610dd6565b83811115610e00576000848401525b50505050565b6000601f19601f8301169050919050565b6000610e2282610db7565b610e2c8185610dc2565b9350610e3c818560208601610dd3565b610e4581610e06565b840191505092915050565b610e5981610d28565b82525050565b60006040830160008301518482036000860152610e7c8282610e17565b9150506020830151610e916020860182610e50565b508091505092915050565b6000610ea88383610e5f565b905092915050565b6000602082019050919050565b6000610ec882610d8b565b610ed28185610d96565b935083602082028501610ee485610da7565b8060005b85811015610f205784840389528151610f018582610e9c565b9450610f0c83610eb0565b925060208a01995050600181019050610ee8565b50829750879550505050505092915050565b60006020820190508181036000830152610f4c8184610ebd565b905092915050565b610f5d81610d28565b82525050565b6000602082019050610f786000830184610f54565b92915050565b600080fd5b600080fd5b7f4e487b7100000000000000000000000000000000000000000000000000000000600052604160045260246000fd5b610fc082610e06565b810181811067ffffffffffffffff82111715610fdf57610fde610f88565b5b80604052505050565b6000610ff2610d14565b9050610ffe8282610fb7565b919050565b600067ffffffffffffffff82111561101e5761101d610f88565b5b61102782610e06565b9050602081019050919050565b82818337600083830152505050565b600061105661105184611003565b610fe8565b90508281526020810184848401111561107257611071610f83565b5b61107d848285611034565b509392505050565b600082601f83011261109a57611099610f7e565b5b81356110aa848260208601611043565b91505092915050565b600080604083850312156110ca576110c9610d1e565b5b600083013567ffffffffffffffff8111156110e8576110e7610d23565b5b6110f485828601611085565b925050602061110585828601610d49565b9150509250929050565b6000806040838503121561112657611125610d1e565b5b600061113485828601610d49565b925050602061114585828601610d49565b9150509250929050565b600082825260208201905092915050565b600061116b82610db7565b611175818561114f565b9350611185818560208601610dd3565b61118e81610e06565b840191505092915050565b600073ffffffffffffffffffffffffffffffffffffffff82169050919050565b60006111c482611199565b9050919050565b6111d4816111b9565b82525050565b600060a08201905081810360008301526111f48188611160565b90506112036020830187610f54565b6112106040830186610f54565b61121d60608301856111cb565b61122a6080830184610f54565b9695505050505050565b600081519050919050565b600082825260208201905092915050565b6000819050602082019050919050565b611269816111b9565b82525050565b600060a083016000830151848203600086015261128c8282610e17565b91505060208301516112a16020860182610e50565b5060408301516112b46040860182610e50565b5060608301516112c76060860182611260565b5060808301516112da6080860182610e50565b508091505092915050565b60006112f1838361126f565b905092915050565b6000602082019050919050565b600061131182611234565b61131b818561123f565b93508360208202850161132d85611250565b8060005b85811015611369578484038952815161134a85826112e5565b9450611355836112f9565b925060208a01995050600181019050611331565b50829750879550505050505092915050565b600060208201905081810360008301526113958184611306565b905092915050565b6000806000606084860312156113b6576113b5610d1e565b5b600084013567ffffffffffffffff8111156113d4576113d3610d23565b5b6113e086828701611085565b93505060206113f186828701610d49565b925050604061140286828701610d49565b9150509250925092565b60008115159050919050565b6114218161140c565b82525050565b600060208201905061143c6000830184611418565b92915050565b7f4e487b7100000000000000000000000000000000000000000000000000000000600052603260045260246000fd5b7f4e487b7100000000000000000000000000000000000000000000000000000000600052602260045260246000fd5b600060028204905060018216806114b857607f821691505b602082108114156114cc576114cb611471565b5b50919050565b7f566f74696e6720686173206e6f742073746172746564207965742e0000000000600082015250565b6000611508601b8361114f565b9150611513826114d2565b602082019050919050565b60006020820190508181036000830152611537816114fb565b9050919050565b7f4e487b7100000000000000000000000000000000000000000000000000000000600052601160045260246000fd5b600061157882610d28565b915061158383610d28565b9250828210156115965761159561153e565b5b828203905092915050565b7f496e76616c6964206576656e7420696e64657800000000000000000000000000600082015250565b60006115d760138361114f565b91506115e2826115a1565b602082019050919050565b60006020820190508181036000830152611606816115ca565b9050919050565b7f496e76616c69642063616e64696461746520696e646578000000000000000000600082015250565b600061164360178361114f565b915061164e8261160d565b602082019050919050565b6000602082019050818103600083015261167281611636565b9050919050565b7f566f7465722068617320616c726561647920766f74656420696e20746869732060008201527f6576656e74000000000000000000000000000000000000000000000000000000602082015250565b60006116d560258361114f565b91506116e082611679565b604082019050919050565b60006020820190508181036000830152611704816116c8565b9050919050565b600061171682610d28565b91507fffffffffffffffffffffffffffffffffffffffffffffffffffffffffffffffff8214156117495761174861153e565b5b600182019050919050565b600061175f82610d28565b915061176a83610d28565b9250827fffffffffffffffffffffffffffffffffffffffffffffffffffffffffffffffff0382111561179f5761179e61153e565b5b82820190509291505056fea26469706673582212201e6d7a22e24887c1a1f0c2c9cf056b46732275a9bde45904a1d283d2e4e4230864736f6c63430008090033",
  "immutableReferences": {},
  "source": "// SPDX-License-Identifier: UNLICENSED\r\npragma solidity ^0.8.9;\r\n\r\ncontract Voting {\r\n    struct Candidate {\r\n        string name;\r\n        uint256 voteCount;\r\n    }\r\n\r\n    struct VotingEvent {\r\n        string name;\r\n        uint256 votingStart;\r\n        uint256 votingEnd;\r\n        address owner;\r\n        uint id;\r\n    }\r\n\r\n    struct EventsAndCandidate {\r\n        Candidate[] candidates;\r\n        uint _eventIndex;\r\n    }\r\n\r\n    struct EventsAndVoters {\r\n        address voter_address;\r\n        uint[] _eventIndex;\r\n    }\r\n    mapping(address => EventsAndVoters) voters;\r\n    EventsAndCandidate[] public eventAndCandidate;\r\n\r\n    uint256 eventCount;\r\n\r\n    VotingEvent[] public votingEvents;\r\n    address owner;\r\n\r\n    modifier onlyOwner() {\r\n        require(msg.sender == owner);\r\n        _;\r\n    }\r\n\r\n    function addEvent(\r\n        string memory _name,\r\n        uint256 votingStart,\r\n        uint256 votingEnd\r\n    ) public onlyOwner {\r\n        eventCount += 1;\r\n        votingEvents.push(\r\n            VotingEvent({\r\n                name: _name,\r\n                votingStart: votingStart,\r\n                votingEnd: votingEnd,\r\n                owner: msg.sender,\r\n                id: eventCount\r\n            })\r\n        );\r\n    }\r\n\r\n    function addCandidateToEvent(\r\n        string memory _name,\r\n        uint _eventIndex\r\n    ) public onlyOwner {\r\n        require(_eventIndex < eventAndCandidate.length, \"Invalid event index\");\r\n        eventAndCandidate[_eventIndex].candidates.push(\r\n            Candidate({name: _name, voteCount: 0})\r\n        );\r\n    }\r\n\r\n    function vote(uint256 _candidateIndex, uint _eventIndex) public {\r\n        require(_eventIndex < eventAndCandidate.length, \"Invalid event index\");\r\n        require(\r\n            _candidateIndex < eventAndCandidate[_eventIndex].candidates.length,\r\n            \"Invalid candidate index\"\r\n        );\r\n        require(\r\n            voters[msg.sender]._eventIndex.length == 0 ||\r\n                !contains(voters[msg.sender]._eventIndex, _eventIndex),\r\n            \"Voter has already voted in this event\"\r\n        );\r\n\r\n        eventAndCandidate[_eventIndex].candidates[_candidateIndex].voteCount++;\r\n        voters[msg.sender]._eventIndex.push(_eventIndex);\r\n    }\r\n\r\n    function contains(\r\n        uint[] memory arr,\r\n        uint element\r\n    ) private pure returns (bool) {\r\n        for (uint i = 0; i < arr.length; i++) {\r\n            if (arr[i] == element) {\r\n                return true;\r\n            }\r\n        }\r\n        return false;\r\n    }\r\n\r\n    function getAllEvents () public view returns (VotingEvent[] memory){\r\n        return votingEvents;\r\n    }\r\n\r\n    function getAllCandiatesOfEvent(\r\n        uint256 _eventIndex\r\n    ) public view returns (Candidate[] memory) {\r\n        return eventAndCandidate[_eventIndex].candidates;\r\n    }\r\n\r\n    function getVotingStatusOfEvent(\r\n        uint256 _eventIndex\r\n    ) public view returns (bool) {\r\n        return (block.timestamp >= votingEvents[_eventIndex].votingStart &&\r\n            block.timestamp < votingEvents[_eventIndex].votingEnd);\r\n    }\r\n\r\n    function getRemainingTimeOfEvent(\r\n        uint256 _eventIndex\r\n    ) public view returns (uint256) {\r\n        require(\r\n            block.timestamp >= votingEvents[_eventIndex].votingStart,\r\n            \"Voting has not started yet.\"\r\n        );\r\n        if (block.timestamp >= votingEvents[_eventIndex].votingEnd) {\r\n            return 0;\r\n        }\r\n        return votingEvents[_eventIndex].votingEnd - block.timestamp;\r\n    }\r\n}\r\n",
  "sourcePath": "C:\\Users\\Le Quoc Tuan\\OneDrive\\Documents\\Blockchains\\project2\\client\\contracts\\Voting.sol",
  "compiler": {
    "name": "solc",
    "version": "0.8.9+commit.e5eed63a.Emscripten.clang"
  },
  "schemaVersion": "3.4.7",
  "updatedAt": "2023-04-25T14:59:42.584Z",
  "networkType": "ethereum",
  "devdoc": {
    "kind": "dev",
    "methods": {},
    "version": 1
  },
  "userdoc": {
    "kind": "user",
    "methods": {},
    "version": 1
  }
}