{
  "contractName": "Voting",
  "abi": [
    {
      "inputs": [
        {
          "internalType": "uint256",
          "name": "",
          "type": "uint256"
        }
      ],
      "name": "votingEvents",
      "outputs": [
        {
          "internalType": "string",
          "name": "name",
          "type": "string"
        },
        {
          "internalType": "uint256",
          "name": "votingStart",
          "type": "uint256"
        },
        {
          "internalType": "uint256",
          "name": "votingEnd",
          "type": "uint256"
        },
        {
          "internalType": "address",
          "name": "owner",
          "type": "address"
        },
        {
          "internalType": "uint256",
          "name": "id",
          "type": "uint256"
        }
      ],
      "stateMutability": "view",
      "type": "function",
      "constant": true
    },
    {
      "inputs": [
        {
          "internalType": "string",
          "name": "_name",
          "type": "string"
        },
        {
          "internalType": "uint256",
          "name": "_durationInMinutes",
          "type": "uint256"
        }
      ],
      "name": "addEvent",
      "outputs": [],
      "stateMutability": "nonpayable",
      "type": "function"
    },
    {
      "inputs": [
        {
          "internalType": "string",
          "name": "_candidateName",
          "type": "string"
        },
        {
          "internalType": "string",
          "name": "_userIndex",
          "type": "string"
        },
        {
          "internalType": "uint256",
          "name": "_eventIndex",
          "type": "uint256"
        }
      ],
      "name": "addCandidate",
      "outputs": [],
      "stateMutability": "nonpayable",
      "type": "function"
    },
    {
      "inputs": [
        {
          "internalType": "uint256",
          "name": "_candidateIndex",
          "type": "uint256"
        },
        {
          "internalType": "uint256",
          "name": "_eventIndex",
          "type": "uint256"
        }
      ],
      "name": "vote",
      "outputs": [],
      "stateMutability": "nonpayable",
      "type": "function"
    },
    {
      "inputs": [],
      "name": "getAllEvents",
      "outputs": [
        {
          "components": [
            {
              "internalType": "string",
              "name": "name",
              "type": "string"
            },
            {
              "internalType": "uint256",
              "name": "votingStart",
              "type": "uint256"
            },
            {
              "internalType": "uint256",
              "name": "votingEnd",
              "type": "uint256"
            },
            {
              "internalType": "address",
              "name": "owner",
              "type": "address"
            },
            {
              "internalType": "uint256",
              "name": "id",
              "type": "uint256"
            }
          ],
          "internalType": "struct Voting.VotingEvent[]",
          "name": "",
          "type": "tuple[]"
        }
      ],
      "stateMutability": "view",
      "type": "function",
      "constant": true
    },
    {
      "inputs": [],
      "name": "getAllCandidates",
      "outputs": [
        {
          "components": [
            {
              "internalType": "string",
              "name": "name",
              "type": "string"
            },
            {
              "internalType": "string",
              "name": "_userIndex",
              "type": "string"
            },
            {
              "internalType": "uint256",
              "name": "voteCount",
              "type": "uint256"
            },
            {
              "internalType": "uint256",
              "name": "_eventIndex",
              "type": "uint256"
            }
          ],
          "internalType": "struct Voting.Candidate[]",
          "name": "",
          "type": "tuple[]"
        }
      ],
      "stateMutability": "view",
      "type": "function",
      "constant": true
    },
    {
      "inputs": [
        {
          "internalType": "uint256",
          "name": "_eventIndex",
          "type": "uint256"
        }
      ],
      "name": "getVotingStatusOfEvent",
      "outputs": [
        {
          "internalType": "bool",
          "name": "",
          "type": "bool"
        }
      ],
      "stateMutability": "view",
      "type": "function",
      "constant": true
    },
    {
      "inputs": [
        {
          "internalType": "uint256",
          "name": "_eventIndex",
          "type": "uint256"
        }
      ],
      "name": "getRemainingTimeOfEvent",
      "outputs": [
        {
          "internalType": "uint256",
          "name": "",
          "type": "uint256"
        }
      ],
      "stateMutability": "view",
      "type": "function",
      "constant": true
    }
  ],
  "bytecode": "0x608060405234801561001057600080fd5b50611aab806100206000396000f3fe608060405234801561001057600080fd5b50600436106100885760003560e01c8063bf9b48a71161005b578063bf9b48a714610113578063c27a500d14610147578063f0c27aa514610165578063f0e1691a1461019557610088565b80632e6997fe1461008d5780633ca09fdf146100ab578063512e3dfd146100c7578063b384abef146100f7575b600080fd5b6100956101b1565b6040516100a29190610f8c565b60405180910390f35b6100c560048036038101906100c09190611123565b610348565b005b6100e160048036038101906100dc91906111ae565b610519565b6040516100ee91906111ea565b60405180910390f35b610111600480360381019061010c9190611205565b6105f1565b005b61012d600480360381019061012891906111ae565b6108d7565b60405161013e9594939291906112d0565b60405180910390f35b61014f6109c5565b60405161015c9190611471565b60405180910390f35b61017f600480360381019061017a91906111ae565b610b2a565b60405161018c91906114ae565b60405180910390f35b6101af60048036038101906101aa91906114c9565b610b8c565b005b60606001805480602002602001604051908101604052809291908181526020016000905b8282101561033f578382906000526020600020906004020160405180608001604052908160008201805461020890611554565b80601f016020809104026020016040519081016040528092919081815260200182805461023490611554565b80156102815780601f1061025657610100808354040283529160200191610281565b820191906000526020600020905b81548152906001019060200180831161026457829003601f168201915b5050505050815260200160018201805461029a90611554565b80601f01602080910402602001604051908101604052809291908181526020018280546102c690611554565b80156103135780601f106102e857610100808354040283529160200191610313565b820191906000526020600020905b8154815290600101906020018083116102f657829003601f168201915b5050505050815260200160028201548152602001600382015481525050815260200190600101906101d5565b50505050905090565b600380549050811061038f576040517f08c379a0000000000000000000000000000000000000000000000000000000008152600401610386906115d2565b60405180910390fd5b6000805b6001805490508110156104345782600182815481106103b5576103b46115f2565b5b90600052602060002090600402016003015414801561041357508380519060200120600182815481106103eb576103ea6115f2565b5b906000526020600020906004020160010160405161040991906116c0565b6040518091039020145b156104215760019150610434565b808061042c90611706565b915050610393565b508015610476576040517f08c379a000000000000000000000000000000000000000000000000000000000815260040161046d9061179b565b60405180910390fd5b600160405180608001604052808681526020018581526020016000815260200184815250908060018154018082558091505060019003906000526020600020906004020160009091909190915060008201518160000190805190602001906104df929190610d0b565b5060208201518160010190805190602001906104fc929190610d0b565b506040820151816002015560608201518160030155505050505050565b60006003828154811061052f5761052e6115f2565b5b906000526020600020906005020160010154421015610583576040517f08c379a000000000000000000000000000000000000000000000000000000000815260040161057a90611807565b60405180910390fd5b60038281548110610597576105966115f2565b5b90600052602060002090600502016002015442106105b857600090506105ec565b42600383815481106105cd576105cc6115f2565b5b9060005260206000209060050201600201546105e99190611827565b90505b919050565b6003805490508110610638576040517f08c379a000000000000000000000000000000000000000000000000000000000815260040161062f906115d2565b60405180910390fd5b60008060003373ffffffffffffffffffffffffffffffffffffffff1673ffffffffffffffffffffffffffffffffffffffff168152602001908152602001600020600101805490501480610721575061071f6000803373ffffffffffffffffffffffffffffffffffffffff1673ffffffffffffffffffffffffffffffffffffffff16815260200190815260200160002060010180548060200260200160405190810160405280929190818152602001828054801561071457602002820191906000526020600020905b815481526020019060010190808311610700575b505050505082610caf565b155b610760576040517f08c379a0000000000000000000000000000000000000000000000000000000008152600401610757906118cd565b60405180910390fd5b60038181548110610774576107736115f2565b5b9060005260206000209060050201600101544210156107c8576040517f08c379a00000000000000000000000000000000000000000000000000000000081526004016107bf90611939565b60405180910390fd5b600381815481106107dc576107db6115f2565b5b906000526020600020906005020160020154421115610830576040517f08c379a0000000000000000000000000000000000000000000000000000000008152600401610827906119a5565b60405180910390fd5b60018281548110610844576108436115f2565b5b9060005260206000209060040201600201600081548092919061086690611706565b91905055506000803373ffffffffffffffffffffffffffffffffffffffff1673ffffffffffffffffffffffffffffffffffffffff1681526020019081526020016000206001018190806001815401808255809150506001900390600052602060002001600090919091909150555050565b600381815481106108e757600080fd5b906000526020600020906005020160009150905080600001805461090a90611554565b80601f016020809104026020016040519081016040528092919081815260200182805461093690611554565b80156109835780601f1061095857610100808354040283529160200191610983565b820191906000526020600020905b81548152906001019060200180831161096657829003601f168201915b5050505050908060010154908060020154908060030160009054906101000a900473ffffffffffffffffffffffffffffffffffffffff16908060040154905085565b60606003805480602002602001604051908101604052809291908181526020016000905b82821015610b2157838290600052602060002090600502016040518060a0016040529081600082018054610a1c90611554565b80601f0160208091040260200160405190810160405280929190818152602001828054610a4890611554565b8015610a955780601f10610a6a57610100808354040283529160200191610a95565b820191906000526020600020905b815481529060010190602001808311610a7857829003601f168201915b5050505050815260200160018201548152602001600282015481526020016003820160009054906101000a900473ffffffffffffffffffffffffffffffffffffffff1673ffffffffffffffffffffffffffffffffffffffff1673ffffffffffffffffffffffffffffffffffffffff168152602001600482015481525050815260200190600101906109e9565b50505050905090565b600060038281548110610b4057610b3f6115f2565b5b9060005260206000209060050201600101544210158015610b85575060038281548110610b7057610b6f6115f2565b5b90600052602060002090600502016002015442105b9050919050565b60036040518060a00160405280848152602001428152602001603c84610bb291906119c5565b42610bbd9190611a1f565b81526020013373ffffffffffffffffffffffffffffffffffffffff16815260200160025481525090806001815401808255809150506001900390600052602060002090600502016000909190919091506000820151816000019080519060200190610c29929190610d0b565b50602082015181600101556040820151816002015560608201518160030160006101000a81548173ffffffffffffffffffffffffffffffffffffffff021916908373ffffffffffffffffffffffffffffffffffffffff160217905550608082015181600401555050600160026000828254610ca49190611a1f565b925050819055505050565b600080600090505b8351811015610cff5782848281518110610cd457610cd36115f2565b5b60200260200101511415610cec576001915050610d05565b8080610cf790611706565b915050610cb7565b50600090505b92915050565b828054610d1790611554565b90600052602060002090601f016020900481019282610d395760008555610d80565b82601f10610d5257805160ff1916838001178555610d80565b82800160010185558215610d80579182015b82811115610d7f578251825591602001919060010190610d64565b5b509050610d8d9190610d91565b5090565b5b80821115610daa576000816000905550600101610d92565b5090565b600081519050919050565b600082825260208201905092915050565b6000819050602082019050919050565b600081519050919050565b600082825260208201905092915050565b60005b83811015610e14578082015181840152602081019050610df9565b83811115610e23576000848401525b50505050565b6000601f19601f8301169050919050565b6000610e4582610dda565b610e4f8185610de5565b9350610e5f818560208601610df6565b610e6881610e29565b840191505092915050565b6000819050919050565b610e8681610e73565b82525050565b60006080830160008301518482036000860152610ea98282610e3a565b91505060208301518482036020860152610ec38282610e3a565b9150506040830151610ed86040860182610e7d565b506060830151610eeb6060860182610e7d565b508091505092915050565b6000610f028383610e8c565b905092915050565b6000602082019050919050565b6000610f2282610dae565b610f2c8185610db9565b935083602082028501610f3e85610dca565b8060005b85811015610f7a5784840389528151610f5b8582610ef6565b9450610f6683610f0a565b925060208a01995050600181019050610f42565b50829750879550505050505092915050565b60006020820190508181036000830152610fa68184610f17565b905092915050565b6000604051905090565b600080fd5b600080fd5b600080fd5b600080fd5b7f4e487b7100000000000000000000000000000000000000000000000000000000600052604160045260246000fd5b61100482610e29565b810181811067ffffffffffffffff8211171561102357611022610fcc565b5b80604052505050565b6000611036610fae565b90506110428282610ffb565b919050565b600067ffffffffffffffff82111561106257611061610fcc565b5b61106b82610e29565b9050602081019050919050565b82818337600083830152505050565b600061109a61109584611047565b61102c565b9050828152602081018484840111156110b6576110b5610fc7565b5b6110c1848285611078565b509392505050565b600082601f8301126110de576110dd610fc2565b5b81356110ee848260208601611087565b91505092915050565b61110081610e73565b811461110b57600080fd5b50565b60008135905061111d816110f7565b92915050565b60008060006060848603121561113c5761113b610fb8565b5b600084013567ffffffffffffffff81111561115a57611159610fbd565b5b611166868287016110c9565b935050602084013567ffffffffffffffff81111561118757611186610fbd565b5b611193868287016110c9565b92505060406111a48682870161110e565b9150509250925092565b6000602082840312156111c4576111c3610fb8565b5b60006111d28482850161110e565b91505092915050565b6111e481610e73565b82525050565b60006020820190506111ff60008301846111db565b92915050565b6000806040838503121561121c5761121b610fb8565b5b600061122a8582860161110e565b925050602061123b8582860161110e565b9150509250929050565b600082825260208201905092915050565b600061126182610dda565b61126b8185611245565b935061127b818560208601610df6565b61128481610e29565b840191505092915050565b600073ffffffffffffffffffffffffffffffffffffffff82169050919050565b60006112ba8261128f565b9050919050565b6112ca816112af565b82525050565b600060a08201905081810360008301526112ea8188611256565b90506112f960208301876111db565b61130660408301866111db565b61131360608301856112c1565b61132060808301846111db565b9695505050505050565b600081519050919050565b600082825260208201905092915050565b6000819050602082019050919050565b61135f816112af565b82525050565b600060a08301600083015184820360008601526113828282610e3a565b91505060208301516113976020860182610e7d565b5060408301516113aa6040860182610e7d565b5060608301516113bd6060860182611356565b5060808301516113d06080860182610e7d565b508091505092915050565b60006113e78383611365565b905092915050565b6000602082019050919050565b60006114078261132a565b6114118185611335565b93508360208202850161142385611346565b8060005b8581101561145f578484038952815161144085826113db565b945061144b836113ef565b925060208a01995050600181019050611427565b50829750879550505050505092915050565b6000602082019050818103600083015261148b81846113fc565b905092915050565b60008115159050919050565b6114a881611493565b82525050565b60006020820190506114c3600083018461149f565b92915050565b600080604083850312156114e0576114df610fb8565b5b600083013567ffffffffffffffff8111156114fe576114fd610fbd565b5b61150a858286016110c9565b925050602061151b8582860161110e565b9150509250929050565b7f4e487b7100000000000000000000000000000000000000000000000000000000600052602260045260246000fd5b6000600282049050600182168061156c57607f821691505b602082108114156115805761157f611525565b5b50919050565b7f496e76616c6964206576656e7420696e64657800000000000000000000000000600082015250565b60006115bc601383611245565b91506115c782611586565b602082019050919050565b600060208201905081810360008301526115eb816115af565b9050919050565b7f4e487b7100000000000000000000000000000000000000000000000000000000600052603260045260246000fd5b600081905092915050565b60008190508160005260206000209050919050565b6000815461164e81611554565b6116588186611621565b945060018216600081146116735760018114611684576116b7565b60ff198316865281860193506116b7565b61168d8561162c565b60005b838110156116af57815481890152600182019150602081019050611690565b838801955050505b50505092915050565b60006116cc8284611641565b915081905092915050565b7f4e487b7100000000000000000000000000000000000000000000000000000000600052601160045260246000fd5b600061171182610e73565b91507fffffffffffffffffffffffffffffffffffffffffffffffffffffffffffffffff821415611744576117436116d7565b5b600182019050919050565b7f43616e64696461746520616c7265616479206578697374656400000000000000600082015250565b6000611785601983611245565b91506117908261174f565b602082019050919050565b600060208201905081810360008301526117b481611778565b9050919050565b7f566f74696e6720686173206e6f742073746172746564207965742e0000000000600082015250565b60006117f1601b83611245565b91506117fc826117bb565b602082019050919050565b60006020820190508181036000830152611820816117e4565b9050919050565b600061183282610e73565b915061183d83610e73565b9250828210156118505761184f6116d7565b5b828203905092915050565b7f566f7465722068617320616c726561647920766f74656420696e20746869732060008201527f6576656e74000000000000000000000000000000000000000000000000000000602082015250565b60006118b7602583611245565b91506118c28261185b565b604082019050919050565b600060208201905081810360008301526118e6816118aa565b9050919050565b7f566f74696e67206e6f7420796574207374617274210000000000000000000000600082015250565b6000611923601583611245565b915061192e826118ed565b602082019050919050565b6000602082019050818103600083015261195281611916565b9050919050565b7f566f74696e6720656e6465642100000000000000000000000000000000000000600082015250565b600061198f600d83611245565b915061199a82611959565b602082019050919050565b600060208201905081810360008301526119be81611982565b9050919050565b60006119d082610e73565b91506119db83610e73565b9250817fffffffffffffffffffffffffffffffffffffffffffffffffffffffffffffffff0483118215151615611a1457611a136116d7565b5b828202905092915050565b6000611a2a82610e73565b9150611a3583610e73565b9250827fffffffffffffffffffffffffffffffffffffffffffffffffffffffffffffffff03821115611a6a57611a696116d7565b5b82820190509291505056fea2646970667358221220a2d409333a8ed13dd480370919ebb6796f5ca8cee8be854acc192b5a7bc2d57364736f6c63430008090033",
  "immutableReferences": {},
  "source": "// SPDX-License-Identifier: UNLICENSED\r\n\r\npragma solidity ^0.8.9;\r\n\r\ncontract Voting{\r\n        //Voting\r\n    struct Candidate {\r\n        string name;\r\n        string _userIndex;\r\n        uint256 voteCount;\r\n        uint _eventIndex;\r\n    }\r\n\r\n    struct VotingEvent {\r\n        string name;\r\n        uint256 votingStart;\r\n        uint256 votingEnd;\r\n        address owner;\r\n        uint id;\r\n    }\r\n    struct VoterAndEvents {\r\n        address voter_address;\r\n        uint[] _eventIndex;\r\n    }\r\n    mapping(address => VoterAndEvents) voters;\r\n    Candidate[] candidates;\r\n    uint256 eventCount;\r\n    VotingEvent[] public votingEvents;\r\n\r\n    function addEvent(\r\n        string memory _name,\r\n        uint256 _durationInMinutes\r\n    ) public {\r\n        votingEvents.push(\r\n            VotingEvent({\r\n                name: _name,\r\n                votingStart: block.timestamp,\r\n                votingEnd: block.timestamp + (_durationInMinutes * 1 minutes),\r\n                owner: msg.sender,\r\n                id: eventCount\r\n            })\r\n        );\r\n        eventCount += 1;\r\n    }\r\n\r\n    function addCandidate(\r\n        string memory _candidateName,\r\n        string memory _userIndex,\r\n        uint _eventIndex\r\n    ) public {\r\n        require(_eventIndex < votingEvents.length, \"Invalid event index\");\r\n        bool check = false;\r\n        for(uint256 i = 0; i < candidates.length; i++){\r\n            if(candidates[i]._eventIndex == _eventIndex && keccak256(bytes(candidates[i]._userIndex)) == keccak256(bytes(_userIndex))){ \r\n                check = true;\r\n                break;\r\n            }\r\n        }\r\n        require(!check, \"Candidate already existed\");\r\n        candidates.push(Candidate(_candidateName,_userIndex,0,_eventIndex)); \r\n    }\r\n\r\n    function vote(uint256 _candidateIndex, uint _eventIndex) public {\r\n        require(_eventIndex < votingEvents.length, \"Invalid event index\");\r\n        require(\r\n            voters[msg.sender]._eventIndex.length == 0 ||\r\n                !contains(voters[msg.sender]._eventIndex, _eventIndex),\r\n            \"Voter has already voted in this event\"\r\n        );\r\n        require(block.timestamp >= votingEvents[_eventIndex].votingStart, \"Voting not yet start!\");\r\n        require(block.timestamp <= votingEvents[_eventIndex].votingEnd, \"Voting ended!\");\r\n\r\n        candidates[_candidateIndex].voteCount++;\r\n        voters[msg.sender]._eventIndex.push(_eventIndex);\r\n    }\r\n\r\n    function contains(\r\n        uint[] memory arr,\r\n        uint element\r\n    ) private pure returns (bool) {\r\n        for (uint i = 0; i < arr.length; i++) {\r\n            if (arr[i] == element) {\r\n                return true;\r\n            }\r\n        }\r\n        return false;\r\n    }\r\n\r\n    function getAllEvents () public view returns (VotingEvent[] memory){\r\n        return votingEvents;\r\n    }\r\n\r\n    function getAllCandidates() public view returns (Candidate[] memory) {\r\n        return candidates;\r\n    }\r\n\r\n    function getVotingStatusOfEvent(\r\n        uint256 _eventIndex\r\n    ) public view returns (bool) {\r\n        return (block.timestamp >= votingEvents[_eventIndex].votingStart &&\r\n            block.timestamp < votingEvents[_eventIndex].votingEnd);\r\n    }\r\n\r\n    function getRemainingTimeOfEvent(\r\n        uint256 _eventIndex\r\n    ) public view returns (uint256) {\r\n        require(\r\n            block.timestamp >= votingEvents[_eventIndex].votingStart,\r\n            \"Voting has not started yet.\"\r\n        );\r\n        if (block.timestamp >= votingEvents[_eventIndex].votingEnd) {\r\n            return 0;\r\n        }\r\n        return votingEvents[_eventIndex].votingEnd - block.timestamp;\r\n    }\r\n}",
  "sourcePath": "C:\\Users\\Le Quoc Tuan\\OneDrive\\Documents\\Blockchains\\project2\\client\\contracts\\Voting.sol",
  "compiler": {
    "name": "solc",
    "version": "0.8.9+commit.e5eed63a.Emscripten.clang"
  },
  "schemaVersion": "3.4.7",
  "updatedAt": "2023-07-31T13:58:03.887Z",
  "networkType": "ethereum",
  "devdoc": {
    "kind": "dev",
    "methods": {},
    "version": 1
  },
  "userdoc": {
    "kind": "user",
    "methods": {},
    "version": 1
  }
}